:100000000C9493000C94BB000C94BB000C94BB00AC
:100010000C94BB000C94BB000C94BB000C944507E3
:100020000C94BB000C94BB000C94BB000C94BB0064
:100030000C94BB000C94BB000C94BB000C94BB0054
:100040000C94FB060C94BB000C94C7070C94A107FE
:100050000C94BB000C94BB000C94BB000C94BB0034
:100060000C94BB000C94BB00000622766D247F200C
:10007000390F5C50104008063F065B4F666D7D07E8
:100080007F6F303058484C535F777F395E79713DD0
:1000900076060E753815373F7367336D783E1C2A28
:1000A000766E5B39300F1308105F7C585E7B716F82
:1000B00074040C753015545C7367506D781C1C2AE1
:1000C00076665B79064F400002000000002400279E
:1000D000002A0000000000250028002B000000007E
:1000E000002300260029000404040404040404027C
:1000F00002020202020303030303030102040810C5
:100100002040800102040810200102040810200091
:1001100000000800020100000304070000000000C6
:1001200000000000F90711241FBECFEFD8E0DEBFAA
:10013000CDBF15E0A0E0B1E0E8EFF9E102C0059025
:100140000D92AC34B107D9F726E0ACE4B5E001C0BC
:100150001D92A232B207E1F710E0C3E9D0E004C07B
:100160002197FE010E94EB0CC239D107C9F70E940A
:100170006F080C94FA0C0C940000833081F028F482
:10018000813099F08230A9F008958730A9F0883045
:10019000C9F08430B1F4809180008F7D03C08091DC
:1001A00080008F7780938000089584B58F7784BD19
:1001B000089584B58F7DFBCF8091B0008F778093B9
:1001C000B00008958091B0008F7DF9CFCF93DF9379
:1001D000282F30E0F901E15FFE4F8491F901E550ED
:1001E000FF4FD491F901E951FF4FC491CC23A1F005
:1001F00081110E94BD00EC2FF0E0EE0FFF1FE352D3
:10020000FF4FA591B491EC91ED2381E090E009F4CA
:1002100080E0DF91CF91089580E090E0FACF1F93C6
:10022000CF93DF93282F30E0F901E15FFE4F8491F7
:10023000F901E550FF4FD491F901E951FF4FC49105
:10024000CC23A9F0162F81110E94BD00EC2FF0E005
:10025000EE0FFF1FED52FF4FA591B4918FB7F894A9
:10026000EC91111108C0D095DE23DC938FBFDF9194
:10027000CF911F910895DE2BF8CFCF93DF9390E0BD
:10028000FC01E550FF4F249189519F4FFC0184915F
:100290008823C9F090E0880F991FFC01E753FF4FB6
:1002A000A591B491FC01ED52FF4FC591D49161111C
:1002B0000DC09FB7F8948C91209582238C938881F0
:1002C000282328839FBFDF91CF910895623051F496
:1002D0009FB7F8943C91822F809583238C93E8817B
:1002E0002E2BEFCF8FB7F894EC912E2B2C938FBF42
:1002F000EACF1F93CF93DF93182FEB0161E00E94A9
:100300003D01209739F460E0812FDF91CF911F915B
:100310000C940F01CF3FD10511F461E0F5CFE12F2F
:10032000F0E0E15FFE4FE491E33031F140F4E13081
:10033000B1F0E230E1F0C038D1057CF7E4CFE7302E
:1003400029F1E83059F1E430B1F780918000806202
:1003500080938000D0938B00C0938A0004C084B542
:10036000806884BDC7BDDF91CF911F91089584B58A
:10037000806284BDC8BDF7CF809180008068809383
:100380008000D0938900C0938800EDCF8091B000A9
:1003900080688093B000C093B300E5CF8091B00037
:1003A00080628093B000C093B400DDCF3FB7F89473
:1003B0008091700590917105A0917205B0917305BF
:1003C00026B5A89B05C02F3F19F00196A11DB11DB0
:1003D0003FBFBA2FA92F982F8827BC01CD01620FEC
:1003E000711D811D911D42E0660F771F881F991FA7
:1003F0004A95D1F708958F929F92AF92BF92CF9274
:10040000DF92EF92FF926B017C010E94D6014B01BB
:100410005C01C114D104E104F104B9F00E94D601D9
:10042000681979098A099B09683E7340810591051D
:1004300080F321E0C21AD108E108F10888EE880EA5
:1004400083E0981EA11CB11CE4CFFF90EF90DF90D9
:10045000CF90BF90AF909F908F90089590910001A2
:1004600089130BC0E8ECF0E0E4919FEF909300015A
:10047000E13049F028F0E23061F060E00C940F01C7
:1004800010926E00FACF90916F009D7F90936F0055
:10049000F4CF909170009D7F9093700091E09093C5
:1004A000B0009091B100987F94609093B100109249
:1004B000B300E3CFAF92BF92CF92DF92EF92FF9261
:1004C0000F931F93CF93DF936C017B018B01040F7C
:1004D000151FEB015E01AE18BF08C017D10759F018
:1004E0006991D601ED91FC910190F081E02DC6015A
:1004F0000995892B79F7C501DF91CF911F910F9154
:10050000FF90EF90DF90CF90BF90AF900895FC01E7
:10051000538D448D252F30E0842F90E0821B930B68
:10052000541710F0CF96089501970895FC01918D0E
:10053000828D981761F0A28DAE0FBF2FB11D5D9611
:100540008C91928D9F5F9F73928F90E008958FEFB3
:100550009FEF0895FC01918D828D981731F0828D67
:10056000E80FF11D858D90E008958FEF9FEF0895BE
:10057000FC01918D228D892F90E0805C9F4F821B22
:1005800091098F739927089584E795E00E94B80236
:1005900021E0892B09F420E0822F089580E090E08B
:1005A000892B29F00E94C40281110C940000089547
:1005B000FC01A48DA80FB92FB11DA35ABF4F2C91D8
:1005C000848D90E001968F739927848FA689B789CF
:1005D0002C93A089B1898C91837080648C93938DC6
:1005E000848D981306C00288F389E02D80818F7D69
:1005F00080830895EF92FF920F931F93CF93DF9321
:10060000EC0181E0888F9B8D8C8D98131AC0E8894E
:10061000F989808185FF15C09FB7F894EE89FF891D
:100620006083E889F98980818370806480839FBFBB
:1006300081E090E0DF91CF911F910F91FF90EF90BB
:100640000895F62E0B8D10E00F5F1F4F0F731127CB
:10065000E02E8C8D8E110CC00FB607FCFACFE88906
:10066000F989808185FFF5CFCE010E94D802F1CFB4
:10067000EB8DEC0FFD2FF11DE35AFF4FF0829FB77A
:10068000F8940B8FEA89FB8980818062CFCFCF936A
:10069000DF93EC01888D8823B9F0AA89BB89E889AA
:1006A000F9898C9185FD03C0808186FD0DC00FB650
:1006B00007FCF7CF8C9185FFF2CF808185FFEDCFCE
:1006C000CE010E94D802E9CFDF91CF910895CF9358
:1006D000DF93EBE2F0E0883040F098EF980FE8E22B
:1006E000F0E0963010F4E5E2F0E0908142EF480F40
:1006F0008E3010F4482F477021E030E001C0220F07
:100700004A95EAF7322F309593239083AAE2B0E01E
:10071000683040F098EF960FA7E2B0E0963010F402
:10072000A4E2B0E09C9122EF260F6E3010F4262F49
:10073000277041E050E001C0440F2A95EAF7409548
:1007400049234C93CBE2D0E0683040F098EF960F0D
:10075000C8E2D0E0963010F4C5E2D0E0288191E004
:1007600042EF460F6E3010F4462F477001C0990FCC
:100770004A95EAF7292B2883CFE0D0E02197F1F7BB
:10078000C9E2D0E0683038F06850C6E2D0E06630A8
:1007900010F4C3E2D0E02881292361E009F060E091
:1007A00050818E30B0F08E5021E001C0220F8A952A
:1007B000EAF7252B2083CFE0D0E02197F1F72081C5
:1007C000322330832C91922B9C93862FDF91CF91F3
:1007D00008958770E9CFCF93DF93EBE2F0E08830A4
:1007E00040F098EF980FE8E2F0E0963010F4E5E280
:1007F000F0E0908142EF480F8E3010F4482F4770A0
:1008000021E030E001C0220F4A95EAF72095292324
:100810002083AFE0B0E01197F1F7ABE2B0E06830D1
:1008200040F098EF960FA8E2B0E0963010F4A5E201
:10083000B0E09C9142EF460F6E3010F4462F4770A7
:1008400021E030E001C0220F4A95EAF720952923E4
:100850002C93CFE0D0E02197F1F720818E30D8F0B3
:1008600092EF980F81E001C0880F9A95EAF7822BEA
:1008700080838FE090E00197F1F79C916E3098F0C3
:100880006E5081E001C0880F6A95EAF7892B8C933E
:10089000DF91CF910895877091E001C0990F8A95FB
:1008A000EAF7892FE4CF6770ECCFEBE2F0E0683035
:1008B00040F098EF960FE8E2F0E0963010F4E5E2B1
:1008C000F0E0208191E032EF360F6E3010F4362FD9
:1008D000377001C0990F3A95EAF7922B9083ABE2FB
:1008E000B0E0883040F098EF980FA8E2B0E0963082
:1008F00010F4A5E2B0E02C918E30D8F08E5091E04B
:1009000001C0990F8A95EAF7892F822B8C938FE08B
:1009100090E00197F1F720816E3068F06E5081E031
:1009200090E001C0880F6A95EAF780958223808362
:1009300008958770E4CF6770F2CFBF92CF92DF92B5
:10094000EF92FF920F931F93CF93DF93982F97709F
:1009500021E030E0D90101C0AA0F9A95EAF792EFA1
:10096000980F01C0220F9A95EAF7FA2E8E3008F000
:10097000F22EF094962F9770E1E0F0E0EF0101C0C5
:10098000CC0F9A95EAF792EF960F01C0EE0F9A9569
:10099000EAF7EC2E6E3008F0EE2EE094DC2EBC2E42
:1009A0006E3008F0BE2ECA2E8E3008F42A2F58E082
:1009B00098EF980F38EF360FCFE0D0E0ABE2B0E021
:1009C000883030F0A5E2B0E0963010F0A8E2B0E058
:1009D0007C917F21ABE2B0E0883030F0A5E2B0E05E
:1009E000963010F0A8E2B0E07C93A42FB0E040FF76
:1009F0004AC00BE210E0683030F005E210E036301B
:100A000010F008E210E0F80140817D2D0BE210E0CB
:100A1000683038F07B2D05E210E0363010F008E247
:100A200010E0472BF8014083FE013197F1F7B595AF
:100A3000A7954A2FABE2B0E0883030F0A5E2B0E0F5
:100A4000963010F0A8E2B0E07C91FC2DABE2B0E073
:100A5000883038F0F22FA5E2B0E0963010F0A8E22E
:100A6000B0E07F2B7C93DE011197F1F7515009F034
:100A7000A5CFDF91CF911F910F91FF90EF90DF9065
:100A8000CF90BF9008950BE210E0683030F005E29F
:100A900010E0363010F008E210E0F80140814E21FD
:100AA0000BE210E0683008F4BDCF05E210E036300C
:100AB00008F4B8CF08E210E0B5CF1F93CF93DF93CF
:100AC000C82FD62F142F0E945504412F6D2F8C2F25
:100AD0000E949D046D2F8C2F0E946703182F6D2F8D
:100AE0008C2F0E94EB03812FDF91CF911F910895EE
:100AF000089590E080E00895982F80914C05811131
:100B000004C0892F90934C05089580E0FBCF660FB9
:100B1000682B21F06F3F19F481E0089580E008957B
:100B20008F929F92AF92BF92DF92EF92FF920F93BC
:100B30001F93CF93DF9300D000D01F92CDB7DEB7C5
:100B40007C015B018A01D22EFC0186819A012D0D68
:100B5000311D8217130608F458C0CE0101964C01CE
:100B600085E0F40111928A95E9F78D2D8770806CEC
:100B70008983CE0102960E94F10CF1E0FD1568F028
:100B8000F7019485D11024C00230110508F18B8142
:100B90009923E1F090E8892B8B830F5FF701D580D3
:100BA00014816D2D812F0E94550474018E2D88199A
:100BB0008017B8F4F70141917F016D2D812F0E94BC
:100BC0009D046D2D812F0E946703F0CF90E0E3CF4D
:100BD0008A81992321F090E8892B8A83DECF90E0E7
:100BE000FBCF6D2D812F0F900F900F900F900F90D6
:100BF000DF91CF911F910F91FF90EF90DF90BF9009
:100C0000AF909F908F900C94EB03182F1D19412FDC
:100C100050E02D2DC7010E949005F7016285738574
:100C200090E080E00E94FB010D5F011B11E0F701E5
:100C30004681041790F050E0B501610F711D20E06E
:100C4000C7010E949005F7016285738590E080E0FE
:100C50000E94FB0101501F5FEACF0F900F900F9091
:100C60000F900F90DF91CF911F910F91FF90EF9018
:100C7000DF90BF90AF909F908F900895CF93DF93B8
:100C800000D000D0CDB7DEB719821A821B821C8239
:100C900020E044E050E0BE016F5F7F4F81E196E0CD
:100CA0000E94900510921A060F900F900F900F90CF
:100CB000DF91CF9108950F931F93CF93DF93CDB71B
:100CC000DEB7C058D1090FB6F894DEBF0FBECDBF56
:100CD000362F272F8A014138510510F000E810E027
:100CE000BE016F5F7F4FA32FB22F9B01A901461B4F
:100CF000570B4017510770F4ED9140E0E03234F0AB
:100D00000E2E000CFF0BE85BFF4F4491F90141935D
:100D10009F01ECCFFC012185A8010E949005C8012C
:100D2000C058DF4F0FB6F894DEBF0FBECDBFDF91C6
:100D3000CF911F910F910895EF92FF921F93CF9340
:100D4000DF93EC01162F89859E81F12CE12C89130C
:100D500026C0BE01635F7F4F262FFB019E2F921B93
:100D6000981718F491819193F9CF898590E0E0E08C
:100D700010323CF0E12F012E000CFF0BE85BFF4F1F
:100D8000E4918C0F9D1FDC011D96EC934E8150E089
:100D900020E0CE010E949005EE24E394F12C4985D9
:100DA0008E81481708F550E0E0E0103234F0E12F72
:100DB000110FFF0BE85BFF4FE491DE01A40FB51F9D
:100DC0001D96EC934F5F5F4F20E0BE01635F7F4F46
:100DD000CE010E94900589858F5F843008F083E002
:100DE0008987BFEFEB1AFB0AC701DF91CF911F91F3
:100DF000FF90EF9008951F920F920FB60F9211245B
:100E00002F933F938F939F93AF93BF9380916C05E4
:100E100090916D05A0916E05B0916F0530916B05B5
:100E200023E0230F2D3758F50196A11DB11D209306
:100E30006B0580936C0590936D05A0936E05B09340
:100E40006F058091700590917105A0917205B09128
:100E500073050196A11DB11D8093700590937105D6
:100E6000A0937205B0937305BF91AF919F918F913D
:100E70003F912F910F900FBE0F901F90189526E86D
:100E8000230F0296A11DB11DD2CF1F920F920FB654
:100E90000F9211242F933F934F935F936F937F9300
:100EA0008F939F93AF93BF93EF93FF9380915205DE
:100EB00090915305A0915405B0915505892B8A2B2B
:100EC0008B2BD1F190914D05E0914E05F0914F059E
:100ED0008081892780838091520590915305A0914C
:100EE0005405B0915505181619061A061B069CF4F0
:100EF0008091520590915305A0915405B0915505EC
:100F00000197A109B1098093520590935305A093CD
:100F10005405B0935505FF91EF91BF91AF919F910B
:100F20008F917F916F915F914F913F912F910F9092
:100F30000FBE0F901F901895809100010E942E0205
:100F4000EACF1F920F920FB60F9211242F933F9367
:100F50004F935F936F937F938F939F93AF93BF93C1
:100F6000EF93FF9384E795E00E94D802FF91EF9101
:100F7000BF91AF919F918F917F916F915F914F91B1
:100F80003F912F910F900FBE0F901F9018951F92B9
:100F90000F920FB60F9211242F938F939F93EF937D
:100FA000FF93E0918405F09185058081E0918A05A9
:100FB000F0918B0582FD1BC0908180918D058F5F24
:100FC0008F7320918E05821741F0E0918D05F0E03E
:100FD000EC58FA4F958F80938D05FF91EF919F917B
:100FE0008F912F910F900FBE0F901F9018958081B9
:100FF000F4CF109277051092760588EE93E0A0E08A
:10100000B0E08093780590937905A0937A05B0932A
:101010007B0587E295E0909375058093740585ECD8
:1010200090E0909381058093800584EC90E090930C
:1010300083058093820580EC90E0909385058093F2
:10104000840581EC90E0909387058093860582EC7F
:1010500090E0909389058093880586EC90E09093CA
:101060008B0580938A0510928D0510928E05109243
:101070008F0510929005109214061092130689E3C2
:1010800095E0909312068093110683E080931506F5
:1010900084E080931606539A549A5B9AEBE2F0E050
:1010A000808190E1892B808310921A068CE291E076
:1010B00090931C0680931B0610921D0684E6809375
:1010C00019064FE860911606809115060E945D058D
:1010D00040E460911606809115060C945D05CF934F
:1010E000DF9300D000D01F92CDB7DEB7789484B5DF
:1010F000826084BD84B5816084BD85B5826085BD14
:1011000085B5816085BD80916E00816080936E00A1
:101110001092810080918100826080938100809193
:101120008100816080938100809180008160809344
:1011300080008091B10084608093B1008091B00004
:1011400081608093B00080917A00846080937A00FF
:1011500080917A00826080937A0080917A00816029
:1011600080937A0080917A00806880937A00109250
:10117000C100E0918405F091850582E08083E091D3
:101180008005F09181051082E0918205F091830540
:101190008FEC808310928C05E0918805F091890591
:1011A00086E08083E0918605F091870580818061EB
:1011B0008083E0918605F091870580818860808337
:1011C000E0918605F0918705808180688083E091B9
:1011D0008605F091870580818F7D808360E082E0C5
:1011E0000E943D0160E085E00E943D0161E08BE0EE
:1011F0000E943D0161E08CE00E943D0161E08DE0D4
:101200000E943D0161E087E00E943D0161E088E0CD
:101210000E943D0161E089E00E943D0161E08AE0B9
:101220000E943D0161E083E00E943D0161E084E0B5
:101230000E943D0184E08093170681E080931806A8
:101240000E943E0684E6809319064FE860911606D8
:10125000809115060E945D0562E08EE00E943D01CE
:1012600062E08FE00E943D0162E080E10E943D016A
:1012700062E081E10E943D0162E082E10E943D0165
:10128000B5E02B2EB1E03B2E8091690590916A0567
:10129000009709F498C0029709F4ABC00091690562
:1012A00010916A050230110509F41BC38AE00E94FF
:1012B0002E020130110509F014C361E08BE00E9499
:1012C0000F0160E08CE00E940F0168EC70E08DE09F
:1012D0000E94790161E087E00E940F0160E088E0F0
:1012E0000E940F0168EC70E089E00E9479018EE0B5
:1012F0000E94E60021E0892B09F420E060E0822FC3
:101300000E9487050E947C05F82E809361058FE07E
:101310000E94E60021E0892B09F420E060E0822FA2
:101320000E9487050E947C05082F8093600580E15C
:101330000E94E60021E0892B09F420E060E0822F82
:101340000E9487050E947C05182F80935F0581E12C
:101350000E94E60021E0892B09F420E060E0822F62
:101360000E9487050E947C05898380935E0582E147
:101370000E94E60021E0892B09F420E060E0822F42
:101380000E9487050E947C05F110C6C20111C7C2E8
:101390001111C8C209810111C8C2882309F4C8C249
:1013A00085E090E0909368058093670580E090E089
:1013B000892B09F469CF0E94C402882309F460CF05
:1013C0000E9400005DCF0E943E0644E050E061E4D0
:1013D00075E081E196E00E945B068091670590913F
:1013E0006805009709F45ACF90936A0580936905C0
:1013F00055CF0E943E0644E050E066E475E081E18E
:1014000096E00E945B06E0916605F0E0EE0FFF1F9C
:10141000E55CFE4F808191812FB7F89440906C0578
:1014200050906D0560906E0570906F052FBF8130F4
:10143000910571F4409262055092630560926405D3
:1014400070926505809166058F5F8093660505C083
:101450008230910581F41092660580916705909124
:101460006805009709F0C0CF22E030E030936A05AC
:101470002093690513CF40916205509163056091F7
:1014800064057091650593018201041B150B260B01
:10149000370BB901A801443F514061057105E8F2DD
:1014A00003978D31910508F018C2880F991FFC0130
:1014B000EF5FFE4F008111810F3F100709F40DC24D
:1014C000809100018A3009F0C1C0E8ECF0E0F491AD
:1014D000FD83F7FDAFCF61E08AE00E943D012D81E1
:1014E000222321F03D81323009F0A1C14801B12C05
:1014F000A12C60E072E18AE790E0A50198010E94CA
:101500009B0C29833A834B835C8369017A0181E0D8
:10151000C81AD108E108F1089FEFC916D104E10407
:10152000F10409F00CF454C160E472E48FE090E03F
:10153000A50198010E949B0C69017A01E1E0CE1A95
:10154000D108E108F108FD81F23009F0F5C082E030
:101550002FEFC216D104E104F10409F00CF46FC0BE
:1015600060E970ED83E090E0A50198010E949B0C7A
:1015700069017A0181E0C81AD108E108F10883E025
:101580009FEFC916D104E104F10409F00CF457C02F
:1015900068E478EE81E090E0A50198010E949B0C40
:1015A00069017A0181E0C81AD108E108F10884E0F4
:1015B0009FEFC916D104E104F10409F00CF43FC017
:1015C00064E274EF80E090E0A50194010E949B0C1E
:1015D00069017A0181E0C81AD108E108F10885E0C3
:1015E0003FEFC316D104E104F10449F140F162E197
:1015F0007AE780E090E0A50194010E949B0C6901CC
:101600007A01F1E0CF1AD108E108F10886E02FEF66
:10161000C216D104E104F10491F088F0C980DA80A7
:10162000EB80FC808AE0F594E794D794C7948A9580
:10163000D1F731E0C31AD108E108F10887E09091B1
:10164000B100987F892B8093B100CAC08F3F09F009
:10165000F1CE8AE080930001E8ECF0E084918D8384
:101660008F3F09F4E7CE813021F150F0823009F448
:1016700040C087FDDFCE61E08AE00E943D0132CFAD
:1016800014BC15BC84B5826084BD85B5816085BD00
:10169000E1EFF0E08491E82FF0E0EE0FFF1FED5254
:1016A000FF4F85919491F1018491809351051D82A2
:1016B00012CF10928000109281008091810088608A
:1016C0008093810080918100816080938100E1EFAF
:1016D000F0E08491E82FF0E0EE0FFF1FED52FF4F96
:1016E00085919491F101849180935005F1E0FD83FF
:1016F000F2CE1092B0001092B1008091B0008260E2
:101700008093B0008091B10081608093B100E1EFDF
:10171000F0E08491E82FF0E0EE0FFF1FED52FF4F55
:101720008591949190934F0580934E05F10184919A
:1017300080934D05F2E0DBCFEFEFCE16D104E1044C
:10174000F10409F00CF471C068E478EE81E090E0F7
:10175000A50198010E949B0C69017A01F1E0CF1A62
:10176000D108E108F1082D8184E0211139CF83E00F
:10177000EFEFCE16D104E104F10471F16CF162E1F6
:101780007AE780E090E0A50194010E949B0C69013A
:101790007A0191E0C91AD108E108F10884E0EFEF7D
:1017A000CE16D104E104F104B9F0B0F0C980DA80BA
:1017B000EB80FC809AE0F594E794D794C7949A95CF
:1017C000D1F721E0C21AD108E108F10885E004C090
:1017D00081E0FD81F11133CF95B5987F892B85BDCF
:1017E0009801220F331FA4EFB1E00E94DC0C28EE19
:1017F00033E040E050E00E94BA0C0D81013009F462
:101800004AC0023009F459C0011114CEC7BC20935C
:101810005A0530935B0540935C0550935D058091BC
:101820006E00826080936E0005CE82E0D2CFB12C34
:10183000A12C60E072E18AE790E0A50198010E9486
:101840009B0C69017A0181E0C81AD108E108F1080E
:10185000C114D10491E0E906F10464F491E0FD8142
:10186000F13009F0BDCF80918100887F892B809372
:101870008100B6CF68E478EE81E090E0A5019801A0
:101880000E949B0C69017A01E1E0CE1AD108E108BF
:10189000F10893E0E4CFD0928900C09288002093B1
:1018A000560530935705409358055093590580913C
:1018B0006F00826080936F00BDCDC092B300209313
:1018C000520530935305409354055093550580912C
:1018D0007000826080937000ADCD8AE00E942E027D
:1018E000A9CD70E060E08DE00E94790160E08BE0BE
:1018F0000E940F0160E08CE00E940F0170E060E048
:1019000089E00E94790160E087E00E940F0160E0B9
:1019100088E00E940F01EBCC82E090E043CD83E0B1
:1019200090E040CD84E090E03DCD81E090E03ACD84
:1019300090E080E037CD052E97FB1EF400940E94C6
:10194000B20C57FD07D00E94BA0C07FC03D04EF42E
:101950000C94B20C50954095309521953F4F4F4FC8
:101960005F4F089590958095709561957F4F8F4F4B
:101970009F4F0895A1E21A2EAA1BBB1BFD010DC0AB
:10198000AA1FBB1FEE1FFF1FA217B307E407F5072F
:1019900020F0A21BB30BE40BF50B661F771F881F0B
:1019A000991F1A9469F760957095809590959B01A1
:1019B000AC01BD01CF010895A29FB001B39FC0014A
:1019C000A39F700D811D1124911DB29F700D811D6B
:1019D0001124911D0895EE0FFF1F0590F491E02D45
:1019E0000994FB01DC0102C001900D92415050406E
:0819F000D8F70895F894FFCF29
:1019F800FF6E0074007B0082008A0092009B00A4A6
:101A080000AE00B900C400CF00DC00E900F6000514
:101A18000115012501370149015D01720188019F06
:101A280001B801D201ED010B022A020000000000FA
:101A3800000000000000000000000000000000009E
:101A4800000000000000000000000000000000008E
:101A5800000000000000000000000000000000007E
:101A6800000000000000000000000000000000006E
:101E180000000000000000FA025A0287024703B8D7
:101E2800029602AA02000000009C065B067905786B
:0C1E38000549444C4500504C4159000045
:00000001FF
