:020000040000FA
:100000000C9462000C948A000C948A000C948A0070
:100010000C948A000C948A000C948A000C948A0038
:100020000C948A000C948A000C948A000C948A0028
:100030000C948A000C948A000C948A000C948A0018
:100040000C947D020C948A000C94ED020C94C7026F
:100050000C948A000C948A000C948A000C948A00F8
:100060000C948A000C948A000000000023002600F3
:10007000290000000008000201000003040700003E
:1000800000000000000000000000250028002B00F8
:1000900000000000240027002A00040404040404D3
:1000A0000404020202020202030303030303010227
:1000B00004081020408001020408102001020408F6
:1000C0001020940411241FBECFEFD8E0DEBFCDBFB7
:1000D00011E0A0E0B1E0E6EDF9E002C005900D927C
:1000E000A83AB107D9F722E0A8EAB1E001C01D9211
:1000F000AD37B207E1F710E0C2E6D0E004C02197C7
:10010000FE010E94E304C136D107C9F70E941F0314
:100110000C94E9040C940000CF93DF9390E0FC0171
:10012000E255FF4F249186569F4FFC01849188230E
:10013000C1F090E0880F991FFC01E057FF4FC59177
:10014000D491FC01EA57FF4FA591B4919FB7F89461
:100150008881E22FE0958E2388838C91E823EC93AD
:100160009FBFDF91CF91089590E0FC01EE58FF4FC3
:100170002491FC01E255FF4F3491FC01E656FF4FFC
:10018000E491EE23C1F1222339F02330E9F090F419
:10019000213001F1223011F1F0E0EE0FFF1FE8599C
:1001A000FF4FA591B491EC91E32381E090E029F514
:1001B00080E008952730A9F02830C9F0243061F795
:1001C000809180008F7D03C0809180008F77809325
:1001D0008000E2CF84B58F7784BDDECF84B58F7D7C
:1001E000FBCF8091B0008F778093B000D5CF809106
:1001F000B0008F7DF9CF80E090E00895AF92BF927C
:10020000CF92DF92EF92FF920F931F93CF93DF93E2
:100210006C017B018B01040F151FEB015E01AE1811
:10022000BF08C017D10759F06991D601ED91FC9133
:100230000190F081E02DC6010995892B79F7C50160
:10024000DF91CF911F910F91FF90EF90DF90CF90B2
:10025000BF90AF900895FC01538D448D252F30E061
:10026000842F90E0821B930B541710F0CF960895C3
:1002700001970895FC01918D828D981761F0A28DF0
:10028000AE0FBF2FB11D5D968C91928D9F5F9F73B6
:10029000928F90E008958FEF9FEF0895FC01918D6C
:1002A000828D981731F0828DE80FF11D858D90E0D9
:1002B00008958FEF9FEF0895FC01918D228D892F76
:1002C00090E0805C9F4F821B91098F73992708955E
:1002D00080EE91E00E945C0121E0892B09F420E08E
:1002E000822F089580E090E0892B29F00E94680118
:1002F00081110C9400000895FC01A48DA80FB92F62
:10030000B11DA35ABF4F2C91848D90E001968F733D
:100310009927848FA689B7892C93A089B1898C915C
:10032000837080648C93938D848D981306C00288AB
:10033000F389E02D80818F7D80830895EF92FF9275
:100340000F931F93CF93DF93EC0181E0888F9B8DF8
:100350008C8D98131AC0E889F989808185FF15C0B2
:100360009FB7F894EE89FF896083E889F9898081D5
:100370008370806480839FBF81E090E0DF91CF91A4
:100380001F910F91FF90EF900895F62E0B8D10E0C6
:100390000F5F1F4F0F731127E02E8C8D8E110CC035
:1003A0000FB607FCFACFE889F989808185FFF5CF80
:1003B000CE010E947C01F1CFEB8DEC0FFD2FF11DE2
:1003C000E35AFF4FF0829FB7F8940B8FEA89FB89BD
:1003D00080818062CFCFCF93DF93EC01888D88231B
:1003E000B9F0AA89BB89E889F9898C9185FD03C098
:1003F000808186FD0DC00FB607FCF7CF8C9185FF7D
:10040000F2CF808185FFEDCFCE010E947C01E9CF44
:10041000DF91CF910895FC0101900020E9F7319719
:10042000AF01481B590BBC0180EE91E00C94FE001B
:100430008F929F92AF92BF920F931F93CF93DF93B0
:10044000CDB7DEB7A1970FB6F894DEBF0FBECDBF14
:1004500019A2423008F44AE08E010F5D1F4F842E2E
:10046000912CB12CA12CA50194010E94C104E62F6E
:10047000B901CA01EA30F4F4E05DD801EE938D01D0
:10048000232B242B252B79F790E080E0109719F08F
:10049000CD010E940B02A1960FB6F894DEBF0FBEED
:1004A000CDBFDF91CF911F910F91BF90AF909F90E3
:1004B0008F900895E95CE1CFCF92DF92EF92FF92A7
:1004C000CF93DF936B017C016DE280EE91E00E949F
:1004D0009E01EC0166277727CB016C197D098E09F7
:1004E0009F094AE00E9418028C0F9D1FDF91CF9157
:1004F000FF90EF90DF90CF9008951F920F920FB66C
:100500000F9211242F933F938F939F93AF93BF9399
:100510008091DC019091DD01A091DE01B091DF01BD
:100520003091DB0123E0230F2D3758F50196A11DF3
:10053000B11D2093DB018093DC019093DD01A0933A
:10054000DE01B093DF018091D7019091D801A09195
:10055000D901B091DA010196A11DB11D8093D70197
:100560009093D801A093D901B093DA01BF91AF91D4
:100570009F918F913F912F910F900FBE0F901F90E1
:10058000189526E8230F0296A11DB11DD2CF1F9208
:100590000F920FB60F9211242F933F934F935F93B7
:1005A0006F937F938F939F93AF93BF93EF93FF933B
:1005B00080EE91E00E947C01FF91EF91BF91AF919D
:1005C0009F918F917F916F915F914F913F912F916B
:1005D0000F900FBE0F901F9018951F920F920FB69D
:1005E0000F9211242F938F939F93EF93FF93E0919A
:1005F000F001F091F1018081E091F601F091F701B5
:1006000082FD1BC090818091F9018F5F8F732091D3
:10061000FA01821741F0E091F901F0E0E052FE4F5B
:10062000958F8093F901FF91EF919F918F912F9179
:100630000F900FBE0F901F9018958081F4CF789483
:1006400084B5826084BD84B5816084BD85B58260D7
:1006500085BD85B5816085BD80916E008160809388
:100660006E001092810080918100826080938100F1
:100670008091810081608093810080918000816001
:10068000809380008091B10084608093B10080915C
:10069000B00081608093B00080917A008460809384
:1006A0007A0080917A00826080937A0080917A004B
:1006B000816080937A0080917A00806880937A00CC
:1006C0001092C100E091F001F091F10182E080838D
:1006D000E091EC01F091ED011082E091EE01F091DA
:1006E000EF018FEC80831092F801E091F401F0911A
:1006F000F50186E08083E091F201F091F3018081C1
:1007000080618083E091F201F091F3018081886043
:100710008083E091F201F091F30180818068808311
:10072000E091F201F091F30180818F7D808382E07E
:100730000E948C0084E00E948C00C0E0D0E0FF2486
:10074000F39401E010E08091CF01811109C082E0B3
:100750000E94B4009093CE018093CD01F092CF011E
:100760008091C501811109C084E00E94B40090937A
:10077000C4018093C301F092C5018091BB01811136
:1007800010C08091CD019091CE01882319F08F3F48
:1007900011F481E090E08093B9019093BA01F09256
:1007A000BB018091B101811110C08091C301909172
:1007B000C401882319F08F3F11F481E090E0809309
:1007C000AF019093B001F092B1018091B901909185
:1007D000BA012091A8013091A9019093A9018093B9
:1007E000A80121153105D9F50197C9F56091AE0130
:1007F000660FE090AF016E296F73E62E6093AE0135
:100800008091AC019091AD0101968630910594F5EF
:100810009093AD018093AC0170E060E08E2D90E08C
:10082000AC01022E02C0559547950A94E2F741703B
:100830005527FB01E427F5272F5F3F4F283031056F
:10084000F1F46417750759F021E0E2121AC0109311
:10085000AB010093AA011092AD011092AC01209758
:1008600009F471CF0E946801882309F46CCF0E94BB
:10087000000069CF1092AD011092AC01CDCFBF0145
:10088000CFCF2091AA013091AB0142E0E4120FC01A
:10089000232B09F38CE491E00E940B0287E691E0A0
:1008A0000E940B021092AB011092AA01D4CF232B0D
:1008B000B1F22091AC013091AD012530310579F6CE
:1008C00003978D31910558F5880F991FFC01EE5E55
:1008D000FE4FC080D1808FEFC816D80601F18AE69E
:1008E00091E00E940B026E2D70E090E080E04AE003
:1008F0000E9418028AE791E00E940B02B601DD0C0B
:10090000880B990B97FF07C00E945C0287E691E075
:100910000E940B02A4CF4AE00E941802F7CF8CE895
:1009200091E00E940B02F2CFE0EEF1E0138212821E
:1009300088EE93E0A0E0B0E084839583A683B7833C
:1009400084E091E09183808385EC90E095878487B3
:1009500084EC90E09787868780EC90E0918B808B89
:1009600081EC90E0938B828B82EC90E0958B848B72
:1009700086EC90E0978B868B118E128E138E148EE0
:100980000895A1E21A2EAA1BBB1BFD010DC0AA1FD0
:10099000BB1FEE1FFF1FA217B307E407F50720F0E8
:1009A000A21BB30BE40BF50B661F771F881F991F63
:1009B0001A9469F760957095809590959B01AC01AC
:1009C000BD01CF010895EE0FFF1F0590F491E02DBA
:1009D0000994F894FFCF000000009E01FE002B0157
:1009E000EB015C013A014E016E0074007B00820055
:1009F0008A0092009B00A400AE00B900C400CF00A2
:100A0000DC00E900F6000501150125013701490167
:100A10005D01720188019F01B801D201ED010B0255
:100A20002A02456E64206F66206E6F746520636FC6
:100A300064652072656365697665642E000D0A0041
:100A40005265636569766564206E6F74653A20004F
:100A50002077697468206672657175656E63793A8E
:100A60002000526563656976656420696E76616C05
:0E0A70006964206E6F746520636F64652E00EC
:107E0000112484B714BE81FFF0D085E080938100F7
:107E100082E08093C00088E18093C10086E0809377
:107E2000C20080E18093C4008EE0C9D0259A86E02C
:107E300020E33CEF91E0309385002093840096BBD3
:107E4000B09BFECF1D9AA8958150A9F7CC24DD24C4
:107E500088248394B5E0AB2EA1E19A2EF3E0BF2EE7
:107E6000A2D0813461F49FD0082FAFD0023811F036
:107E7000013811F484E001C083E08DD089C08234E0
:107E800011F484E103C0853419F485E0A6D080C0E4
:107E9000853579F488D0E82EFF2485D0082F10E0AE
:107EA000102F00270E291F29000F111F8ED06801E7
:107EB0006FC0863521F484E090D080E0DECF843638
:107EC00009F040C070D06FD0082F6DD080E0C81688
:107ED00080E7D80618F4F601B7BEE895C0E0D1E017
:107EE00062D089930C17E1F7F0E0CF16F0E7DF06D8
:107EF00018F0F601B7BEE89568D007B600FCFDCFD4
:107F0000A601A0E0B1E02C9130E011968C91119780
:107F100090E0982F8827822B932B1296FA010C0160
:107F200087BEE89511244E5F5F4FF1E0A038BF0790
:107F300051F7F601A7BEE89507B600FCFDCF97BE46
:107F4000E89526C08437B1F42ED02DD0F82E2BD052
:107F50003CD0F601EF2C8F010F5F1F4F84911BD097
:107F6000EA94F801C1F70894C11CD11CFA94CF0C13
:107F7000D11C0EC0853739F428D08EE10CD085E9AC
:107F80000AD08FE07ACF813511F488E018D01DD067
:107F900080E101D065CF982F8091C00085FFFCCF94
:107FA0009093C60008958091C00087FFFCCF809118
:107FB000C00084FD01C0A8958091C6000895E0E648
:107FC000F0E098E1908380830895EDDF803219F02E
:107FD00088E0F5DFFFCF84E1DECF1F93182FE3DFCA
:107FE0001150E9F7F2DF1F91089580E0E8DFEE27F6
:047FF000FF270994CA
:027FFE00040479
:00000001FF
