:100000000C9493000C94BB000C94BB000C94BB00AC
:100010000C94BB000C94BB000C94BB000C94140813
:100020000C94BB000C94BB000C94BB000C94BB0064
:100030000C94BB000C94BB000C94BB000C94BB0054
:100040000C94CA070C94BB000C9496080C9470088E
:100050000C94BB000C94BB000C94BB000C94BB0034
:100060000C94BB000C94BB00000622766D247F200C
:10007000390F5C50104008063F065B4F666D7D07E8
:100080007F6F303058484C535F777F395E79713DD0
:1000900076060E753815373F7367336D783E1C2A28
:1000A000766E5B39300F1308105F7C585E7B716F82
:1000B00074040C753015545C7367506D781C1C2AE1
:1000C00076665B79064F400002000000002400279E
:1000D000002A0000000000250028002B000000007E
:1000E000002300260029000404040404040404027C
:1000F00002020202020303030303030102040810C5
:100100002040800102040810200102040810200091
:1001100000000800020100000304070000000000C6
:1001200000000000C80811241FBECFEFD8E0DEBFDA
:10013000CDBF13E0A0E0B1E0EAEEF4E202C005902A
:100140000D92AC32B107D9F724E0ACE2B3E001C0C4
:100150001D92A931B207E1F710E0C3E9D0E004C075
:100160002197FE010E947B10C239D107C9F70E9476
:100170003E090C9473120C940000833081F028F433
:10018000813099F08230A9F008958730A9F0883045
:10019000C9F08430B1F4809180008F7D03C08091DC
:1001A00080008F7780938000089584B58F7784BD19
:1001B000089584B58F7DFBCF8091B0008F778093B9
:1001C000B00008958091B0008F7DF9CFCF93DF9379
:1001D000282F30E0F901E15FFE4F8491F901E550ED
:1001E000FF4FD491F901E951FF4FC491CC23A1F005
:1001F00081110E94BD00EC2FF0E0EE0FFF1FE352D3
:10020000FF4FA591B491EC91ED2381E090E009F4CA
:1002100080E0DF91CF91089580E090E0FACF1F93C6
:10022000CF93DF93282F30E0F901E15FFE4F8491F7
:10023000F901E550FF4FD491F901E951FF4FC49105
:10024000CC23A9F0162F81110E94BD00EC2FF0E005
:10025000EE0FFF1FED52FF4FA591B4918FB7F894A9
:10026000EC91111108C0D095DE23DC938FBFDF9194
:10027000CF911F910895DE2BF8CFCF93DF9390E0BD
:10028000FC01E550FF4F249189519F4FFC0184915F
:100290008823C9F090E0880F991FFC01E753FF4FB6
:1002A000A591B491FC01ED52FF4FC591D49161111C
:1002B0000DC09FB7F8948C91209582238C938881F0
:1002C000282328839FBFDF91CF910895623051F496
:1002D0009FB7F8943C91822F809583238C93E8817B
:1002E0002E2BEFCF8FB7F894EC912E2B2C938FBF42
:1002F000EACF1F93CF93DF93182FEB0161E00E94A9
:100300003D01209739F460E0812FDF91CF911F915B
:100310000C940F01CF3FD10511F461E0F5CFE12F2F
:10032000F0E0E15FFE4FE491E33031F140F4E13081
:10033000B1F0E230E1F0C038D1057CF7E4CFE7302E
:1003400029F1E83059F1E430B1F780918000806202
:1003500080938000D0938B00C0938A0004C084B542
:10036000806884BDC7BDDF91CF911F91089584B58A
:10037000806284BDC8BDF7CF809180008068809383
:100380008000D0938900C0938800EDCF8091B000A9
:1003900080688093B000C093B300E5CF8091B00037
:1003A00080628093B000C093B400DDCF3FB7F89473
:1003B0008091630390916403A0916503B0916603FB
:1003C00026B5A89B05C02F3F19F00196A11DB11DB0
:1003D0003FBFBA2FA92F982F8827BC01CD01620FEC
:1003E000711D811D911D42E0660F771F881F991FA7
:1003F0004A95D1F708958F929F92AF92BF92CF9274
:10040000DF92EF92FF926B017C010E94D6014B01BB
:100410005C01C114D104E104F104B9F00E94D601D9
:10042000681979098A099B09683E7340810591051D
:1004300080F321E0C21AD108E108F10888EE880EA5
:1004400083E0981EA11CB11CE4CFFF90EF90DF90D9
:10045000CF90BF90AF909F908F90089590910001A2
:1004600089130BC0E8ECF0E0E4919FEF909300015A
:10047000E13049F028F0E23061F060E00C940F01C7
:1004800010926E00FACF90916F009D7F90936F0055
:10049000F4CF909170009D7F9093700091E09093C5
:1004A000B0009091B100987F94609093B100109249
:1004B000B300E3CFAF92BF92CF92DF92EF92FF9261
:1004C0000F931F93CF93DF936C017B018B01040F7C
:1004D000151FEB015E01AE18BF08C017D10759F018
:1004E0006991D601ED91FC910190F081E02DC6015A
:1004F0000995892B79F7C501DF91CF911F910F9154
:10050000FF90EF90DF90CF90BF90AF900895FC01E7
:10051000538D448D252F30E0842F90E0821B930B68
:10052000541710F0CF96089501970895FC01918D0E
:10053000828D981761F0A28DAE0FBF2FB11D5D9611
:100540008C91928D9F5F9F73928F90E008958FEFB3
:100550009FEF0895FC01918D828D981731F0828D67
:10056000E80FF11D858D90E008958FEF9FEF0895BE
:10057000FC01918D228D892F90E0805C9F4F821B22
:1005800091098F739927089587E693E00E94B80236
:1005900021E0892B09F420E0822F089580E090E08B
:1005A000892B29F00E94C40281110C940000089547
:1005B000FC01A48DA80FB92FB11DA35ABF4F2C91D8
:1005C000848D90E001968F739927848FA689B789CF
:1005D0002C93A089B1898C91837080648C93938DC6
:1005E000848D981306C00288F389E02D80818F7D69
:1005F00080830895EF92FF920F931F93CF93DF9321
:10060000EC0181E0888F9B8D8C8D98131AC0E8894E
:10061000F989808185FF15C09FB7F894EE89FF891D
:100620006083E889F98980818370806480839FBFBB
:1006300081E090E0DF91CF911F910F91FF90EF90BB
:100640000895F62E0B8D10E00F5F1F4F0F731127CB
:10065000E02E8C8D8E110CC00FB607FCFACFE88906
:10066000F989808185FFF5CFCE010E94D802F1CFB4
:10067000EB8DEC0FFD2FF11DE35AFF4FF0829FB77A
:10068000F8940B8FEA89FB8980818062CFCFCF936A
:10069000DF93EC01888D8823B9F0AA89BB89E889AA
:1006A000F9898C9185FD03C0808186FD0DC00FB650
:1006B00007FCF7CF8C9185FFF2CF808185FFEDCFCE
:1006C000CE010E94D802E9CFDF91CF910895CF9358
:1006D000DF93EBE2F0E0883040F098EF980FE8E22B
:1006E000F0E0963010F4E5E2F0E0908142EF480F40
:1006F0008E3010F4482F477021E030E001C0220F07
:100700004A95EAF7322F309593239083AAE2B0E01E
:10071000683040F098EF960FA7E2B0E0963010F402
:10072000A4E2B0E09C9122EF260F6E3010F4262F49
:10073000277041E050E001C0440F2A95EAF7409548
:1007400049234C93CBE2D0E0683040F098EF960F0D
:10075000C8E2D0E0963010F4C5E2D0E0288191E004
:1007600042EF460F6E3010F4462F477001C0990FCC
:100770004A95EAF7292B2883CFE0D0E02197F1F7BB
:10078000C9E2D0E0683038F06850C6E2D0E06630A8
:1007900010F4C3E2D0E02881292361E009F060E091
:1007A00050818E30B0F08E5021E001C0220F8A952A
:1007B000EAF7252B2083CFE0D0E02197F1F72081C5
:1007C000322330832C91922B9C93862FDF91CF91F3
:1007D00008958770E9CFCF93DF93EBE2F0E08830A4
:1007E00040F098EF980FE8E2F0E0963010F4E5E280
:1007F000F0E0908142EF480F8E3010F4482F4770A0
:1008000021E030E001C0220F4A95EAF72095292324
:100810002083AFE0B0E01197F1F7ABE2B0E06830D1
:1008200040F098EF960FA8E2B0E0963010F4A5E201
:10083000B0E09C9142EF460F6E3010F4462F4770A7
:1008400021E030E001C0220F4A95EAF720952923E4
:100850002C93CFE0D0E02197F1F720818E30D8F0B3
:1008600092EF980F81E001C0880F9A95EAF7822BEA
:1008700080838FE090E00197F1F79C916E3098F0C3
:100880006E5081E001C0880F6A95EAF7892B8C933E
:10089000DF91CF910895877091E001C0990F8A95FB
:1008A000EAF7892FE4CF6770ECCFEBE2F0E0683035
:1008B00040F098EF960FE8E2F0E0963010F4E5E2B1
:1008C000F0E0208191E032EF360F6E3010F4362FD9
:1008D000377001C0990F3A95EAF7922B9083ABE2FB
:1008E000B0E0883040F098EF980FA8E2B0E0963082
:1008F00010F4A5E2B0E02C918E30D8F08E5091E04B
:1009000001C0990F8A95EAF7892F822B8C938FE08B
:1009100090E00197F1F720816E3068F06E5081E031
:1009200090E001C0880F6A95EAF780958223808362
:1009300008958770E4CF6770F2CFBF92CF92DF92B5
:10094000EF92FF920F931F93CF93DF93982F97709F
:1009500021E030E0D90101C0AA0F9A95EAF792EFA1
:10096000980F01C0220F9A95EAF7FA2E8E3008F000
:10097000F22EF094962F9770E1E0F0E0EF0101C0C5
:10098000CC0F9A95EAF792EF960F01C0EE0F9A9569
:10099000EAF7EC2E6E3008F0EE2EE094DC2EBC2E42
:1009A0006E3008F0BE2ECA2E8E3008F42A2F58E082
:1009B00098EF980F38EF360FCFE0D0E0ABE2B0E021
:1009C000883030F0A5E2B0E0963010F0A8E2B0E058
:1009D0007C917F21ABE2B0E0883030F0A5E2B0E05E
:1009E000963010F0A8E2B0E07C93A42FB0E040FF76
:1009F0004AC00BE210E0683030F005E210E036301B
:100A000010F008E210E0F80140817D2D0BE210E0CB
:100A1000683038F07B2D05E210E0363010F008E247
:100A200010E0472BF8014083FE013197F1F7B595AF
:100A3000A7954A2FABE2B0E0883030F0A5E2B0E0F5
:100A4000963010F0A8E2B0E07C91FC2DABE2B0E073
:100A5000883038F0F22FA5E2B0E0963010F0A8E22E
:100A6000B0E07F2B7C93DE011197F1F7515009F034
:100A7000A5CFDF91CF911F910F91FF90EF90DF9065
:100A8000CF90BF9008950BE210E0683030F005E29F
:100A900010E0363010F008E210E0F80140814E21FD
:100AA0000BE210E0683008F4BDCF05E210E036300C
:100AB00008F4B8CF08E210E0B5CF1F93CF93DF93CF
:100AC000C82FD62F142F0E945504412F6D2F8C2F25
:100AD0000E949D046D2F8C2F0E946703182F6D2F8D
:100AE0008C2F0E94EB03812FDF91CF911F910895EE
:100AF000089590E080E00895FA01DB012C9130E048
:100B0000220F331F91E0811101C090E0892F822BC9
:100B10008F73DB018C93811103C010828081089553
:100B20008F33E1F781E08083F9CFFC0180819181EF
:100B3000009711F00C941D110895FB010190002005
:100B4000E9F73197AF01461B570BDC01ED91FC91A2
:100B50000280F381E02D0994CF92DF92EF92FF9211
:100B60000F931F93CF93DF93CDB7DEB7A1970FB647
:100B7000F894DEBF0FBECDBF282F30E050E040E03C
:100B800019A28E010F5D1F4F6B01770FEE08FF0852
:100B9000CA01B901A70196010E942210605DF80107
:100BA00062938F01211531054105510589F7309771
:100BB000E9F0BF0187E693E00E949D058C016BE898
:100BC00072E087E693E00E949D05800F911FA19639
:100BD0000FB6F894DEBF0FBECDBFDF91CF911F914E
:100BE0000F91FF90EF90DF90CF90089510E000E01C
:100BF000E6CFCF93DF93BC0187E693E00E949D058B
:100C0000EC016BE872E087E693E00E949D058C0F93
:100C10009D1FDF91CF9108950F931F93CF93DF9383
:100C2000EC0188819981009759F02A813B81261730
:100C3000370730F081E0DF91CF911F910F91089538
:100C40008B016F5F7F4F0E94A611009759F0998327
:100C500088831B830A832C813D81232B59F7FC0158
:100C60001082E8CF80E0E7CFEF92FF920F931F93BF
:100C7000CF93DF93EC017B018A01BA010E940C063D
:100C800028813981811114C02115310519F0C9015C
:100C90000E941D11198218821D821C821B821A82D9
:100CA000CE01DF91CF911F910F91FF90EF900895AA
:100CB0001D830C83B701C9010E946C12F1CF8F9282
:100CC0009F92AF92BF92DF92EF92FF920F931F938A
:100CD000CF93DF9300D000D01F92CDB7DEB77C0159
:100CE0005B018A01D22EFC0186819A012D0D311DF6
:100CF0008217130608F458C0CE0101964C0185E016
:100D0000F40111928A95E9F78D2D8770806C8983A3
:100D1000CE0102960E946312F1E0FD1568F0F70122
:100D20009485D11024C00230110508F18B819923DC
:100D3000E1F090E8892B8B830F5FF701D580148158
:100D40006D2D812F0E94550474018E2D88198017F6
:100D5000B8F4F70141917F016D2D812F0E949D0410
:100D60006D2D812F0E946703F0CF90E0E3CF8A8141
:100D7000992321F090E8892B8A83DECF90E0FBCF86
:100D80006D2D812F0F900F900F900F900F90DF918E
:100D9000CF911F910F91FF90EF90DF90BF90AF9098
:100DA0009F908F900C94EB03182F1D19412F50E04A
:100DB0002D2DC7010E945F06F7016285738590E0C3
:100DC00080E00E94FB010D5F011B11E0F7014681ED
:100DD000041790F050E0B501610F711D20E0C701CC
:100DE0000E945F06F7016285738590E080E00E94B3
:100DF000FB0101501F5FEACF0F900F900F900F90F3
:100E00000F90DF91CF911F910F91FF90EF90DF90A6
:100E1000BF90AF909F908F900895CF93DF9300D0B5
:100E200000D0CDB7DEB719821A821B821C8220E067
:100E300044E050E0BE016F5F7F4F84E094E00E9489
:100E40005F0610920D040F900F900F900F90DF919E
:100E5000CF9108950F931F93CF93DF93CDB7DEB754
:100E6000C058D1090FB6F894DEBF0FBECDBF362FE4
:100E7000272F8A014138510510F000E810E0BE012B
:100E80006F5F7F4FA32FB22F9B01A901461B570B0A
:100E90004017510770F4ED9140E0E03234F00E2E2F
:100EA000000CFF0BE85BFF4F4491F90141939F0158
:100EB000ECCFFC012185A8010E945F06C801C05843
:100EC000DF4F0FB6F894DEBF0FBECDBFDF91CF91DD
:100ED0001F910F910895EF92FF921F93CF93DF938D
:100EE000EC01162F89859E81F12CE12C891326C0F7
:100EF000BE01635F7F4F262FFB019E2F921B981729
:100F000018F491819193F9CF898590E0E0E0103257
:100F10003CF0E12F012E000CFF0BE85BFF4FE4914A
:100F20008C0F9D1FDC011D96EC934E8150E020E05C
:100F3000CE010E945F06EE24E394F12C49858E8158
:100F4000481708F550E0E0E0103234F0E12F110FBF
:100F5000FF0BE85BFF4FE491DE01A40FB51F1D9668
:100F6000EC934F5F5F4F20E0BE01635F7F4FCE0188
:100F70000E945F0689858F5F843008F083E089874F
:100F8000BFEFEB1AFB0AC701DF91CF911F91FF90D2
:100F9000EF9008951F920F920FB60F9211242F9386
:100FA0003F938F939F93AF93BF9380915F039091F3
:100FB0006003A0916103B091620330915E0323E06E
:100FC000230F2D3758F50196A11DB11D20935E0307
:100FD00080935F0390936003A0936103B0936203D7
:100FE0008091630390916403A0916503B0916603BF
:100FF0000196A11DB11D8093630390936403A09398
:101000006503B0936603BF91AF919F918F913F911C
:101010002F910F900FBE0F901F90189526E8230F69
:101020000296A11DB11DD2CF1F920F920FB60F9243
:1010300011242F933F934F935F936F937F938F93DD
:101040009F93AF93BF93EF93FF9380914003909151
:101050004103A0914203B0914303892B8A2B8B2B30
:10106000D1F190913B03E0913C03F0913D038081ED
:10107000892780838091400390914103A09142038E
:10108000B0914303181619061A061B069CF48091AA
:10109000400390914103A0914203B0914303019713
:1010A000A109B1098093400390934103A0934203A7
:1010B000B0934303FF91EF91BF91AF919F918F91B7
:1010C0007F916F915F914F913F912F910F900FBE44
:1010D0000F901F901895809100010E942E02EACF78
:1010E0001F920F920FB60F9211242F933F934F939D
:1010F0005F936F937F938F939F93AF93BF93EF9380
:10110000FF9387E693E00E94D802FF91EF91BF9191
:10111000AF919F918F917F916F915F914F913F918F
:101120002F910F900FBE0F901F9018951F920F9246
:101130000FB60F9211242F938F939F93EF93FF93EA
:10114000E0917703F09178038081E0917D03F09145
:101150007E0382FD1BC09081809180038F5F8F731F
:1011600020918103821741F0E0918003F0E0E9597A
:10117000FC4F958F80938003FF91EF919F918F910A
:101180002F910F900FBE0F901F9018958081F4CF74
:1011900010926A031092690388EE93E0A0E0B0E039
:1011A00080936B0390936C03A0936D03B0936E03D5
:1011B00081E792E0909368038093670385EC90E069
:1011C000909374038093730384EC90E09093760380
:1011D0008093750380EC90E090937803809377037D
:1011E00081EC90E090937A038093790382EC90E015
:1011F00090937C0380937B0386EC90E090937E0336
:1012000080937D03109280031092810310928203D9
:1012100010928303109207041092060483E892E070
:10122000909305048093040483E08093080484E091
:1012300080930904539A549A5B9AEBE2F0E0808120
:1012400090E1892B808310920D048CE291E09093C1
:101250000F0480930E041092100484E680930C0413
:101260004FE860910904809108040E945D0540E404
:1012700060910904809108040C945D05CF93DF937D
:10128000CDB7DEB7A4970FB6F894DEBF0FBECDBFC3
:10129000789484B5826084BD84B5816084BD85B551
:1012A000826085BD85B5816085BD80916E0081605D
:1012B00080936E0010928100809181008260809303
:1012C0008100809181008160809381008091800005
:1012D0008160809380008091B10084608093B10030
:1012E0008091B00081608093B00080917A0084602A
:1012F00080937A0080917A00826080937A00809156
:101300007A00816080937A0080917A00806880936F
:101310007A001092C100E0917703F091780382E0A7
:101320008083E0917303F09174031082E091750360
:10133000F091760387E0808310927F03E0917B0336
:10134000F0917C0386E08083E0917903F0917A0349
:10135000808180618083E0917903F0917A038081BC
:1013600088608083E0917903F0917A0380818068BE
:101370008083E0917903F0917A0380818F7D80836F
:1013800060E082E00E943D0160E085E00E943D0156
:1013900061E08DE00E943D0161E08CE00E943D0132
:1013A00061E08BE00E943D0161E087E00E943D0129
:1013B00061E088E00E943D0161E089E00E943D011A
:1013C00061E08AE00E943D0161E083E00E943D010E
:1013D00061E084E00E943D0184E080930A0481E0A2
:1013E00080930B040E940D0784E680930C044FE861
:1013F00060910904809108040E945D056EE872E026
:1014000084E094E00E949D0562E08EE00E943D0130
:1014100062E08FE00E943D0162E080E10E943D01B8
:1014200062E081E10E943D0162E082E10E943D01B3
:101430008E010F5F1F4F18018EE00E94E60049E306
:1014400053E06AE373E00E947C05D0903803DD200E
:1014500019F091E0D82ED926809338038FE00E94AE
:10146000E60046E353E067E373E00E947C05E0900A
:101470003503EE2019F091E0E82EE926809335033C
:1014800080E10E94E60043E353E064E373E00E94DE
:101490007C05F0903203FF2019F091E0F82EF92638
:1014A0008093320381E10E94E60040E353E061E370
:1014B00073E00E947C0510912F03112311F011E0BD
:1014C000182780932F0382E10E94E6004DE253E04B
:1014D0006EE273E00E947C0520912C03222311F020
:1014E00021E0282780932C0380915C0390915D0379
:1014F000D11074C4E110C3C4F110D3C41111D4C409
:101500002111D5C420915903E091580312E3219F82
:1015100090011124E20FF32FF11DEE0FFF1FEF5F7B
:10152000FE4F208131812230310521F48130910537
:1015300009F4B2C48530910509F4AEC48330910535
:1015400009F056C4A9C430935B0320935A03843036
:10155000910509F04DC4C0C46BE972E082E0E81661
:10156000F10409F47AC460EA72E093E0E916F10448
:1015700009F473C465EA72E0A4E0EA16F10409F420
:101580006CC4B5E0EB16F10409F0BAC080915903C0
:1015900090E01C8A1B8A1E8A1D8A188E1F8A4AE0C8
:1015A000B10101960E94970FF10101900020E9F727
:1015B0003197AF0142195309B101CE0143960E9400
:1015C00034061A8219821C821B821E821D8242E00E
:1015D00050E06AEA72E0C1010E943406CB88DC88E0
:1015E000C114D10409F47FC0EF88F88CE114F10430
:1015F000B1F08D819E81E80EF91EB701C1010E94F4
:101600000C06882309F46FC029813A818D819E815F
:10161000B601820F931F0E946C12FE82ED821A8E19
:10162000198E1C8E1B8E1E8E1D8E69817A8161150E
:10163000710531F04D815E81CE0149960E943406DC
:10164000C1010E949505CE0143960E9495054D8DDE
:101650005E8D698D7A8D84E094E00E942A07CE0128
:1016600049960E94950580915A0390915B0390934F
:101670005D0380935C03009709F4D6C28130910525
:1016800009F07CC280915903E091580312E3819FD5
:10169000C0011124E80FF92FF11DEE0FFF1FEF5FBE
:1016A000FE4F808191812FB7F89440915F03509154
:1016B0006003609161037091620349A35AA36BA315
:1016C0007CA32FBF8130910519F5409353035093AC
:1016D00054036093550370935603809158038F5FB2
:1016E00080935803A1C289819A81009711F00E94CA
:1016F0001D111A8219821E821D821C821B828FCFAD
:1017000006E0E016F10409F0ADC36DEA72E0A5C38E
:101710008230910519F41092580386C24091530308
:1017200050915403609155037091560309A11AA179
:101730002BA13CA1041B150B260B370BB901A801EB
:10174000443F51406105710508F46EC203978D3125
:10175000910508F00FC2880F991FFC01ED5CFD4F49
:101760000081118118A30F8F0F3F1F4F09F402C290
:10177000809100018A3009F0B6C0E8ECF0E01491E5
:1017800017FD88C161E08AE00E943D01112319F034
:10179000123009F098C14F8D58A14A01B12CA12CEB
:1017A00060E072E18AE790E0A50194010E94CC0F0D
:1017B00029013A017A01690151E0C51AD108E1080D
:1017C000F1086FEFC616D104E104F10409F00CF43E
:1017D0006EC160E472E48FE090E0A50194010E9484
:1017E000CC0F69017A0171E0C71AD108E108F1084C
:1017F000123009F0EDC08FEFC816D104E104F104F6
:1018000009F00CF4E9C260E970ED83E090E0A50115
:1018100094010E94CC0F69017A0191E0C91AD108A4
:10182000E108F10883E0AFEFCA16D104E104F10446
:1018300009F00CF43FC168E478EE81E090E0A50186
:1018400094010E94CC0F69017A0101E0C01AD1080D
:10185000E108F10884E02FEFC216D104E104F1049D
:1018600009F00CF427C164E274EF80E090E0A50178
:1018700094010E94CC0F69017A0161E0C61AD10877
:10188000E108F10885E09FEFC916D104E104F104F5
:1018900009F008F40FC162E17AE780E090E0A50169
:1018A00094010E94CC0F69017A0161E0C61AD10847
:1018B000E108F10886E07FEFC716D104E104F104E6
:1018C00009F008F4F7C0730162013AE0F594E79477
:1018D000D794C7943A95D1F791E0C91AD108E10895
:1018E000F10887E0E7C08F3F09F0D4C08AE0809319
:1018F0000001E8ECF0E0E4911E2FEF3F09F4CAC0CC
:10190000E13021F150F0E23009F43FC0E7FDC2C000
:1019100061E08AE00E943D013BCF14BC15BC84B558
:10192000826084BD85B5816085BDE1EFF0E0E49122
:10193000F0E0EE0FFF1FED52FF4F85919491E5E02F
:10194000F1E0E491E0933F0310E01CCF109280009F
:101950001092810080918100886080938100809145
:101960008100816080938100E1EFF0E0E491F0E09C
:10197000EE0FFF1FED52FF4F85919491E5E0F1E0EE
:10198000E491E0933E0311E0FDCE1092B00010927E
:10199000B1008091B00082608093B0008091B1006E
:1019A00081608093B100E1EFF0E0E491F0E0EE0FB0
:1019B000FF1FED52FF4F8591949190933D038093CB
:1019C0003C03E5E0F1E0E491E0933B0312E0DACE82
:1019D000BFEFCB16D104E104F10409F00CF471C09F
:1019E00068E478EE81E090E0A50194010E94CC0FBC
:1019F00069017A0101E0C01AD108E108F10884E028
:101A0000111141CF83E03FEFC316D104E104F1048B
:101A1000C9F0C4F062E17AE780E090E0A5019401AA
:101A20000E94CC0F69017A0171E0C71AD108E10860
:101A3000F1088FEFC816D104E104F10411F008F0A9
:101A4000BBC184E095B5987F892B85BD2F8D38A1CA
:101A5000220F331FA4EFB1E00E94441028EE33E0C0
:101A600040E050E00E942210113009F461C01230B1
:101A700009F470C011110EC0C7BC20934803309305
:101A8000490340934A0350934B0380916E00826058
:101A900080936E0089A19AA1ABA1BCA1809353034E
:101AA00090935403A0935503B093560316CE81E050
:101AB000112341F29091B100987F892B8093B1005E
:101AC000C5CF82E0F5CFAF8DB8A14D01B12CA12CCF
:101AD00060E072E18AE790E0A5019D010E94CC0FD1
:101AE00069017A01B1E0CB1AD108E108F10891E06F
:101AF000C114D10401E0E006F10484F068E478EE5A
:101B000081E090E0A50194010E94CC0F69017A0167
:101B100061E0C61AD108E108F10893E0113009F03C
:101B200095CF80918100887F892B809381008ECF13
:101B3000D0928900C09288002093440330934503DB
:101B4000409346035093470380916F0082608093D7
:101B50006F00A0CFC092B3002093400330934103A5
:101B600040934203509343038091700082608093BE
:101B7000700090CF8AE00E942E028CCF82309105B7
:101B800009F452C08330910539F468EE73E080E0C7
:101B900090E00E94FB01BFCD8430910509F0DAC0CE
:101BA00061E08DE00E940F0160E08CE00E940F0177
:101BB00060E570E08BE00E94790161E087E00E94BF
:101BC0000F0160E088E00E940F0167E370E089E0A8
:101BD0000E94790182E00E94E600F82E85E00E94D2
:101BE000E600182F41E553E062E573E08F2D0E9477
:101BF0007C05C82E80915003282F30E0220F331F20
:101C000081E0111101C080E0822B87708093500326
:101C1000811117C010924F03D0904C03D11002C015
:101C2000C11015C0C0924C0380E090E0892B09F4EC
:101C300003CC0E94C402882309F4FACB0E9400005E
:101C4000F7CB873049F781E080934F03E5CF909140
:101C50004F0381E080934C0380914E03880F892BC2
:101C60008F7380934E0362EB72E087E693E00E94ED
:101C70009D0562E070E080914E030E94AC0580916A
:101C80004D038F5F80934D03E0904E0330E020E0E2
:101C900011E0F12CA701022E02C0559547950A9438
:101CA000E2F7417014272F5F3F4F2830310591F73D
:101CB000112391F0F594E7941E2D90915703113064
:101CC00039F5911127C080EC92E00E94F905E0926D
:101CD000570310924D03DC2C80914D03863010F099
:101CE00010924D03DD2009F49FCF80915803E091BD
:101CF0005903B2E3EB9FF0011124E80FF11DEE0F41
:101D0000FF1FEF5FFE4F212F30E031832083E7CCB0
:101D10009923F1F0863001F7123049F410925703FD
:101D200010924D038AED92E00E94F905D4CF111173
:101D300003C082EF92E0F8CF6BE073E087E693E0B8
:101D40000E949D056AE070E08E2D0E94AC05C3CF15
:101D5000D12CC2CF8530910589F468EE73E080E024
:101D600090E00E94FB018091590390E0019663E0AE
:101D700070E00E94531080935903CDCC069709F070
:101D800079C060E08DE00E940F0161E08CE00E946C
:101D90000F0167E370E08BE00E94790160E087E06B
:101DA0000E940F0161E088E00E940F0160E570E091
:101DB00089E00E94790138CF730162012AE0F5942D
:101DC000E794D794C7942A95D1F7A1E0CA1AD1080D
:101DD000E108F10885E036CE82E06CCE81309105D5
:101DE00009F068C022E030E030935B0320935A038F
:101DF000E0905A03F0905B038E159F0509F433CCF5
:101E00000E940D078AE00E942E0270E060E08BE0E5
:101E10000E94790160E08DE00E940F0160E08CE09B
:101E20000E940F0170E060E089E00E94790160E0AB
:101E300087E00E940F0160E088E00E940F0110928D
:101E4000570361E972E0E114F10439F071E0E7163B
:101E5000F10409F081CB66E972E084E094E00E942D
:101E60009D0501CC80915A0390915B0390935D0393
:101E700080935C038BE193E00E94F905D5CE26E0C8
:101E800030E08130910509F45ECB86309105C1F4D4
:101E90002630310509F057CB10925B0310925A039C
:101EA000A7CF23E030E0EDCF24E030E0EACF25E01B
:101EB00030E0E7CF21E030E08630910509F443CBF4
:101EC0008430910509F03FCB2430310509F03BCB3C
:101ED00010925B0310925A0320915903E09158032A
:101EE000F0E042E3249F90011124D901AE0FBF1FFF
:101EF000AA0FBB1FAF5FBE4F4D915C9142305105A1
:101F000059F03196E20FF31FEE0FFF1FEF5FFE4F08
:101F100062E070E07183608320915A0330915B032B
:101F20002430310509F464CF1092580361CFBB27E8
:101F30004A3031F4992322F4BDE2909581959F4F68
:101F40000C94A30FBB27FB015527AA27880F991FC5
:101F5000AA1FA41710F0A41B83955051B9F7A05DD8
:101F6000AA3308F0A95DA193009779F7B111B19355
:101F70001192CB010C94BC0FDC01FC01672F719115
:101F80007723E1F7329704C07C916D93708362915F
:101F9000AE17BF07C8F30895052E97FB1EF40094F3
:101FA0000E94E30F57FD07D00E94221007FC03D0C8
:101FB0004EF40C94E30F50954095309521953F4F8A
:101FC0004F4F5F4F089590958095709561957F4F25
:101FD0008F4F9F4F08952F923F924F925F926F9233
:101FE0007F928F929F92AF92BF92CF92DF92EF92A9
:101FF000FF920F931F93CF93DF93CDB7DEB7CA1B2A
:10200000DB0B0FB6F894DEBF0FBECDBF09942A8854
:10201000398848885F846E847D848C849B84AA84FC
:10202000B984C884DF80EE80FD800C811B81AA8189
:10203000B981CE0FD11D0FB6F894DEBF0FBECDBF54
:10204000ED010895A1E21A2EAA1BBB1BFD010DC0D4
:10205000AA1FBB1FEE1FFF1FA217B307E407F50758
:1020600020F0A21BB30BE40BF50B661F771F881F34
:10207000991F1A9469F760957095809590959B01CA
:10208000AC01BD01CF010895A29FB001B39FC00173
:10209000A39F700D811D1124911DB29F700D811D94
:1020A0001124911D089597FB072E16F4009407D074
:1020B00077FD09D00E94671007FC05D03EF490958B
:1020C00081959F4F0895709561957F4F0895AA1B44
:1020D000BB1B51E107C0AA1FBB1FA617B70710F013
:1020E000A61BB70B881F991F5A95A9F78095909545
:1020F000BC01CD010895EE0FFF1F0590F491E02D76
:1021000009940F931F93CF93DF938230910510F4BE
:1021100082E090E0E0911704F091180430E020E0B4
:10212000B0E0A0E0309799F42115310509F44AC0D8
:10213000281B390B24303105D8F58A819B81611524
:10214000710589F1FB0193838283FE0111C04081F7
:1021500051810281138148175907E0F04817590748
:1021600099F4109761F012960C93129713961C93A2
:102170003296CF01DF91CF911F910F910895009377
:10218000170410931804F4CF2115310551F04217AC
:10219000530738F0A901DB019A01BD01DF01F80105
:1021A000C1CFEF01F9CF9093180480931704CDCFDE
:1021B000FE01E20FF31F819391932250310939837D
:1021C0002883D7CF2091150430911604232B41F496
:1021D00020912F0230913002309316042093150481
:1021E00020912D0230912E022115310541F42DB799
:1021F0003EB74091310250913202241B350BE091E1
:102200001504F0911604E217F307A0F42E1B3F0B00
:102210002817390778F0AC014E5F5F4F2417350758
:1022200048F04E0F5F1F509316044093150481939E
:1022300091939FCFF0E0E0E09CCFCF93DF930097A6
:10224000E9F0FC01329713821282A0911704B09139
:102250001804ED0130E020E01097A1F420813181D5
:10226000820F931F20911504309116042817390707
:1022700009F061C0F0931604E0931504DF91CF914B
:102280000895EA01CE17DF07E8F54A815B819E01D8
:1022900041155105B1F7E901FB83EA834991599151
:1022A000C40FD51FEC17FD0761F480819181029660
:1022B000840F951FE90199838883828193819B8391
:1022C0008A83F0E0E0E012968D919C91139700973D
:1022D000B9F52D913C911197CD010296820F931F74
:1022E00020911504309116042817390739F63097D4
:1022F00051F51092180410921704B0931604A0938D
:102300001504BCCFD383C28340815181840F951FB4
:10231000C817D90761F44E5F5F4F88819981480FD4
:10232000591F518340838A819B8193838283211526
:10233000310509F0B0CFF0931804E09317049ECF55
:10234000FD01DC01C0CF13821282D7CFB0E0A0E044
:10235000ECEAF1E10C94ED0F8C01009751F4CB0104
:102360000E9481108C01C801CDB7DEB7E0E10C946A
:102370000910FC01E60FF71F9C0122503109E217FA
:10238000F30708F49DC0D901CD91DC911197C617D0
:10239000D70798F0C530D10530F3CE0104978617E2
:1023A000970708F3C61BD70B2297C193D1936D9360
:1023B0007C93CF010E941D11D6CF5B01AC1ABD0AE0
:1023C0004C018C0E9D1EA0911704B0911804512C45
:1023D000412CF12CE12C109731F58091150490914E
:1023E00016048815990509F05CC04616570608F0D2
:1023F00058C080912D0290912E02009741F48DB724
:102400009EB74091310250913202841B950BE81720
:10241000F90708F055C0F0931604E0931504F9018C
:1024200071836083A0CF8D919C91119712966C90CF
:10243000129713967C901397A815B90559F56C015E
:1024400042E0C40ED11CCA14DB0420F1AC014A19CD
:102450005B09DA011296159780F0628273825183CC
:102460004083D9016D937C93E114F10471F0D7019D
:102470001396FC93EE93129776CF22968C0F9D1FA6
:10248000F90191838083F301EFCFF0931804E09377
:10249000170469CF4816590608F42C017D01D301B1
:1024A0009ACFCB010E9481107C01009749F0AE01C8
:1024B000B8010E946312C8010E941D11870153CF09
:1024C00010E000E050CFFB01DC0102C001900D9252
:1024D00041505040D8F70895FB01DC0101900D9266
:0A24E0000020E1F70895F894FFCF03
:1024EA00FF020000000000000000000000000000E1
:1024FA0000000000000000000000000000000000D2
:10250A0000000000000000000000000000000000C1
:10251A0000000000000000000000000000000000B1
:10252A0000000000000000000000000000000000A1
:10253A000000000000000000000000000000000091
:10254A00000000000002000000000000000000007F
:10255A000000000000000000000000000000000071
:10256A000000000000000000000000000000000061
:10257A000000000000000000000000000000000051
:10258A000000000000000000000000000000000041
:10259A000000000000000000000000000000000031
:1025AA00000000000000000000020000000000001F
:1025BA000000000000000000000000000000000011
:1025CA000000000000000000000000000000000001
:1025DA0000000000000000000000000000000000F1
:1025EA0000000000000000000000000000000000E1
:1025FA0000000000000000000000000000000000D1
:10260A0000000000000000000000000000000019A7
:10261A000480006E0074007B0082008A0092009B96
:10262A0000A400AE00B900C400CF00DC00E900F647
:10263A0000050115012501370149015D0172018873
:10264A00019F01B801D201ED010B022A020000002C
:10265A0000FA025A0287024703B8029602AA020047
:10266A000000006B072A07790578050D0A004F4E0E
:10267A000049444C4500504C4159005041555300C3
:10268A005245535400524541440054520052455653
:10269A004D0044617461206275666665723A200075
:1026AA005265636569766564205354415254206EBD
:1026BA006F746520636F64652E0052656365697681
:1026CA00656420454E44206E6F746520636F6465AF
:1026DA002E0052656365697665642049444C45203D
:1026EA006E6F746520636F64652E00526563656959
:1026FA00766564206E6F74653A2000737461746540
:0C270A0020657863657074696F6E0000D4
:00000001FF
