:020000040000FA
:100000000C9493000C94BB000C94BB000C94BB00AC
:100010000C94BB000C94BB000C94BB000C94E20647
:100020000C94BB000C94BB000C94BB000C94BB0064
:100030000C94BB000C94BB000C94BB000C94BB0054
:100040000C9498060C94BB000C94AA070C9484079B
:100050000C94BB000C94BB000C94BB000C94BB0034
:100060000C94BB000C94BB00000622766D247F200C
:10007000390F5C50104008063F065B4F666D7D07E8
:100080007F6F303058484C535F777F395E79713DD0
:1000900076060E753815373F7367336D783E1C2A28
:1000A000766E5B39300F1308105F7C585E7B716F82
:1000B00074040C753015545C7367506D781C1C2AE1
:1000C00076665B79064F400002000000002500289C
:1000D000002B0000000000240027002A0000000080
:1000E000002300260029000404040404040404027C
:1000F00002020202020303030303030102040810C5
:100100002040800102040810200102040810200091
:1001100000000800020100000304070000000000C6
:1001200000000000DC0711241FBECFEFD8E0DEBFC7
:10013000CDBF11E0A0E0B1E0E2E8F4E102C005903B
:100140000D92A63BB107D9F722E0A6EBB1E001C0C2
:100150001D92A538B207E1F710E0C3E9D0E004C072
:100160002197FE010E94300AC239D107C9F70E94C7
:1001700052080C943F0A0C940000833081F028F45C
:10018000813099F08230A9F008958730A9F0883045
:10019000C9F08430B1F4809180008F7D03C08091DC
:1001A00080008F7780938000089584B58F7784BD19
:1001B000089584B58F7DFBCF8091B0008F778093B9
:1001C000B00008958091B0008F7DF9CFCF93DF9379
:1001D000282F30E0F901E15FFE4F8491F901E550ED
:1001E000FF4FD491F901E951FF4FC491CC23A1F005
:1001F00081110E94BD00EC2FF0E0EE0FFF1FE352D3
:10020000FF4FA591B491EC91ED2381E090E009F4CA
:1002100080E0DF91CF91089580E090E0FACFCF9316
:10022000DF9390E0FC01E550FF4F249189519F4FEF
:10023000FC0184918823C9F090E0880F991FFC018C
:10024000ED52FF4FA591B491FC01E753FF4FC591CB
:10025000D49161110DC09FB7F8948C9120958223A1
:100260008C938881282328839FBFDF91CF910895A5
:10027000623051F49FB7F8943C91822F809583238C
:100280008C93E8812E2BEFCF8FB7F894EC912E2B27
:100290002C938FBFEACF3FB7F8948091D301909110
:1002A000D401A091D501B091D60126B5A89B05C077
:1002B0002F3F19F00196A11DB11D3FBFBA2FA92FE5
:1002C000982F8827BC01CD01620F711D811D911DE2
:1002D00042E0660F771F881F991F4A95D1F708954E
:1002E0008F929F92AF92BF92CF92DF92EF92FF9246
:1002F0006B017C010E944B014B015C01C114D104D4
:10030000E104F104B9F00E944B01681979098A09E6
:100310009B09683E73408105910580F321E0C21A74
:10032000D108E108F10888EE880E83E0981EA11C30
:10033000B11CE4CFFF90EF90DF90CF90BF90AF90D3
:100340009F908F900895AF92BF92CF92DF92EF92DD
:10035000FF920F931F93CF93DF936C017B018B016F
:10036000040F151FEB015E01AE18BF08C017D107BF
:1003700059F06991D601ED91FC910190F081E02D49
:10038000C6010995892B79F7C501DF91CF911F919E
:100390000F91FF90EF90DF90CF90BF90AF900895B6
:1003A000FC01538D448D252F30E0842F90E0821B7B
:1003B000930B541710F0CF96089501970895FC0100
:1003C000918D828D981761F0A28DAE0FBF2FB11D58
:1003D0005D968C91928D9F5F9F73928F90E00895B0
:1003E0008FEF9FEF0895FC01918D828D981731F06A
:1003F000828DE80FF11D858D90E008958FEF9FEFBE
:100400000895FC01918D228D892F90E0805C9F4F93
:10041000821B91098F739927089587ED91E00E94BF
:10042000010221E0892B09F420E0822F089580E069
:1004300090E0892B29F00E940D0281110C9400009C
:100440000895FC01A48DA80FB92FB11DA35ABF4F69
:100450002C91848D90E001968F739927848FA689C3
:10046000B7892C93A089B1898C91837080648C9317
:10047000938D848D981306C00288F389E02D8081C6
:100480008F7D80830895EF92FF920F931F93CF93F8
:10049000DF93EC0181E0888F9B8D8C8D98131AC0BF
:1004A000E889F989808185FF15C09FB7F894EE89A6
:1004B000FF896083E889F989808183708064808303
:1004C0009FBF81E090E0DF91CF911F910F91FF904E
:1004D000EF900895F62E0B8D10E00F5F1F4F0F73F6
:1004E0001127E02E8C8D8E110CC00FB607FCFACFB1
:1004F000E889F989808185FFF5CFCE010E9421022C
:10050000F1CFEB8DEC0FFD2FF11DE35AFF4FF08281
:100510009FB7F8940B8FEA89FB8980818062CFCFE7
:10052000CF93DF93EC01888D8823B9F0AA89BB892A
:10053000E889F9898C9185FD03C0808186FD0DC015
:100540000FB607FCF7CF8C9185FFF2CF808185FF36
:10055000EDCFCE010E942102E9CFDF91CF91089526
:10056000CF93DF93EBE2F0E0883040F098EF980F04
:10057000E8E2F0E0963010F4E5E2F0E0908142EF3E
:10058000480F8E3010F4482F477021E030E001C052
:10059000220F4A95EAF7322F309593239083AAE2EF
:1005A000B0E0683040F098EF960FA7E2B0E09630E8
:1005B00010F4A4E2B0E09C9122EF260F6E3010F40C
:1005C000262F277041E050E001C0440F2A95EAF73A
:1005D000409549234C93CBE2D0E0683040F098EF4F
:1005E000960FC8E2D0E0963010F4C5E2D0E0288142
:1005F00091E042EF460F6E3010F4462F477001C075
:10060000990F4A95EAF7292B2883CFE0D0E021976C
:10061000F1F7C9E2D0E0683038F06850C6E2D0E0C7
:10062000663010F4C3E2D0E02881292361E009F0AC
:1006300060E050818E30B0F08E5021E001C0220F7A
:100640008A95EAF7252B2083CFE0D0E02197F1F7B8
:100650002081322330832C91922B9C93862FDF9123
:10066000CF9108958770E9CFCF93DF93EBE2F0E06D
:10067000883040F098EF980FE8E2F0E0963010F400
:10068000E5E2F0E0908142EF480F8E3010F4482F01
:10069000477021E030E001C0220F4A95EAF720952B
:1006A00029232083AFE0B0E01197F1F7ABE2B0E08F
:1006B000683040F098EF960FA8E2B0E0963010F462
:1006C000A5E2B0E09C9142EF460F6E3010F4462F49
:1006D000477021E030E001C0220F4A95EAF72095EB
:1006E00029232C93CFE0D0E02197F1F720818E30A1
:1006F000D8F092EF980F81E001C0880F9A95EAF741
:10070000822B80838FE090E00197F1F79C916E300F
:1007100098F06E5081E001C0880F6A95EAF7892B46
:100720008C93DF91CF910895877091E001C0990F6C
:100730008A95EAF7892FE4CF6770ECCFEBE2F0E01F
:10074000683040F098EF960FE8E2F0E0963010F451
:10075000E5E2F0E0208191E032EF360F6E3010F4E8
:10076000362F377001C0990F3A95EAF7922B908394
:10077000ABE2B0E0883040F098EF980FA8E2B0E02C
:10078000963010F4A5E2B0E02C918E30D8F08E5067
:1007900091E001C0990F8A95EAF7892F822B8C93FB
:1007A0008FE090E00197F1F720816E3068F06E5095
:1007B00081E090E001C0880F6A95EAF78095822376
:1007C000808308958770E4CF6770F2CFBF92CF9295
:1007D000DF92EF92FF920F931F93CF93DF93982FA7
:1007E000977021E030E0D90101C0AA0F9A95EAF78D
:1007F00092EF980F01C0220F9A95EAF7FA2E8E30E9
:1008000008F0F22EF094962F9770E1E0F0E0EF01FF
:1008100001C0CC0F9A95EAF792EF960F01C0EE0F48
:100820009A95EAF7EC2E6E3008F0EE2EE094DC2E6E
:10083000BC2E6E3008F0BE2ECA2E8E3008F42A2F41
:1008400058E098EF980F38EF360FCFE0D0E0ABE2EA
:10085000B0E0883030F0A5E2B0E0963010F0A8E2C9
:10086000B0E07C917F21ABE2B0E0883030F0A5E2CF
:10087000B0E0963010F0A8E2B0E07C93A42FB0E096
:1008800040FF4AC00BE210E0683030F005E210E0B3
:10089000363010F008E210E0F80140817D2D0BE2C7
:1008A00010E0683038F07B2D05E210E0363010F0B3
:1008B00008E210E0472BF8014083FE013197F1F781
:1008C000B595A7954A2FABE2B0E0883030F0A5E2AD
:1008D000B0E0963010F0A8E2B0E07C91FC2DABE2E5
:1008E000B0E0883038F0F22FA5E2B0E0963010F09A
:1008F000A8E2B0E07F2B7C93DE011197F1F7515015
:1009000009F0A5CFDF91CF911F910F91FF90EF904C
:10091000DF90CF90BF9008950BE210E0683030F088
:1009200005E210E0363010F008E210E0F8014081F6
:100930004E210BE210E0683008F4BDCF05E210E074
:10094000363008F4B8CF08E210E0B5CF1F93CF934C
:10095000DF93C82FD62F142F0E949E03412F6D2F97
:100960008C2F0E94E6036D2F8C2F0E94B002182F4F
:100970006D2F8C2F0E943403812FDF91CF911F9117
:100980000895089590E080E00895FB010190002013
:10099000E9F73197AF01461B570BDC01ED91FC9154
:1009A0000280F381E02D09948F929F92AF92BF92C3
:1009B0000F931F93CF93DF93CDB7DEB7A1970FB6F9
:1009C000F894DEBF0FBECDBF19A2423008F44AE052
:1009D0008E010F5D1F4F842E912CB12CA12CA501EF
:1009E00094010E940E0AE62FB901CA01EA3004F50B
:1009F000E05DD801EE938D01232B242B252B79F775
:100A000090E080E0109729F0BD0187ED91E00E9411
:100A1000C504A1960FB6F894DEBF0FBECDBFDF911F
:100A2000CF911F910F91BF90AF909F908F9008959D
:100A3000E95CDFCFCF93DF93BC0187ED91E00E94AB
:100A4000C504EC016FE171E087ED91E00E94C504FF
:100A50008C0F9D1FDF91CF9108958F929F92AF923F
:100A6000BF92DF92EF92FF920F931F93CF93DF938A
:100A700000D000D01F92CDB7DEB77C015B018A01A8
:100A8000D22EFC0186819A012D0D311D821713068D
:100A900008F458C0CE0101964C0185E0F401119292
:100AA0008A95E9F78D2D8770806C8983CE01029637
:100AB0000E94360AF1E0FD1568F0F7019485D11027
:100AC00024C00230110508F18B819923E1F090E8F0
:100AD000892B8B830F5FF701D58014816D2D812FBA
:100AE0000E949E0374018E2D88198017B8F4F701B7
:100AF00041917F016D2D812F0E94E6036D2D812F85
:100B00000E94B002F0CF90E0E3CF8A81992321F0D8
:100B100090E8892B8A83DECF90E0FBCF6D2D812F6B
:100B20000F900F900F900F900F90DF91CF911F912A
:100B30000F91FF90EF90DF90BF90AF909F908F90BC
:100B40000C943403182F1D19412F50E02D2DC7018F
:100B50000E942D05F7016285738590E080E00E9478
:100B600070010D5F011B11E0F7014681041790F041
:100B700050E0B501610F711D20E0C7010E942D05F5
:100B8000F7016285738590E080E00E94700101505A
:100B90001F5FEACF0F900F900F900F900F90DF9193
:100BA000CF911F910F91FF90EF90DF90BF90AF908A
:100BB0009F908F900895CF93DF9300D000D0CDB752
:100BC000DEB719821A821B821C8220E044E050E0CA
:100BD000BE016F5F7F4F84E792E00E942D05109267
:100BE0007D020F900F900F900F90DF91CF9108959D
:100BF0000F931F93CF93DF93CDB7DEB7C058D109C2
:100C00000FB6F894DEBF0FBECDBF362F272F8A0157
:100C10004138510510F000E810E0BE016F5F7F4FD2
:100C2000A32FB22F9B01A901461B570B4017510759
:100C300070F4ED9140E0E03234F00E2E000CFF0B2A
:100C4000E85BFF4F4491F90141939F01ECCFFC0118
:100C50002185A8010E942D05C801C058DF4F0FB69D
:100C6000F894DEBF0FBECDBFDF91CF911F910F91E2
:100C70000895EF92FF921F93CF93DF93EC01162F0D
:100C800089859E81F12CE12C891326C0BE01635F0A
:100C90007F4F262FFB019E2F921B981718F49181EE
:100CA0009193F9CF898590E0E0E010323CF0E12F9C
:100CB000012E000CFF0BE85BFF4FE4918C0F9D1F92
:100CC000DC011D96EC934E8150E020E0CE010E94A5
:100CD0002D05EE24E394F12C49858E81481708F503
:100CE00050E0E0E0103234F0E12F110FFF0BE85B31
:100CF000FF4FE491DE01A40FB51F1D96EC934F5FEB
:100D00005F4F20E0BE01635F7F4FCE010E942D0543
:100D100089858F5F843008F083E08987BFEFEB1A05
:100D2000FB0AC701DF91CF911F91FF90EF900895CB
:100D30001F920F920FB60F9211242F933F938F9310
:100D40009F93AF93BF938091CF019091D001A091D9
:100D5000D101B091D2013091CE0123E0230F2D3784
:100D600058F50196A11DB11D2093CE018093CF01AE
:100D70009093D001A093D101B093D2018091D3017F
:100D80009091D401A091D501B091D6010196A11DF9
:100D9000B11D8093D3019093D401A093D501B0935A
:100DA000D601BF91AF919F918F913F912F910F905D
:100DB0000FBE0F901F90189526E8230F0296A11DD5
:100DC000B11DD2CF1F920F920FB60F9211242F9305
:100DD0003F934F935F936F937F938F939F93AF93C3
:100DE000BF93CF93DF93EF93FF938091C1019091D5
:100DF000C201A091C301B091C401892B8A2B8B2B16
:100E0000D1F19091C001809100008927809300006A
:100E10008091C1019091C201A091C301B091C40120
:100E2000181619061A061B069CF48091C1019091B0
:100E3000C201A091C301B091C4010197A109B109F8
:100E40008093C1019093C201A093C301B093C401E8
:100E5000FF91EF91DF91CF91BF91AF919F918F91D2
:100E60007F916F915F914F913F912F910F900FBEA6
:100E70000F901F90189520910001E8ECF0E0E491AC
:100E80008FEF80930001E13041F120F1E23059F120
:100E900030E0F901E15FFE4F8491F901E550FF4F29
:100EA000D491F901E951FF4FC491CC2389F281110A
:100EB0000E94BD00EC2FF0E0EE0FFF1FE753FF4F45
:100EC000A591B4918FB7F894EC91D095DE23DC9383
:100ED0008FBFBECF10926E00DBCF80916F008D7FF1
:100EE00080936F00D5CF809170008D7F80937000CC
:100EF00081E08093B0008091B100887F846080930E
:100F0000B1001092B300C4CF1F920F920FB60F9290
:100F100011242F933F934F935F936F937F938F93FE
:100F20009F93AF93BF93EF93FF9387ED91E00E9460
:100F30002102FF91EF91BF91AF919F918F917F918E
:100F40006F915F914F913F912F910F900FBE0F9036
:100F50001F9018951F920F920FB60F9211242F9386
:100F60008F939F93EF93FF93E091E701F091E80156
:100F70008081E091ED01F091EE0182FD1BC0908136
:100F80008091F0018F5F8F732091F101821741F002
:100F9000E091F001F0E0E952FE4F958F8093F0016F
:100FA000FF91EF919F918F912F910F900FBE0F9016
:100FB0001F9018958081F4CF1092DA011092D90118
:100FC00088EE93E0A0E0B0E08093DB019093DC0139
:100FD000A093DD01B093DE0185E091E09093D8010C
:100FE0008093D70185EC90E09093E4018093E30136
:100FF00084EC90E09093E6018093E50180EC90E032
:101000009093E8018093E70181EC90E09093EA01EE
:101010008093E90182EC90E09093EC018093EB01E6
:1010200086EC90E09093EE018093ED011092F00138
:101030001092F1011092F2011092F30110927702D6
:101040001092760287E191E090937502809374028A
:1010500083E08093780284E080937902539A549AD3
:101060005B9AEBE2F0E0808190E1892B8083109223
:101070007D028CE291E090937F0280937E02109239
:10108000800284E680937C024FE86091790280912F
:1010900078020E94A60440E460917902809178026F
:1010A0000C94A604789484B5826084BD84B5816074
:1010B00084BD85B5826085BD85B5816085BD809123
:1010C0006E00816080936E0010928100809181009B
:1010D0008260809381008091810081608093810093
:1010E000809180008160809380008091B100846055
:1010F0008093B1008091B00081608093B0008091B6
:101100007A00846080937A0080917A008260809374
:101110007A0080917A00816080937A0080917A00D1
:10112000806880937A001092C100E091E701F0910D
:10113000E80182E08083E091E301F091E401108214
:10114000E091E501F091E6018FEC80831092EF01D0
:10115000E091EB01F091EC0186E08083E091E90100
:10116000F091EA01808180618083E091E901F09152
:10117000EA01808188608083E091E901F091EA01D1
:10118000808180688083E091E901F091EA018081AB
:101190008F7D808360E082E00E940F0160E085E047
:1011A0000E940F0161E08BE00E940F0161E08CE082
:1011B0000E940F0161E08DE00E940F0161E087E075
:1011C0000E940F0161E088E00E940F0161E089E068
:1011D0000E940F0161E08AE00E940F0161E083E05C
:1011E0000E940F0161E084E00E940F0184E080937F
:1011F0007A0281E080937B020E94DB0584E6809383
:101200007C024FE860917902809178020E94A604E6
:1012100062E08EE00E940F0162E08FE00E940F0109
:1012200062E080E10E940F0162E081E10E940F0113
:1012300062E082E10E940F0100E010E0FF24F394DD
:101240000E94DB0562E271E084E792E00E94C5043F
:101250001092CD0182E00E94E600C82F85E00E9436
:10126000E6002091CC0130E0220F331F91E0C11144
:1012700001C090E0922B9F709093CC01911188C097
:101280001092CB014091CB012091CA0130E0220F96
:10129000331F91E0811101C090E0892F822B8F7064
:1012A0008093CA0181117AC01092C9018091C50151
:1012B00081117AC0442309F477C0C091C901F0922A
:1012C000C50187E291E00E941A058091C801880F4C
:1012D0008C2B8F738093C80165E471E087ED91E0FA
:1012E0000E94C5046091C80170E090E080E042E097
:1012F0000E94D4046FE171E087ED91E00E94C50483
:101300008091C7018F5F853008F05CC08093C70172
:101310006091C80190E080E021E070E0AB01082E10
:1013200002C0559547950A94E2F74170242701962B
:101330008830910599F72223C9F183E591E00E9455
:101340001A05C091C801D0E0D595C79568E671E04F
:1013500087ED91E00E94C5044E010D2E000CAA08F5
:10136000BB0842E0C501B4010E94D4046FE171E002
:1013700087ED91E00E94C504C13039F5F092C601B5
:101380001092C7018091CD018F5F8093CD010EC077
:101390009F3009F077CFF092CB0174CF8F3009F0F6
:1013A00085CFF092C90182CF4093C5010115110587
:1013B00009F446CF0E940D02882309F441CF0E9410
:1013C00000003ECF1092C701A3CF8091C6018823B1
:1013D000C9F28091C7018530A9F6C230D10549F420
:1013E0001092C6011092C70184E791E00E941A058D
:1013F000C9CFCD2B19F48CE891E0F8CF85EA91E0C4
:101400000E941A054AE0C501B4010E94D4046FE1AC
:1014100071E087ED91E00E94C504B4CFA1E21A2EDD
:10142000AA1BBB1BFD010DC0AA1FBB1FEE1FFF1F88
:10143000A217B307E407F50720F0A21BB30BE40BD8
:10144000F50B661F771F881F991F1A9469F760951F
:101450007095809590959B01AC01BD01CF010895D9
:10146000EE0FFF1F0590F491E02D0994FB01DC01C4
:1014700002C001900D9241505040D8F70895F89461
:10148000FFCFFF000000004302A301D00190020142
:1014900002DF01F301000000003906F805C204C1B3
:1014A000040D0A005245414400436C6F636B207089
:1014B0006F73697469766520656467652064657417
:1014C00065637465642E00446174612062756666AC
:1014D00065723A20005061726974792063686563AF
:1014E0006B207061737365642E004E6F74652063AA
:1014F0006F64653A200052656365697665642045CE
:101500004E44206E6F746520636F64652E005265D3
:101510006365697665642049444C45206E6F746547
:1015200020636F64652E005265636569766564208B
:081530006E6F74653A200000A3
:107E0000112484B714BE81FFF0D085E080938100F7
:107E100082E08093C00088E18093C10086E0809377
:107E2000C20080E18093C4008EE0C9D0259A86E02C
:107E300020E33CEF91E0309385002093840096BBD3
:107E4000B09BFECF1D9AA8958150A9F7CC24DD24C4
:107E500088248394B5E0AB2EA1E19A2EF3E0BF2EE7
:107E6000A2D0813461F49FD0082FAFD0023811F036
:107E7000013811F484E001C083E08DD089C08234E0
:107E800011F484E103C0853419F485E0A6D080C0E4
:107E9000853579F488D0E82EFF2485D0082F10E0AE
:107EA000102F00270E291F29000F111F8ED06801E7
:107EB0006FC0863521F484E090D080E0DECF843638
:107EC00009F040C070D06FD0082F6DD080E0C81688
:107ED00080E7D80618F4F601B7BEE895C0E0D1E017
:107EE00062D089930C17E1F7F0E0CF16F0E7DF06D8
:107EF00018F0F601B7BEE89568D007B600FCFDCFD4
:107F0000A601A0E0B1E02C9130E011968C91119780
:107F100090E0982F8827822B932B1296FA010C0160
:107F200087BEE89511244E5F5F4FF1E0A038BF0790
:107F300051F7F601A7BEE89507B600FCFDCF97BE46
:107F4000E89526C08437B1F42ED02DD0F82E2BD052
:107F50003CD0F601EF2C8F010F5F1F4F84911BD097
:107F6000EA94F801C1F70894C11CD11CFA94CF0C13
:107F7000D11C0EC0853739F428D08EE10CD085E9AC
:107F80000AD08FE07ACF813511F488E018D01DD067
:107F900080E101D065CF982F8091C00085FFFCCF94
:107FA0009093C60008958091C00087FFFCCF809118
:107FB000C00084FD01C0A8958091C6000895E0E648
:107FC000F0E098E1908380830895EDDF803219F02E
:107FD00088E0F5DFFFCF84E1DECF1F93182FE3DFCA
:107FE0001150E9F7F2DF1F91089580E0E8DFEE27F6
:047FF000FF270994CA
:027FFE00040479
:00000001FF
