:020000040000FA
:100000000C9493000C94BB000C94BB000C94BB00AC
:100010000C94BB000C94BB000C94BB000C94C70761
:100020000C94BB000C94BB000C94BB000C94BB0064
:100030000C94BB000C94BB000C94BB000C94BB0054
:100040000C947D070C94BB000C9449080C94230875
:100050000C94BB000C94BB000C94BB000C94BB0034
:100060000C94BB000C94BB00000622766D247F200C
:10007000390F5C50104008063F065B4F666D7D07E8
:100080007F6F303058484C535F777F395E79713DD0
:1000900076060E753815373F7367336D783E1C2A28
:1000A000766E5B39300F1308105F7C585E7B716F82
:1000B00074040C753015545C7367506D781C1C2AE1
:1000C00076665B79064F400002000000002400279E
:1000D000002A0000000000250028002B000000007E
:1000E000002300260029000404040404040404027C
:1000F00002020202020303030303030102040810C5
:100100002040800102040810200102040810200091
:1001100000000800020100000304070000000000C6
:10012000000000007B0811241FBECFEFD8E0DEBF27
:10013000CDBF16E0A0E0B1E0E4E7F4E202C0059034
:100140000D92A630B107D9F726E0A6E0B6E001C0CF
:100150001D92A33FB207E1F710E0C3E9D0E004C06D
:100160002197FE010E944010C239D107C9F70E94B1
:10017000F1080C9438120C940000833081F028F4BC
:10018000813099F08230A9F008958730A9F0883045
:10019000C9F08430B1F4809180008F7D03C08091DC
:1001A00080008F7780938000089584B58F7784BD19
:1001B000089584B58F7DFBCF8091B0008F778093B9
:1001C000B00008958091B0008F7DF9CFCF93DF9379
:1001D000282F30E0F901E15FFE4F8491F901E550ED
:1001E000FF4FD491F901E951FF4FC491CC23A1F005
:1001F00081110E94BD00EC2FF0E0EE0FFF1FE352D3
:10020000FF4FA591B491EC91ED2381E090E009F4CA
:1002100080E0DF91CF91089580E090E0FACF1F93C6
:10022000CF93DF93282F30E0F901E15FFE4F8491F7
:10023000F901E550FF4FD491F901E951FF4FC49105
:10024000CC23A9F0162F81110E94BD00EC2FF0E005
:10025000EE0FFF1FED52FF4FA591B4918FB7F894A9
:10026000EC91111108C0D095DE23DC938FBFDF9194
:10027000CF911F910895DE2BF8CFCF93DF9390E0BD
:10028000FC01E550FF4F249189519F4FFC0184915F
:100290008823C9F090E0880F991FFC01E753FF4FB6
:1002A000A591B491FC01ED52FF4FC591D49161111C
:1002B0000DC09FB7F8948C91209582238C938881F0
:1002C000282328839FBFDF91CF910895623051F496
:1002D0009FB7F8943C91822F809583238C93E8817B
:1002E0002E2BEFCF8FB7F894EC912E2B2C938FBF42
:1002F000EACF1F93CF93DF93182FEB0161E00E94A9
:100300003D01209739F460E0812FDF91CF911F915B
:100310000C940F01CF3FD10511F461E0F5CFE12F2F
:10032000F0E0E15FFE4FE491E33031F140F4E13081
:10033000B1F0E230E1F0C038D1057CF7E4CFE7302E
:1003400029F1E83059F1E430B1F780918000806202
:1003500080938000D0938B00C0938A0004C084B542
:10036000806884BDC7BDDF91CF911F91089584B58A
:10037000806284BDC8BDF7CF809180008068809383
:100380008000D0938900C0938800EDCF8091B000A9
:1003900080688093B000C093B300E5CF8091B00037
:1003A00080628093B000C093B400DDCF3FB7F89473
:1003B00080913D0690913E06A0913F06B091400687
:1003C00026B5A89B05C02F3F19F00196A11DB11DB0
:1003D0003FBFBA2FA92F982F8827BC01CD01620FEC
:1003E000711D811D911D42E0660F771F881F991FA7
:1003F0004A95D1F708958F929F92AF92BF92CF9274
:10040000DF92EF92FF926B017C010E94D6014B01BB
:100410005C01C114D104E104F104B9F00E94D601D9
:10042000681979098A099B09683E7340810591051D
:1004300080F321E0C21AD108E108F10888EE880EA5
:1004400083E0981EA11CB11CE4CFFF90EF90DF90D9
:10045000CF90BF90AF909F908F90089590910001A2
:1004600089130BC0E8ECF0E0E4919FEF909300015A
:10047000E13049F028F0E23061F060E00C940F01C7
:1004800010926E00FACF90916F009D7F90936F0055
:10049000F4CF909170009D7F9093700091E09093C5
:1004A000B0009091B100987F94609093B100109249
:1004B000B300E3CFAF92BF92CF92DF92EF92FF9261
:1004C0000F931F93CF93DF936C017B018B01040F7C
:1004D000151FEB015E01AE18BF08C017D10759F018
:1004E0006991D601ED91FC910190F081E02DC6015A
:1004F0000995892B79F7C501DF91CF911F910F9154
:10050000FF90EF90DF90CF90BF90AF900895FC01E7
:10051000538D448D252F30E0842F90E0821B930B68
:10052000541710F0CF96089501970895FC01918D0E
:10053000828D981761F0A28DAE0FBF2FB11D5D9611
:100540008C91928D9F5F9F73928F90E008958FEFB3
:100550009FEF0895FC01918D828D981731F0828D67
:10056000E80FF11D858D90E008958FEF9FEF0895BE
:10057000FC01918D228D892F90E0805C9F4F821B22
:1005800091098F739927089581E496E00E94B8023B
:1005900021E0892B09F420E0822F089580E090E08B
:1005A000892B29F00E94C40281110C940000089547
:1005B000FC01A48DA80FB92FB11DA35ABF4F2C91D8
:1005C000848D90E001968F739927848FA689B789CF
:1005D0002C93A089B1898C91837080648C93938DC6
:1005E000848D981306C00288F389E02D80818F7D69
:1005F00080830895EF92FF920F931F93CF93DF9321
:10060000EC0181E0888F9B8D8C8D98131AC0E8894E
:10061000F989808185FF15C09FB7F894EE89FF891D
:100620006083E889F98980818370806480839FBFBB
:1006300081E090E0DF91CF911F910F91FF90EF90BB
:100640000895F62E0B8D10E00F5F1F4F0F731127CB
:10065000E02E8C8D8E110CC00FB607FCFACFE88906
:10066000F989808185FFF5CFCE010E94D802F1CFB4
:10067000EB8DEC0FFD2FF11DE35AFF4FF0829FB77A
:10068000F8940B8FEA89FB8980818062CFCFCF936A
:10069000DF93EC01888D8823B9F0AA89BB89E889AA
:1006A000F9898C9185FD03C0808186FD0DC00FB650
:1006B00007FCF7CF8C9185FFF2CF808185FFEDCFCE
:1006C000CE010E94D802E9CFDF91CF910895CF9358
:1006D000DF93EBE2F0E0883040F098EF980FE8E22B
:1006E000F0E0963010F4E5E2F0E0908142EF480F40
:1006F0008E3010F4482F477021E030E001C0220F07
:100700004A95EAF7322F309593239083AAE2B0E01E
:10071000683040F098EF960FA7E2B0E0963010F402
:10072000A4E2B0E09C9122EF260F6E3010F4262F49
:10073000277041E050E001C0440F2A95EAF7409548
:1007400049234C93CBE2D0E0683040F098EF960F0D
:10075000C8E2D0E0963010F4C5E2D0E0288191E004
:1007600042EF460F6E3010F4462F477001C0990FCC
:100770004A95EAF7292B2883CFE0D0E02197F1F7BB
:10078000C9E2D0E0683038F06850C6E2D0E06630A8
:1007900010F4C3E2D0E02881292361E009F060E091
:1007A00050818E30B0F08E5021E001C0220F8A952A
:1007B000EAF7252B2083CFE0D0E02197F1F72081C5
:1007C000322330832C91922B9C93862FDF91CF91F3
:1007D00008958770E9CFCF93DF93EBE2F0E08830A4
:1007E00040F098EF980FE8E2F0E0963010F4E5E280
:1007F000F0E0908142EF480F8E3010F4482F4770A0
:1008000021E030E001C0220F4A95EAF72095292324
:100810002083AFE0B0E01197F1F7ABE2B0E06830D1
:1008200040F098EF960FA8E2B0E0963010F4A5E201
:10083000B0E09C9142EF460F6E3010F4462F4770A7
:1008400021E030E001C0220F4A95EAF720952923E4
:100850002C93CFE0D0E02197F1F720818E30D8F0B3
:1008600092EF980F81E001C0880F9A95EAF7822BEA
:1008700080838FE090E00197F1F79C916E3098F0C3
:100880006E5081E001C0880F6A95EAF7892B8C933E
:10089000DF91CF910895877091E001C0990F8A95FB
:1008A000EAF7892FE4CF6770ECCFEBE2F0E0683035
:1008B00040F098EF960FE8E2F0E0963010F4E5E2B1
:1008C000F0E0208191E032EF360F6E3010F4362FD9
:1008D000377001C0990F3A95EAF7922B9083ABE2FB
:1008E000B0E0883040F098EF980FA8E2B0E0963082
:1008F00010F4A5E2B0E02C918E30D8F08E5091E04B
:1009000001C0990F8A95EAF7892F822B8C938FE08B
:1009100090E00197F1F720816E3068F06E5081E031
:1009200090E001C0880F6A95EAF780958223808362
:1009300008958770E4CF6770F2CFBF92CF92DF92B5
:10094000EF92FF920F931F93CF93DF93982F97709F
:1009500021E030E0D90101C0AA0F9A95EAF792EFA1
:10096000980F01C0220F9A95EAF7FA2E8E3008F000
:10097000F22EF094962F9770E1E0F0E0EF0101C0C5
:10098000CC0F9A95EAF792EF960F01C0EE0F9A9569
:10099000EAF7EC2E6E3008F0EE2EE094DC2EBC2E42
:1009A0006E3008F0BE2ECA2E8E3008F42A2F58E082
:1009B00098EF980F38EF360FCFE0D0E0ABE2B0E021
:1009C000883030F0A5E2B0E0963010F0A8E2B0E058
:1009D0007C917F21ABE2B0E0883030F0A5E2B0E05E
:1009E000963010F0A8E2B0E07C93A42FB0E040FF76
:1009F0004AC00BE210E0683030F005E210E036301B
:100A000010F008E210E0F80140817D2D0BE210E0CB
:100A1000683038F07B2D05E210E0363010F008E247
:100A200010E0472BF8014083FE013197F1F7B595AF
:100A3000A7954A2FABE2B0E0883030F0A5E2B0E0F5
:100A4000963010F0A8E2B0E07C91FC2DABE2B0E073
:100A5000883038F0F22FA5E2B0E0963010F0A8E22E
:100A6000B0E07F2B7C93DE011197F1F7515009F034
:100A7000A5CFDF91CF911F910F91FF90EF90DF9065
:100A8000CF90BF9008950BE210E0683030F005E29F
:100A900010E0363010F008E210E0F80140814E21FD
:100AA0000BE210E0683008F4BDCF05E210E036300C
:100AB00008F4B8CF08E210E0B5CF1F93CF93DF93CF
:100AC000C82FD62F142F0E945504412F6D2F8C2F25
:100AD0000E949D046D2F8C2F0E946703182F6D2F8D
:100AE0008C2F0E94EB03812FDF91CF911F910895EE
:100AF000089590E080E00895FA01DB012C9130E048
:100B0000220F331F91E0811101C090E0892F822BC9
:100B10008F70DB018C93811103C010828081089556
:100B20008F30E1F781E08083F9CFFC0180819181F2
:100B3000009711F00C94E2100895FB010190002041
:100B4000E9F73197AF01461B570BDC01ED91FC91A2
:100B50000280F381E02D0994CF93DF93BC0181E4FF
:100B600096E00E949D05EC0167E475E081E496E063
:100B70000E949D058C0F9D1FDF91CF9108950F93CB
:100B80001F93CF93DF93EC0188819981009759F0EF
:100B90002A813B812617370730F081E0DF91CF9122
:100BA0001F910F9108958B016F5F7F4F0E946B1112
:100BB000009759F0998388831B830A832C813D8198
:100BC000232B59F7FC011082E8CF80E0E7CFEF92AA
:100BD000FF920F931F93CF93DF93EC017B018A0168
:100BE000BA010E94BF0528813981811114C02115E5
:100BF000310519F0C9010E94E210198218821D8284
:100C00001C821B821A82CE01DF91CF911F910F911E
:100C1000FF90EF9008951D830C83B701C9010E94D6
:100C20003112F1CF8F929F92AF92BF92DF92EF92EB
:100C3000FF920F931F93CF93DF9300D000D01F92AA
:100C4000CDB7DEB77C015B018A01D22EFC01868123
:100C50009A012D0D311D8217130608F458C0CE01DC
:100C600001964C0185E0F40111928A95E9F78D2DEA
:100C70008770806C8983CE0102960E942812F1E071
:100C8000FD1568F0F7019485D11024C002301105DC
:100C900008F18B819923E1F090E8892B8B830F5F1A
:100CA000F701D58014816D2D812F0E9455047401A8
:100CB0008E2D88198017B8F4F70141917F016D2DB1
:100CC000812F0E949D046D2D812F0E946703F0CF1C
:100CD00090E0E3CF8A81992321F090E8892B8A83E1
:100CE000DECF90E0FBCF6D2D812F0F900F900F90F6
:100CF0000F900F90DF91CF911F910F91FF90EF9088
:100D0000DF90BF90AF909F908F900C94EB03182FC3
:100D10001D19412F50E02D2DC7010E941206F70129
:100D20006285738590E080E00E94FB010D5F011BEE
:100D300011E0F7014681041790F050E0B501610F12
:100D4000711D20E0C7010E941206F70162857385BC
:100D500090E080E00E94FB0101501F5FEACF0F90FE
:100D60000F900F900F900F90DF91CF911F910F91E7
:100D7000FF90EF90DF90BF90AF909F908F9008957D
:100D8000CF93DF9300D000D0CDB7DEB719821A829F
:100D90001B821C8220E044E050E0BE016F5F7F4F69
:100DA0008EED96E00E9412061092E7060F900F90CB
:100DB0000F900F90DF91CF9108950F931F93CF93D2
:100DC000DF93CDB7DEB7C058D1090FB6F894DEBFB8
:100DD0000FBECDBF362F272F8A014138510510F0A5
:100DE00000E810E0BE016F5F7F4FA32FB22F9B0181
:100DF000A901461B570B4017510770F4ED9140E0D5
:100E0000E03234F00E2E000CFF0BE85BFF4F4491F4
:100E1000F90141939F01ECCFFC012185A8010E94BB
:100E20001206C801C058DF4F0FB6F894DEBF0FBEE0
:100E3000CDBFDF91CF911F910F910895EF92FF9257
:100E40001F93CF93DF93EC01162F89859E81F12CA0
:100E5000E12C891326C0BE01635F7F4F262FFB0163
:100E60009E2F921B981718F491819193F9CF898541
:100E700090E0E0E010323CF0E12F012E000CFF0B7F
:100E8000E85BFF4FE4918C0F9D1FDC011D96EC93F6
:100E90004E8150E020E0CE010E941206EE24E39441
:100EA000F12C49858E81481708F550E0E0E01032BA
:100EB00034F0E12F110FFF0BE85BFF4FE491DE01EF
:100EC000A40FB51F1D96EC934F5F5F4F20E0BE014E
:100ED000635F7F4FCE010E94120689858F5F843049
:100EE00008F083E08987BFEFEB1AFB0AC701DF91A7
:100EF000CF911F91FF90EF9008951F920F920FB620
:100F00000F9211242F933F938F939F93AF93BF938F
:100F10008091390690913A06A0913B06B0913C062B
:100F20003091380623E0230F2D3758F50196A11D87
:100F3000B11D209338068093390690933A06A0930A
:100F40003B06B0933C0680913D0690913E06A091F1
:100F50003F06B09140060196A11DB11D80933D064C
:100F600090933E06A0933F06B0934006BF91AF9189
:100F70009F918F913F912F910F900FBE0F901F90D7
:100F8000189526E8230F0296A11DB11DD2CF1F92FE
:100F90000F920FB60F9211242F933F934F935F93AD
:100FA0006F937F938F939F93AF93BF93EF93FF9331
:100FB00080911A0690911B06A0911C06B0911D0607
:100FC000892B8A2B8B2BD1F190911506E091160677
:100FD000F091170680818927808380911A0690916D
:100FE0001B06A0911C06B0911D06181619061A06BC
:100FF0001B069CF480911A0690911B06A0911C067A
:10100000B0911D060197A109B10980931A0690932A
:101010001B06A0931C06B0931D06FF91EF91BF9194
:10102000AF919F918F917F916F915F914F913F9180
:101030002F910F900FBE0F901F9018958091000177
:101040000E942E02EACF1F920F920FB60F92112428
:101050002F933F934F935F936F937F938F939F93C0
:10106000AF93BF93EF93FF9381E496E00E94D80281
:10107000FF91EF91BF91AF919F918F917F916F9170
:101080005F914F913F912F910F900FBE0F901F9046
:1010900018951F920F920FB60F9211242F938F93D2
:1010A0009F93EF93FF93E0915106F0915206808158
:1010B000E0915706F091580682FD1BC09081809107
:1010C0005A068F5F8F7320915B06821741F0E09183
:1010D0005A06F0E0EF5BF94F958F80935A06FF9127
:1010E000EF919F918F912F910F900FBE0F901F90B6
:1010F00018958081F4CF109244061092430688EE32
:1011000093E0A0E0B0E08093450690934606A0935C
:101110004706B09348068DE295E09093420680938F
:10112000410685EC90E090934E0680934D0684EC4A
:1011300090E09093500680934F0680EC90E090935F
:1011400052068093510681EC90E090935406809370
:10115000530682EC90E0909356068093550686ECF9
:1011600090E0909358068093570610925A0610927A
:101170005B0610925C0610925D061092E1061092DA
:10118000E0068FE395E09093DF068093DE0683E030
:101190008093E20684E08093E306539A549A5B9A24
:1011A000EBE2F0E0808190E1892B80831092E706EA
:1011B0008CE291E09093E9068093E8061092EA06AB
:1011C00084E68093E6064FE86091E3068091E206AC
:1011D0000E945D0540E46091E3068091E2060C9474
:1011E0005D05CF93DF93CDB7DEB7E3970FB6F894E5
:1011F000DEBF0FBECDBF789484B5826084BD84B558
:10120000816084BD85B5826085BD85B5816085BD01
:1012100080916E00816080936E00109281008091B9
:101220008100826080938100809181008160809341
:101230008100809180008160809380008091B10066
:1012400084608093B1008091B00081608093B00091
:1012500080917A00846080937A0080917A00826025
:1012600080937A0080917A00816080937A008091E7
:101270007A00806880937A001092C100E091510654
:10128000F091520682E08083E0914D06F0914E0687
:101290001082E0914F06F09150068FEC80831092FF
:1012A0005906E0915506F091560686E08083E0915C
:1012B0005306F0915406808180618083E09153064B
:1012C000F0915406808188608083E0915306F0910C
:1012D0005406808180688083E0915306F091540623
:1012E00080818F7D808360E082E00E943D0160E02C
:1012F00085E00E943D0161E08DE00E943D0161E0DA
:101300008CE00E943D0161E08BE00E943D0161E0C4
:1013100087E00E943D0161E088E00E943D0161E0BC
:1013200089E00E943D0161E08AE00E943D0161E0A8
:1013300083E00E943D0161E084E00E943D0184E081
:101340008093E40681E08093E5060E94C00684E66F
:101350008093E6064FE86091E3068091E2060E94E2
:101360005D0562E08EE00E943D0162E08FE00E9438
:101370003D0162E080E10E943D0162E081E10E9466
:101380003D0162E082E10E943D018E010F5F1F4F2F
:1013900018018EE00E94E60043E156E064E176E049
:1013A0000E947C05E0901206EE2019F091E0E82EF4
:1013B000E926809312068FE00E94E60040E156E0A5
:1013C00061E176E00E947C05F0900F06FF2019F0A5
:1013D00091E0F82EF92680930F0680E10E94E60046
:1013E0004DE056E06EE076E00E947C0500910C0630
:1013F000002311F001E0082780930C0681E10E9490
:10140000E6004AE056E06BE076E00E947C05109131
:101410000906112311F011E018278093090682E1D3
:101420000E94E60047E056E068E076E00E947C0516
:1014300090910606992311F091E098278093060673
:101440002091360630913706E110BBC4F110DAC4A2
:101450000111EAC41111EBC49111ECC4809133065F
:10146000E091320614E6819FC0011124E80FF92FA4
:10147000F11DEE0FFF1FEF5FFE4F808191810297FC
:1014800021F42130310509F4CAC42530310509F4AD
:10149000C6C42330310509F09DC4C1C490933506FC
:1014A000809334062430310509F094C4D8C41092D6
:1014B000320690C48130910509F08EC284E595E032
:1014C0000E94AC050E94C00669E575E08EED96E0CD
:1014D0000E949D0580913306E091320654E6859F77
:1014E000C0011124E80FF92FF11DEE0FFF1FEF5F70
:1014F000FE4F808191812FB7F89440913906509129
:101500003A0660913B0670913C0648AB59AB6AAB1A
:101510007BAB2FBF8130910509F043C040932E066D
:1015200050932F06609330067093310680913206F7
:101530008F5F809332060091360610913706013096
:10154000110509F4F9C38AE00E942E020430110546
:1015500009F0D7C361E08DE00E940F0160E08CE0EC
:101560000E940F016BE470E08BE00E94790161E062
:1015700087E00E940F0160E088E00E940F0162E3B3
:1015800070E089E00E94790180E090E0892B09F405
:1015900000CF0E94C402882309F4F7CE0E94000005
:1015A000F4CE8230910519F410923206C4CF4091E6
:1015B0002E0650912F06609130067091310608A9D1
:1015C00019A92AA93BA9041B150B260B370BB90136
:1015D000A801443F51406105710508F4ACCF039761
:1015E0008D31910508F0F4C1880F991FFC01E1517C
:1015F000FB4F008111811FA70EA70F3F1F4F09F45A
:10160000E7C1809100018A3009F0B9C0E8ECF0E050
:10161000149117FD78C161E08AE00E943D01112319
:1016200019F0123009F07EC14EA55FA54A01B12C18
:10163000A12C60E072E18AE790E0A50194010E948C
:10164000910F29013A017A01690151E0C51AD108C7
:10165000E108F1086FEFC616D104E104F10409F0C6
:101660000CF426C160E472E48FE090E0A5019401DF
:101670000E94910F69017A0171E0C71AD108E1084F
:10168000F108123009F0F0C08FEFC816D104E10460
:10169000F10409F00CF493C360E970ED83E090E08D
:1016A000A50194010E94910F69017A0191E0C91A84
:1016B000D108E108F10883E0AFEFCA16D104E104D4
:1016C000F10409F00CF454C068E478EE81E090E095
:1016D000A50194010E94910F69017A0101E0C01AED
:1016E000D108E108F10884E02FEFC216D104E1042B
:1016F000F104F1F1ECF164E274EF80E090E0A50117
:1017000094010E94910F69017A01F1E0CF1AD1088A
:10171000E108F10885E0BFEFCB16D104E104F10444
:1017200039F130F162E17AE780E090E0A5019401BF
:101730000E94910F69017A0191E0C91AD108E1086C
:10174000F10886E0AFEFCA16D104E104F10481F09C
:1017500078F0730162019AE0F594E794D794C79406
:101760009A95D1F7E1E0CE1AD108E108F10887E0B7
:101770009091B100987F892B8093B100A0C08F3FDA
:1017800009F0C1C08AE080930001E8ECF0E0E49148
:101790001E2FEF3F09F4B7C0E13021F150F0E230E5
:1017A00009F43FC0E7FDAFC061E08AE00E943D015F
:1017B00038CF14BC15BC84B5826084BD85B581600A
:1017C00085BDE1EFF0E0E491F0E0EE0FFF1FED5298
:1017D000FF4F85919491E5E0F1E0E491E0931906E3
:1017E00010E019CF1092800010928100809181004A
:1017F0008860809381008091810081608093810066
:10180000E1EFF0E0E491F0E0EE0FFF1FED52FF4F4B
:1018100085919491E5E0F1E0E491E093180611E000
:10182000FACE1092B0001092B1008091B0008260A8
:101830008093B0008091B10081608093B100E1EFAE
:10184000F0E0E491F0E0EE0FFF1FED52FF4F8591C5
:1018500094919093170680931606E5E0F1E0E491E9
:10186000E093150612E0D7CEBFEFCB16D104E1040A
:10187000F10409F00CF454C068E478EE81E090E0E3
:10188000A50194010E94910F69017A01E1E0CE1A4D
:10189000D108E108F10884E011113DCF8FEFC8169F
:1018A000D104E104F10411F00CF061C283E003C043
:1018B00081E011115DCF95B5987F892B85BD2EA54F
:1018C0003FA5220F331FA4EFB1E00E94091028EEBC
:1018D00033E040E050E00E94E70F113009F456C0B9
:1018E000123009F465C011110EC0C7BC2093220646
:1018F00030932306409324065093250680916E0072
:10190000826080936E0008A919A92AA93BA90093B7
:101910002E0610932F06209330063093310606CE04
:1019200082E0C7CF2EA53FA54901B12CA12C60E0D4
:1019300072E18AE790E0A5010E94910F69017A01A6
:1019400061E0C61AD108E108F10891E0C114D104A0
:1019500071E0E706F10484F068E478EE81E090E05D
:10196000A50194010E94910F69017A0181E0C81AD2
:10197000D108E108F10893E0113009F0A0CF80917F
:101980008100887F892B8093810099CFD092890034
:10199000C092880020931E0630931F0640932006B5
:1019A0005093210680916F00826080936F00ABCFCF
:1019B000C092B30020931A0630931B0640931C0676
:1019C00050931D06809170008260809370009BCFC1
:1019D0008AE00E942E0297CF8230910549F48EE56D
:1019E00095E00E94AC050E94C00664E675E005C261
:1019F0008330910599F489E695E00E94AC050E9438
:101A0000C00661E775E08EED96E00E949D0568EEE8
:101A100073E080E090E00E94FB01C6CD8430910528
:101A200009F0C8C00E94C00666E775E08EED96E03A
:101A30000E949D05C0903206D090330682E00E943D
:101A4000E600082F85E00E94E600182F4CE256E0E1
:101A50006DE276E0802F0E947C05B82E4AE256E0C7
:101A60006BE276E0812F0E947C0590912606911111
:101A700002C0B11003C0B09226065DCD21E02093D4
:101A8000260600912906000F082B0F7300932906E4
:101A9000809128068F5F8093280630E020E061E087
:101AA00010E0A801022E02C0559547950A94E2F76E
:101AB000417064272F5F3F4F2830310591F766232F
:101AC000E1F015950795013011F58BE795E00E943F
:101AD000AC0581E0809327061092280614E6D19E7B
:101AE000F0011124EC0DF11DEE0FFF1FEF5FFE4F13
:101AF00021E030E0318320839B2D809128068630C1
:101B000010F010922806992309F415CD0FCD2091DD
:101B10002706222391F3863081F702301105A9F4BC
:101B2000109227061092280685E995E00E94AC05E0
:101B3000B4E6DB9EF0011124EC0DF11DEE0FFF1F4A
:101B4000EF5FFE4F11830083D7CF0115110519F404
:101B50008DEA95E0EBCF66EC75E081E496E00E94BB
:101B60009D059801012E000C440B550B19A27E0116
:101B700061E2E60EF11CCA01B9012AE030E040E062
:101B800050E00E94E70F605DD7016E937D01211543
:101B900031054105510579F7109729F0BD0181E420
:101BA00096E00E949D0567E475E081E496E00E945E
:101BB0009D05BECF8530910509F093C086ED95E077
:101BC0000E94AC050E94C0068091330690E01BA2E3
:101BD0001AA21DA21CA21FA21EA24AE0B1010196D8
:101BE0000E945C0FF10101900020E9F73197AF01ED
:101BF00042195309B101CE0182960E94E7051A826B
:101C000019821C821B821E821D8242E050E060EE1F
:101C100075E0C1010E94E705EAA0FBA0E114F10410
:101C200009F452C00EA11FA101151105B1F08D815B
:101C30009E81080F191FB801C1010E94BF058823AA
:101C400009F442C029813A818D819E81B701820FBA
:101C5000931F0E9431121E830D8319A618A61BA67E
:101C60001AA61DA61CA669817A816115710531F03D
:101C70004D815E81CE0188960E94E705C1010E94D8
:101C80009505CE0182960E9495054CA55DA568A597
:101C900079A58EED96E00E94DD0668EE73E080E0A7
:101CA00090E00E94FB018091330690E0019665E090
:101CB00070E00E9418108093330610923206CE0115
:101CC00088960E94950537CC89819A81009711F0FA
:101CD0000E94E2101A8219821E821D821C821B82BF
:101CE000BCCF069749F483EE95E00E94AC050E94B4
:101CF000C00661EF75E081C086EF95E00E94AC05FB
:101D00001ACC06301105C1F460E08DE00E940F018D
:101D100061E08CE00E940F0162E370E08BE00E94C2
:101D2000790160E087E00E940F0161E088E00E9495
:101D30000F016BE470E025CC70E060E08BE00E9466
:101D4000790160E08DE00E940F0160E08CE00E946C
:101D50000F0170E060E089E00E94790160E087E0B7
:101D60000E940F0160E088E00E940F010DCC62E14B
:101D70007AE780E090E0A50194010E94910F69014B
:101D80007A0161E0C61AD108E108F10884E07FEF2A
:101D9000C716D104E104F10409F008F48CCD7301F5
:101DA00062018AE0F594E794D794C7948A95D1F7B5
:101DB000F1E0CF1AD108E108F10885E07CCD82E09E
:101DC000D7CC21303105C9F522E030E0309335061B
:101DD000209334068091340690913506909337060F
:101DE00080933606009709F065CB8AE495E00E945F
:101DF000AC050E94C0066FE475E08EED96E00E948F
:101E00009D0599CB86E090E02130310509F446CB61
:101E100026303105C1F48630910509F03FCB109290
:101E2000350610923406D6CF83E090E0EDCF84E003
:101E300090E0EACF85E090E0E7CF81E090E02630C7
:101E4000310509F42BCB2430310509F027CB843040
:101E5000910509F023CB109235061092340680913B
:101E60003306E0913206F0E034E6839FC00111248E
:101E7000DC01AE0FBF1FAA0FBB1FAF5FBE4F2D917E
:101E80003C912230310559F03196E80FF91FEE0FE1
:101E9000FF1FEF5FFE4F42E050E05183408380918F
:101EA0003406909135068430910509F000CB90936B
:101EB000370680933606B6CDBB274A3031F49923D6
:101EC00022F4BDE2909581959F4F0C94680FBB273B
:101ED000FB015527AA27880F991FAA1FA41710F0E6
:101EE000A41B83955051B9F7A05DAA3308F0A95DF2
:101EF000A193009779F7B111B1931192CB010C9492
:101F0000810FDC01FC01672F71917723E1F7329794
:101F100004C07C916D9370836291AE17BF07C8F3C4
:101F20000895052E97FB1EF400940E94A80F57FDFC
:101F300007D00E94E70F07FC03D04EF40C94A80FC3
:101F400050954095309521953F4F4F4F5F4F0895E5
:101F500090958095709561957F4F8F4F9F4F089515
:101F60002F923F924F925F926F927F928F929F92A9
:101F7000AF92BF92CF92DF92EF92FF920F931F9397
:101F8000CF93DF93CDB7DEB7CA1BDB0B0FB6F89448
:101F9000DEBF0FBECDBF09942A88398848885F8488
:101FA0006E847D848C849B84AA84B984C884DF80F9
:101FB000EE80FD800C811B81AA81B981CE0FD11DDD
:101FC0000FB6F894DEBF0FBECDBFED010895A1E2BC
:101FD0001A2EAA1BBB1BFD010DC0AA1FBB1FEE1FA3
:101FE000FF1FA217B307E407F50720F0A21BB30BEE
:101FF000E40BF50B661F771F881F991F1A9469F76A
:1020000060957095809590959B01AC01BD01CF01C5
:102010000895A29FB001B39FC001A39F700D811DC1
:102020001124911DB29F700D811D1124911D0895E1
:1020300097FB072E16F4009407D077FD09D00E9475
:102040002C1007FC05D03EF4909581959F4F089584
:10205000709561957F4F0895AA1BBB1B51E107C086
:10206000AA1FBB1FA617B70710F0A61BB70B881F28
:10207000991F5A95A9F780959095BC01CD010895B7
:10208000EE0FFF1F0590F491E02D09940F931F931D
:10209000CF93DF938230910510F482E090E0E091DD
:1020A000F106F091F20630E020E0B0E0A0E03097D9
:1020B00099F42115310509F44AC0281B390B243045
:1020C0003105D8F58A819B816115710589F1FB0184
:1020D00093838283FE0111C040815181028113816B
:1020E00048175907E0F04817590799F4109761F01D
:1020F00012960C93129713961C933296CF01DF9190
:10210000CF911F910F9108950093F1061093F2065D
:10211000F4CF2115310551F04217530738F0A901CA
:10212000DB019A01BD01DF01F801C1CFEF01F9CF59
:102130009093F2068093F106CDCFFE01E20FF31FDC
:10214000819391932250310939832883D7CF2091ED
:10215000EF063091F006232B41F42091EB043091EF
:10216000EC043093F0062093EF062091E9043091BF
:10217000EA042115310541F42DB73EB74091ED0435
:102180005091EE04241B350BE091EF06F091F00620
:10219000E217F307A0F42E1B3F0B2817390778F03E
:1021A000AC014E5F5F4F2417350748F04E0F5F1F9D
:1021B0005093F0064093EF06819391939FCFF0E008
:1021C000E0E09CCFCF93DF930097E9F0FC013297DA
:1021D00013821282A091F106B091F206ED0130E077
:1021E00020E01097A1F420813181820F931F20916C
:1021F000EF063091F0062817390709F061C0F09317
:10220000F006E093EF06DF91CF910895EA01CE1733
:10221000DF07E8F54A815B819E0141155105B1F761
:10222000E901FB83EA8349915991C40FD51FEC174B
:10223000FD0761F4808191810296840F951FE90169
:1022400099838883828193819B838A83F0E0E0E095
:1022500012968D919C9113970097B9F52D913C9111
:102260001197CD010296820F931F2091EF063091B6
:10227000F0062817390739F6309751F51092F20613
:102280001092F106B093F006A093EF06BCCFD38373
:10229000C28340815181840F951FC817D90761F40B
:1022A0004E5F5F4F88819981480F591F518340834A
:1022B0008A819B81938382832115310509F0B0CFF8
:1022C000F093F206E093F1069ECFFD01DC01C0CF52
:1022D00013821282D7CFB0E0A0E0E1E7F1E10C94E5
:1022E000B20F8C01009751F4CB010E9446108C0173
:1022F000C801CDB7DEB7E0E10C94CE0FFC01E60FCC
:10230000F71F9C0122503109E217F30708F49DC022
:10231000D901CD91DC911197C617D70798F0C53038
:10232000D10530F3CE0104978617970708F3C61B33
:10233000D70B2297C193D1936D937C93CF010E94C9
:10234000E210D6CF5B01AC1ABD0A4C018C0E9D1E6B
:10235000A091F106B091F206512C412CF12CE12C08
:10236000109731F58091EF069091F0068815990548
:1023700009F05CC04616570608F058C08091E90481
:102380009091EA04009741F48DB79EB74091ED0417
:102390005091EE04841B950BE817F90708F055C01F
:1023A000F093F006E093EF06F90171836083A0CF0C
:1023B0008D919C91119712966C90129713967C9028
:1023C0001397A815B90559F56C0142E0C40ED11C4C
:1023D000CA14DB0420F1AC014A195B09DA01129638
:1023E000159780F06282738251834083D9016D9387
:1023F0007C93E114F10471F0D7011396FC93EE93F2
:10240000129776CF22968C0F9D1FF90191838083BE
:10241000F301EFCFF093F206E093F10669CF48168F
:10242000590608F42C017D01D3019ACFCB010E94FB
:1024300046107C01009749F0AE01B8010E942812B5
:10244000C8010E94E210870153CF10E000E050CF96
:10245000FB01DC0102C001900D9241505040D8F7C1
:102460000895FB01DC0101900D920020E1F7089531
:10247000F894FFCFFF020000000000000000000001
:10248000000000000000000000000000000000004C
:10249000000000000000000000000000000000003C
:1024A000000000000000000000000000000000002C
:1024B000000000000000000000000000000000001C
:1024C000000000000000000000000000000000000C
:1024D00000000000000000000000000000000000FC
:1024E00000000000000000000000000000000000EC
:1024F00000000000000000000000000000000000DC
:1025000000000000000000000000000000000000CB
:1025100000000000000000000000000000000000BB
:1025200000000000000000000000000000000000AB
:102530000000000000000000000000000002000099
:10254000000000000000000000000000000000008B
:10255000000000000000000000000000000000007B
:10256000000000000000000000000000000000006B
:10257000000000000000000000000000000000005B
:10258000000000000000000000000000000000004B
:10259000000000000000000000000000000000003B
:1025A000000000000000000000000000000000002B
:1025B000000000000000000000000000000000001B
:1025C000000000000000000000000000000000000B
:1025D00000000000000000000000000000000000FB
:1025E00000000000000000000000000000000000EB
:1025F00000000000000000000000000000000000DB
:1026000000000000000200000000000000000000C8
:1026100000000000000000000000000000000000BA
:1026200000000000000000000000000000000000AA
:10263000000000000000000000000000000000009A
:10264000000000000000000000000000000000008A
:10265000000000000000000000000000000000007A
:10266000000000000000000000000000000000006A
:10267000000000000000000000000000000000005A
:10268000000000000000000000000000000000004A
:10269000000000000000000000000000000000003A
:1026A000000000000000000000000000000000002A
:1026B000000000000000000000000000000000001A
:1026C0000000000000000000000000000002000008
:1026D00000000000000000000000000000000000FA
:1026E00000000000000000000000000000000000EA
:1026F00000000000000000000000000000000000DA
:1027000000000000000000000000000000000000C9
:1027100000000000000000000000000000000000B9
:1027200000000000000000000000000000000000A9
:102730000000000000000000000000000000000099
:102740000000000000000000000000000000000089
:102750000000000000000000000000000000000079
:102760000000000000000000000000000000000069
:102770000000000000000000000000000000000059
:102780000000000000000000000000000000000049
:102790000000000000020000000000000000000037
:1027A0000000000000000000000000000000000029
:1027B0000000000000000000000000000000000019
:1027C0000000000000000000000000000000000009
:1027D00000000000000000000000000000000000F9
:1027E00000000000000000000000000000000000E9
:1027F00000000000000000000000000000000000D9
:1028000000000000000000000000000000000000C8
:1028100000000000000000000000000000000000B8
:1028200000000000000000000000000000000000A8
:102830000000000000000000000000000000000098
:102840000000000000000000000000000000000088
:10285000000000000000000000000000000000F385
:102860000680006E0074007B0082008A0092009B4C
:1028700000A400AE00B900C400CF00DC00E900F6FF
:1028800000050115012501370149015D017201882B
:10289000019F01B801D201ED010B022A02000000E4
:1028A00000FA025A0287024703B8029602AA0200FF
:1028B0000000001E07DD06790578050D0A00696431
:1028C0006C650049444C4500706C617900504C4186
:1028D00059007061757365005041555300726573FE
:1028E0007461727400524553540052454144005281
:1028F00065636569766564205354415254206E6F58
:10290000746520636F64652E005265636569766542
:102910006420454E44206E6F746520636F64652E9D
:102920000052656365697665642049444C45206EB4
:102930006F746520636F64652E0052656365697608
:102940006564206E6F74653A20007365742074723C
:1029500061636B005452006D6F746F722072657604
:1029600065727365005245564D007374617465203D
:0A297000657863657074696F6E008E
:107E0000112484B714BE81FFF0D085E080938100F7
:107E100082E08093C00088E18093C10086E0809377
:107E2000C20080E18093C4008EE0C9D0259A86E02C
:107E300020E33CEF91E0309385002093840096BBD3
:107E4000B09BFECF1D9AA8958150A9F7CC24DD24C4
:107E500088248394B5E0AB2EA1E19A2EF3E0BF2EE7
:107E6000A2D0813461F49FD0082FAFD0023811F036
:107E7000013811F484E001C083E08DD089C08234E0
:107E800011F484E103C0853419F485E0A6D080C0E4
:107E9000853579F488D0E82EFF2485D0082F10E0AE
:107EA000102F00270E291F29000F111F8ED06801E7
:107EB0006FC0863521F484E090D080E0DECF843638
:107EC00009F040C070D06FD0082F6DD080E0C81688
:107ED00080E7D80618F4F601B7BEE895C0E0D1E017
:107EE00062D089930C17E1F7F0E0CF16F0E7DF06D8
:107EF00018F0F601B7BEE89568D007B600FCFDCFD4
:107F0000A601A0E0B1E02C9130E011968C91119780
:107F100090E0982F8827822B932B1296FA010C0160
:107F200087BEE89511244E5F5F4FF1E0A038BF0790
:107F300051F7F601A7BEE89507B600FCFDCF97BE46
:107F4000E89526C08437B1F42ED02DD0F82E2BD052
:107F50003CD0F601EF2C8F010F5F1F4F84911BD097
:107F6000EA94F801C1F70894C11CD11CFA94CF0C13
:107F7000D11C0EC0853739F428D08EE10CD085E9AC
:107F80000AD08FE07ACF813511F488E018D01DD067
:107F900080E101D065CF982F8091C00085FFFCCF94
:107FA0009093C60008958091C00087FFFCCF809118
:107FB000C00084FD01C0A8958091C6000895E0E648
:107FC000F0E098E1908380830895EDDF803219F02E
:107FD00088E0F5DFFFCF84E1DECF1F93182FE3DFCA
:107FE0001150E9F7F2DF1F91089580E0E8DFEE27F6
:047FF000FF270994CA
:027FFE00040479
:00000001FF
