:100000000C9463000C948B000C948B000C948B006C
:100010000C948B000C948B000C948B000C94CC02F1
:100020000C948B000C948B000C948B000C948B0024
:100030000C948B000C948B000C948B000C948B0014
:100040000C9482020C948B000C944E030C942803A5
:100050000C948B000C948B000C948B000C948B00F4
:100060000C948B000C948B000200000000250028EB
:10007000002B0000000000240027002A00000000E0
:1000800000230026002900040404040404040402DC
:100090000202020202030303030303010204081025
:1000A00020408001020408102001020408102000F2
:1000B0000000080002010000030407000000000027
:1000C00000000000550711241FBECFEFD8E0DEBFAF
:1000D000CDBF15E0A0E0B1E0E4EBFFE002C0059089
:1000E0000D92A633B107D9F726E0A6E3B5E001C02B
:1000F0001D92A130B207E1F710E0C3E6D0E004C0E2
:100100002197FE010E94D207C236D107C9F70E948B
:1001100080030C94D8070C940000833081F028F4FD
:10012000813099F08230A9F008958730A9F08830A5
:10013000C9F08430B1F4809180008F7D03C080913C
:1001400080008F7780938000089584B58F7784BD79
:10015000089584B58F7DFBCF8091B0008F77809319
:10016000B00008958091B0008F7DF9CFCF93DF93D9
:10017000282F30E0F901E155FF4F8491F901E55650
:10018000FF4FD491F901E957FF4FC491CC23A1F05F
:1001900081110E948D00EC2FF0E0EE0FFF1FE3585D
:1001A000FF4FA591B491EC91ED2381E090E009F42B
:1001B00080E0DF91CF91089580E090E0FACFCF9377
:1001C000DF9390E0FC01E556FF4F249189579F4F44
:1001D000FC0184918823C9F090E0880F991FFC01ED
:1001E000ED58FF4FA591B491FC01E759FF4FC59120
:1001F000D49161110DC09FB7F8948C912095822302
:100200008C938881282328839FBFDF91CF91089505
:10021000623051F49FB7F8943C91822F80958323EC
:100220008C93E8812E2BEFCF8FB7F894EC912E2B87
:100230002C938FBFEACFCF93DF9390910001891366
:100240000BC0E8E6F0E0E4919FEF90930001E1300D
:1002500059F138F1E23071F1282F30E0F901E15520
:10026000FF4F8491F901E556FF4FD491F901E95709
:10027000FF4FC491CC2391F081110E948D00EC2F8F
:10028000F0E0EE0FFF1FE759FF4FA591B4918FB734
:10029000F894EC91D095DE23DC938FBFDF91CF9162
:1002A000089510926E00D8CF90916F009D7F90932B
:1002B0006F00D2CF909170009D7F9093700091E07D
:1002C0009093B0009091B100987F94609093B100AA
:1002D0001092B300C1CFAF92BF92CF92DF92EF9254
:1002E000FF920F931F93CF93DF936C017B018B01E0
:1002F000040F151FEB015E01AE18BF08C017D10730
:1003000059F06991D601ED91FC910190F081E02DB9
:10031000C6010995892B79F7C501DF91CF911F910E
:100320000F91FF90EF90DF90CF90BF90AF90089526
:10033000FC01538D448D252F30E0842F90E0821BEB
:10034000930B541710F0CF96089501970895FC0170
:10035000918D828D981761F0A28DAE0FBF2FB11DC8
:100360005D968C91928D9F5F9F73928F90E0089520
:100370008FEF9FEF0895FC01918D828D981731F0DA
:10038000828DE80FF11D858D90E008958FEF9FEF2E
:100390000895FC01918D228D892F90E0805C9F4F04
:1003A000821B91098F739927089586E395E00E9437
:1003B000C90121E0892B09F420E0822F089580E013
:1003C00090E0892B29F00E94D50181110C94000046
:1003D0000895FC01A48DA80FB92FB11DA35ABF4FDA
:1003E0002C91848D90E001968F739927848FA68934
:1003F000B7892C93A089B1898C91837080648C9388
:10040000938D848D981306C00288F389E02D808136
:100410008F7D80830895EF92FF920F931F93CF9368
:10042000DF93EC0181E0888F9B8D8C8D98131AC02F
:10043000E889F989808185FF15C09FB7F894EE8916
:10044000FF896083E889F989808183708064808373
:100450009FBF81E090E0DF91CF911F910F91FF90BE
:10046000EF900895F62E0B8D10E00F5F1F4F0F7366
:100470001127E02E8C8D8E110CC00FB607FCFACF21
:10048000E889F989808185FFF5CFCE010E94E901D5
:10049000F1CFEB8DEC0FFD2FF11DE35AFF4FF082F2
:1004A0009FB7F8940B8FEA89FB8980818062CFCF58
:1004B000CF93DF93EC01888D8823B9F0AA89BB899B
:1004C000E889F9898C9185FD03C0808186FD0DC086
:1004D0000FB607FCF7CF8C9185FFF2CF808185FFA7
:1004E000EDCFCE010E94E901E9CFDF91CF910895D0
:1004F000660F682B29F06F3F11F481E090E00895BA
:1005000080E0FCCF1F920F920FB60F9211242F9311
:100510003F938F939F93AF93BF938091FD059091ED
:10052000FE05A091FF05B09100063091FC0523E087
:10053000230F2D3758F50196A11DB11D2093FC0501
:100540008093FD059093FE05A093FF05B0930006F0
:100550008091F8059091F905A091FA05B091FB05FD
:100560000196A11DB11D8093F8059093F905A09304
:10057000FA05B093FB05BF91AF919F918F913F9189
:100580002F910F900FBE0F901F90189526E8230F04
:100590000296A11DB11DD2CF1F920F920FB60F92DE
:1005A00011242F933F934F935F936F937F938F9378
:1005B0009F93AF93BF93EF93FF938091D805909152
:1005C000D905A091DA05B091DB05892B8A2B8B2BFD
:1005D000D1F19091D305E091D405F091D5058081BA
:1005E000892780838091D8059091D905A091DA055B
:1005F000B091DB05181619061A061B069CF48091AB
:10060000D8059091D905A091DA05B091DB05019745
:10061000A109B1098093D8059093D905A093DA0573
:10062000B093DB05FF91EF91BF91AF919F918F91B7
:100630007F916F915F914F913F912F910F900FBEDE
:100640000F901F901895809100010E941B01EACF26
:100650001F920F920FB60F9211242F933F934F9337
:100660005F936F937F938F939F93AF93BF93EF931A
:10067000FF9386E395E00E94E901FF91EF91BF911E
:10068000AF919F918F917F916F915F914F913F912A
:100690002F910F900FBE0F901F9018951F920F92E1
:1006A0000FB60F9211242F938F939F93EF93FF9385
:1006B000E0914605F09147058081E0914C05F0916D
:1006C0004D0582FD1BC0908180914F058F5F8F7318
:1006D00020915005821741F0E0914F05F0E0EA5C6F
:1006E000FA4F958F80934F05FF91EF919F918F91D6
:1006F0002F910F900FBE0F901F9018958081F4CF0F
:10070000CF93DF9300D000D01F92CDB7DEB778949F
:1007100084B5826084BD84B5816084BD85B5826006
:1007200085BD85B5816085BD80916E0081608093B7
:100730006E00109281008091810082608093810020
:100740008091810081608093810080918000816030
:10075000809380008091B10084608093B10080918B
:10076000B00081608093B00080917A0084608093B3
:100770007A0080917A00826080937A0080917A007A
:10078000816080937A0080917A00806880937A00FB
:100790001092C100E0914605F091470582E0808308
:1007A000E0914205F09143051082E0914405F091FB
:1007B00045058FEC808310924E05E0914A05F0913B
:1007C0004B0586E08083E0914805F09149058081E2
:1007D00080618083E0914805F091490580818860BF
:1007E0008083E0914805F09149058081806880838D
:1007F000E0914805F091490580818F7D808360E01C
:1008000082E00E94DF0060E085E00E94DF0061E09E
:100810008BE00E94DF0061E08CE00E94DF0061E07D
:100820008DE00E94DF0061E087E00E94DF0061E070
:1008300088E00E94DF0061E089E00E94DF0061E063
:100840008AE00E94DF0061E083E00E94DF0061E057
:1008500084E00E94DF0062E08EE00E94DF0062E040
:100860008FE00E94DF0062E080E10E94DF0062E032
:1008700081E10E94DF0062E082E10E94DF00B5EAD0
:100880002B2EB0E03B2E8091F6059091F705009756
:1008900009F46AC0029709F473C05091EC055983BA
:1008A0008EE00E94B60069810E9478024C0190930C
:1008B000ED058093EC056091EA0569838FE00E9465
:1008C000B60069810E9478025C019093EB058093E9
:1008D000EA057091E805798380E10E94B60069819C
:1008E0000E9478026C019093E9058093E80580915D
:1008F000E605898381E10E94B60069810E94780241
:100900007C019093E7058093E6059091E405998337
:1009100082E10E94B60069810E9478029093E50509
:100920008093E405892809F05BC2AB2809F05BC21B
:10093000CD2809F05BC2EF2809F05BC2892B09F4CE
:100940005BC285E090E09093F5058093F40580E02C
:1009500090E0892B09F497CF0E94D501882309F4F0
:100960008ECF0E9400008BCF8091F4059091F50509
:10097000009709F492CF9093F7058093F6058DCFF9
:10098000E091F205F091F305EE0FFF1FE35BFE4FE0
:10099000208131818FB7F8944090FD055090FE057D
:1009A0006090FF05709000068FBF2130310591F4F3
:1009B0004092EE055092EF056092F0057092F105BD
:1009C0008091F2059091F30501969093F305809341
:1009D000F20507C02230310589F41092F305109218
:1009E000F2058091F4059091F505009721F642E01B
:1009F00050E05093F7054093F6054FCF2115310590
:100A000081F38091EE059091EF05A091F005B091F2
:100A1000F105B301A201481B590B6A0B7B0BDB01EB
:100A2000CA01843F9140A105B105D8F22350310994
:100A30002D31310508F0D0C1220F331FF901ED5ED1
:100A4000FE4F008111810F3F100709F4C5C180914D
:100A500000018A3009F07CC0E8E6F0E0F491FD8303
:100A6000F7FDA6CF61E08AE00E94DF00FD81FF2351
:100A700021F04D81423009F05AC14801B12CA12C1E
:100A800060E072E18AE790E0A50198010E94A40766
:100A900029833A834B835C8369017A0151E0C51A4B
:100AA000D108E108F1086FEFC616D104E104F104A2
:100AB00009F00CF40DC160E472E48FE090E0A50150
:100AC00098010E94A40769017A0171E0C71AD10850
:100AD000E108F1088D81823009F0AEC082E09FEF1D
:100AE000C916D104E104F10409F00CF4D7C160E99E
:100AF00070ED83E090E0A50198010E94A4076901D0
:100B00007A01E1E0CE1AD108E108F10883E0FFEFB5
:100B1000CF16D104E104F10409F00CF4BFC168E47C
:100B200078EE81E090E0A50198010E94A407690198
:100B30007A0171E0C71AD108E108F1088FEFC816F1
:100B4000D104E104F10411F00CF09AC084E0A6C1D4
:100B50008F3F09F02DCF8AE080930001E8E6F0E0B6
:100B6000F491FD83FF3F09F423CFF13029F158F0D0
:100B7000F23009F43FC0ED81E7FD1ACF61E08AE071
:100B80000E94DF0076CF14BC15BC84B5826084BDA2
:100B900085B5816085BDE1E9F0E08491E82FF0E062
:100BA000EE0FFF1FE759FF4F85919491F10184915A
:100BB0008093D7051D8256CF10928000109281003D
:100BC00080918100886080938100809181008160A4
:100BD00080938100E1E9F0E08491E82FF0E0EE0FEE
:100BE000FF1FE759FF4F85919491F1018491809304
:100BF000D60538CF1092B0001092B1008091B000AD
:100C000082608093B0008091B10081608093B100D8
:100C1000E1E9F0E08491E82FF0E0EE0FFF1FE759E3
:100C2000FF4F859194919093D5058093D405F10160
:100C300084918093D30516CF4FEFC416D104E104FD
:100C4000F10409F00CF471C068E478EE81E090E002
:100C5000A50198010E94A40769017A0161E0C61A02
:100C6000D108E108F1087D81772309F4E3C0EFEFB3
:100C7000CE16D104E104F10409F00CF467CFE3C00F
:100C800064E274EF80E090E0A50194010E94A40763
:100C900069017A0181E0C81AD108E108F10885E00C
:100CA0009FEFC916D104E104F10409F008F4F6C07D
:100CB00062E17AE780E090E0A50194010E94A40738
:100CC00069017A01F1E0CF1AD108E108F108CDC03D
:100CD00081E04D814111E2C095B5987F892B85BD9A
:100CE0009801220F331FA4EFB1E00E94C30728EE42
:100CF00033E040E050E00E948207FD81F13009F4CA
:100D000049C0F23009F458C0F11152CEC7BC20934B
:100D1000E0053093E1054093E2055093E3058091AF
:100D20006E00826080936E0043CE82E0D2CFB12C01
:100D3000A12C60E072E18AE790E0A50198010E9491
:100D4000A40769017A0161E0C61AD108E108F10837
:100D500091E0C114D10471E0E706F10484F068E485
:100D600078EE81E090E0A50198010E94A407690156
:100D70007A0181E0C81AD108E108F10893E0ED8119
:100D8000E13009F0ADCF80918100887F892B80937D
:100D90008100A6CFD0928900C09288002093DC0504
:100DA0003093DD054093DE055093DF0580916F00A1
:100DB000826080936F00FCCDC092B3002093D80571
:100DC0003093D9054093DA055093DB05809170008C
:100DD000826080937000ECCD8AE00E941B01E8CD18
:100DE00082E090E0B0CD83E090E0ADCD84E090E093
:100DF000AACD81E090E0A7CD90E080E0A4CD84E092
:100E00004FEFC416D104E104F10409F008F464CFF3
:100E1000C980DA80EB80FC809AE0F594E794D7945F
:100E2000C7949A95D1F7F1E0CF1AD108E108F108FB
:100E300085E052CF83E09FEFC916D104E104F104AD
:100E400009F00CF449CF62E17AE780E090E0A50177
:100E500094010E94A40769017A01E1E0CE1AD10849
:100E6000E108F108FD81FF2351F286E06FEFC6161D
:100E7000D104E104F10491F088F0C980DA80EB80BC
:100E8000FC808AE0F594E794D794C7948A95D1F7CB
:100E900051E0C51AD108E108F10887E09091B1004E
:100EA000987F892B8093B1001BCFE6E3F5E0138296
:100EB000128288EE93E0A0E0B0E084839583A6835D
:100EC000B78385E091E09183808385EC90E09587FE
:100ED000848784EC90E09787868780EC90E0918B04
:100EE000808B81EC90E0938B828B82EC90E0958BF1
:100EF000848B86EC90E0978B868B118E128E138EEE
:100F0000148E0895A1E21A2EAA1BBB1BFD010DC071
:100F1000AA1FBB1FEE1FFF1FA217B307E407F507A9
:100F200020F0A21BB30BE40BF50B661F771F881F85
:100F3000991F1A9469F760957095809590959B011B
:100F4000AC01BD01CF010895052E97FB1EF400945E
:100F50000E94BB0757FD07D00E94820707FC03D001
:100F60004EF40C94BB0750954095309521953F4F1A
:100F70004F4F5F4F089590958095709561957F4F85
:100F80008F4F9F4F0895A29FB001B39FC001A39FB1
:100F9000700D811D1124911DB29F700D811D1124B2
:100FA000911D0895EE0FFF1F0590F491E02D099417
:040FB000F894FFCFE3
:100FB400FF000000000B026B0198015802C901A751
:100FC40001BB016E0074007B0082008A0092009BCA
:100FD40000A400AE00B900C400CF00DC00E900F6B4
:100FE40000050115012501370149015D01720188E0
:100FF400019F01B801D201ED010B022A0200000099
:1010040000000000000000000000000000000000DC
:1010140000000000000000000000000000000000CC
:1010240000000000000000000000000000000000BC
:1010340000000000000000000000000000000000AC
:0613E40000000000000003
:00000001FF
