:020000040000FA
:100000000C9493000C94BB000C94BB000C94BB00AC
:100010000C94BB000C94BB000C94BB000C946007C8
:100020000C94BB000C94BB000C94BB000C94BB0064
:100030000C94BB000C94BB000C94BB000C94BB0054
:100040000C9416070C94BB000C94E2070C94BC07AC
:100050000C94BB000C94BB000C94BB000C94BB0034
:100060000C94BB000C94BB00000622766D247F200C
:10007000390F5C50104008063F065B4F666D7D07E8
:100080007F6F303058484C535F777F395E79713DD0
:1000900076060E753815373F7367336D783E1C2A28
:1000A000766E5B39300F1308105F7C585E7B716F82
:1000B00074040C753015545C7367506D781C1C2AE1
:1000C00076665B79064F400002000000002500289C
:1000D000002B0000000000240027002A0000000080
:1000E000002300260029000404040404040404027C
:1000F00002020202020303030303030102040810C5
:100100002040800102040810200102040810200091
:1001100000000800020100000304070000000000C6
:1001200000000000140811241FBECFEFD8E0DEBF8E
:10013000CDBF15E0A0E0B1E0E4E0FAE102C0059037
:100140000D92AC35B107D9F726E0ACE5B5E001C0BA
:100150001D92AC33B207E1F710E0C3E9D0E004C070
:100160002197FE010E94F10CC239D107C9F70E9404
:100170008A080C94000D0C940000833081F028F460
:10018000813099F08230A9F008958730A9F0883045
:10019000C9F08430B1F4809180008F7D03C08091DC
:1001A00080008F7780938000089584B58F7784BD19
:1001B000089584B58F7DFBCF8091B0008F778093B9
:1001C000B00008958091B0008F7DF9CFCF93DF9379
:1001D000282F30E0F901E15FFE4F8491F901E550ED
:1001E000FF4FD491F901E951FF4FC491CC23A1F005
:1001F00081110E94BD00EC2FF0E0EE0FFF1FE352D3
:10020000FF4FA591B491EC91ED2381E090E009F4CA
:1002100080E0DF91CF91089580E090E0FACFCF9316
:10022000DF9390E0FC01E550FF4F249189519F4FEF
:10023000FC0184918823C9F090E0880F991FFC018C
:10024000ED52FF4FA591B491FC01E753FF4FC591CB
:10025000D49161110DC09FB7F8948C9120958223A1
:100260008C938881282328839FBFDF91CF910895A5
:10027000623051F49FB7F8943C91822F809583238C
:100280008C93E8812E2BEFCF8FB7F894EC912E2B27
:100290002C938FBFEACF3FB7F89480918A05909155
:1002A0008B05A0918C05B0918D0526B5A89B05C046
:1002B0002F3F19F00196A11DB11D3FBFBA2FA92FE5
:1002C000982F8827BC01CD01620F711D811D911DE2
:1002D00042E0660F771F881F991F4A95D1F708954E
:1002E0008F929F92AF92BF92CF92DF92EF92FF9246
:1002F0006B017C010E944B014B015C01C114D104D4
:10030000E104F104B9F00E944B01681979098A09E6
:100310009B09683E73408105910580F321E0C21A74
:10032000D108E108F10888EE880E83E0981EA11C30
:10033000B11CE4CFFF90EF90DF90CF90BF90AF90D3
:100340009F908F900895CF93DF9390910001891330
:100350000BC0E8ECF0E0E4919FEF90930001E130F6
:1003600059F138F1E23071F1282F30E0F901E15F05
:10037000FE4F8491F901E550FF4FD491F901E95105
:10038000FF4FC491CC2391F081110E94BD00EC2F4E
:10039000F0E0EE0FFF1FE753FF4FA591B4918FB729
:1003A000F894EC91D095DE23DC938FBFDF91CF9151
:1003B000089510926E00D8CF90916F009D7F90931A
:1003C0006F00D2CF909170009D7F9093700091E06C
:1003D0009093B0009091B100987F94609093B10099
:1003E0001092B300C1CFAF92BF92CF92DF92EF9243
:1003F000FF920F931F93CF93DF936C017B018B01CF
:10040000040F151FEB015E01AE18BF08C017D1071E
:1004100059F06991D601ED91FC910190F081E02DA8
:10042000C6010995892B79F7C501DF91CF911F91FD
:100430000F91FF90EF90DF90CF90BF90AF90089515
:10044000FC01538D448D252F30E0842F90E0821BDA
:10045000930B541710F0CF96089501970895FC015F
:10046000918D828D981761F0A28DAE0FBF2FB11DB7
:100470005D968C91928D9F5F9F73928F90E008950F
:100480008FEF9FEF0895FC01918D828D981731F0C9
:10049000828DE80FF11D858D90E008958FEF9FEF1D
:1004A0000895FC01918D228D892F90E0805C9F4FF3
:1004B000821B91098F73992708958EE895E00E9419
:1004C000510221E0892B09F420E0822F089580E079
:1004D00090E0892B29F00E945D0281110C940000AC
:1004E0000895FC01A48DA80FB92FB11DA35ABF4FC9
:1004F0002C91848D90E001968F739927848FA68923
:10050000B7892C93A089B1898C91837080648C9376
:10051000938D848D981306C00288F389E02D808125
:100520008F7D80830895EF92FF920F931F93CF9357
:10053000DF93EC0181E0888F9B8D8C8D98131AC01E
:10054000E889F989808185FF15C09FB7F894EE8905
:10055000FF896083E889F989808183708064808362
:100560009FBF81E090E0DF91CF911F910F91FF90AD
:10057000EF900895F62E0B8D10E00F5F1F4F0F7355
:100580001127E02E8C8D8E110CC00FB607FCFACF10
:10059000E889F989808185FFF5CFCE010E9471023B
:1005A000F1CFEB8DEC0FFD2FF11DE35AFF4FF082E1
:1005B0009FB7F8940B8FEA89FB8980818062CFCF47
:1005C000CF93DF93EC01888D8823B9F0AA89BB898A
:1005D000E889F9898C9185FD03C0808186FD0DC075
:1005E0000FB607FCF7CF8C9185FFF2CF808185FF96
:1005F000EDCFCE010E947102E9CFDF91CF91089536
:10060000CF93DF93EBE2F0E0883040F098EF980F63
:10061000E8E2F0E0963010F4E5E2F0E0908142EF9D
:10062000480F8E3010F4482F477021E030E001C0B1
:10063000220F4A95EAF7322F309593239083AAE24E
:10064000B0E0683040F098EF960FA7E2B0E0963047
:1006500010F4A4E2B0E09C9122EF260F6E3010F46B
:10066000262F277041E050E001C0440F2A95EAF799
:10067000409549234C93CBE2D0E0683040F098EFAE
:10068000960FC8E2D0E0963010F4C5E2D0E02881A1
:1006900091E042EF460F6E3010F4462F477001C0D4
:1006A000990F4A95EAF7292B2883CFE0D0E02197CC
:1006B000F1F7C9E2D0E0683038F06850C6E2D0E027
:1006C000663010F4C3E2D0E02881292361E009F00C
:1006D00060E050818E30B0F08E5021E001C0220FDA
:1006E0008A95EAF7252B2083CFE0D0E02197F1F718
:1006F0002081322330832C91922B9C93862FDF9183
:10070000CF9108958770E9CFCF93DF93EBE2F0E0CC
:10071000883040F098EF980FE8E2F0E0963010F45F
:10072000E5E2F0E0908142EF480F8E3010F4482F60
:10073000477021E030E001C0220F4A95EAF720958A
:1007400029232083AFE0B0E01197F1F7ABE2B0E0EE
:10075000683040F098EF960FA8E2B0E0963010F4C1
:10076000A5E2B0E09C9142EF460F6E3010F4462FA8
:10077000477021E030E001C0220F4A95EAF720954A
:1007800029232C93CFE0D0E02197F1F720818E3000
:10079000D8F092EF980F81E001C0880F9A95EAF7A0
:1007A000822B80838FE090E00197F1F79C916E306F
:1007B00098F06E5081E001C0880F6A95EAF7892BA6
:1007C0008C93DF91CF910895877091E001C0990FCC
:1007D0008A95EAF7892FE4CF6770ECCFEBE2F0E07F
:1007E000683040F098EF960FE8E2F0E0963010F4B1
:1007F000E5E2F0E0208191E032EF360F6E3010F448
:10080000362F377001C0990F3A95EAF7922B9083F3
:10081000ABE2B0E0883040F098EF980FA8E2B0E08B
:10082000963010F4A5E2B0E02C918E30D8F08E50C6
:1008300091E001C0990F8A95EAF7892F822B8C935A
:100840008FE090E00197F1F720816E3068F06E50F4
:1008500081E090E001C0880F6A95EAF780958223D5
:10086000808308958770E4CF6770F2CFBF92CF92F4
:10087000DF92EF92FF920F931F93CF93DF93982F06
:10088000977021E030E0D90101C0AA0F9A95EAF7EC
:1008900092EF980F01C0220F9A95EAF7FA2E8E3048
:1008A00008F0F22EF094962F9770E1E0F0E0EF015F
:1008B00001C0CC0F9A95EAF792EF960F01C0EE0FA8
:1008C0009A95EAF7EC2E6E3008F0EE2EE094DC2ECE
:1008D000BC2E6E3008F0BE2ECA2E8E3008F42A2FA1
:1008E00058E098EF980F38EF360FCFE0D0E0ABE24A
:1008F000B0E0883030F0A5E2B0E0963010F0A8E229
:10090000B0E07C917F21ABE2B0E0883030F0A5E22E
:10091000B0E0963010F0A8E2B0E07C93A42FB0E0F5
:1009200040FF4AC00BE210E0683030F005E210E012
:10093000363010F008E210E0F80140817D2D0BE226
:1009400010E0683038F07B2D05E210E0363010F012
:1009500008E210E0472BF8014083FE013197F1F7E0
:10096000B595A7954A2FABE2B0E0883030F0A5E20C
:10097000B0E0963010F0A8E2B0E07C91FC2DABE244
:10098000B0E0883038F0F22FA5E2B0E0963010F0F9
:10099000A8E2B0E07F2B7C93DE011197F1F7515074
:1009A00009F0A5CFDF91CF911F910F91FF90EF90AC
:1009B000DF90CF90BF9008950BE210E0683030F0E8
:1009C00005E210E0363010F008E210E0F801408156
:1009D0004E210BE210E0683008F4BDCF05E210E0D4
:1009E000363008F4B8CF08E210E0B5CF1F93CF93AC
:1009F000DF93C82FD62F142F0E94EE03412F6D2FA7
:100A00008C2F0E9436046D2F8C2F0E940003182F0C
:100A10006D2F8C2F0E948403812FDF91CF911F9126
:100A20000895089590E080E00895FA01DB012C918B
:100A300030E0220F331F91E0811101C090E0892F37
:100A4000822B8F70DB018C93811103C01082808117
:100A500008958F30E1F781E08083F9CFFB010190A9
:100A60000020E9F73197AF01461B570BDC01ED91F0
:100A7000FC910280F381E02D09948F929F92AF92B6
:100A8000BF920F931F93CF93DF93CDB7DEB7A1979C
:100A90000FB6F894DEBF0FBECDBF19A2423008F4E6
:100AA0004AE08E010F5D1F4F842E912CB12CA12C9A
:100AB000A50194010E94C00CE62FB901CA01EA30D9
:100AC00004F5E05DD801EE938D01232B242B252B1B
:100AD00079F790E080E0109729F0BD018EE895E06D
:100AE0000E942E05A1960FB6F894DEBF0FBECDBFB3
:100AF000DF91CF911F910F91BF90AF909F908F90FA
:100B00000895E95CDFCFCF92DF92EF92FF92CF930F
:100B1000DF936B017C016DE28EE895E00E94930209
:100B2000EC0166277727CB016C197D098E099F0997
:100B30004AE00E943D058C0F9D1FDF91CF91FF90F1
:100B4000EF90DF90CF900895BC01990F880B990B1F
:100B50004AE00C943D058F929F92AF92BF92DF9234
:100B6000EF92FF920F931F93CF93DF9300D000D0AB
:100B70001F92CDB7DEB77C015B018A01D22EFC014A
:100B800086819A012D0D311D8217130608F458C075
:100B9000CE0101964C0185E0F40111928A95E9F7A6
:100BA0008D2D8770806C8983CE0102960E94F70C90
:100BB000F1E0FD1568F0F7019485D11024C00230F2
:100BC000110508F18B819923E1F090E8892B8B8343
:100BD0000F5FF701D58014816D2D812F0E94EE03E8
:100BE00074018E2D88198017B8F4F70141917F01A7
:100BF0006D2D812F0E9436046D2D812F0E940003E0
:100C0000F0CF90E0E3CF8A81992321F090E8892BFF
:100C10008A83DECF90E0FBCF6D2D812F0F900F9058
:100C20000F900F900F90DF91CF911F910F91FF9038
:100C3000EF90DF90BF90AF909F908F900C948403C3
:100C4000182F1D19412F50E02D2DC7010E94AB0513
:100C5000F7016285738590E080E00E9470010D5F6E
:100C6000011B11E0F7014681041790F050E0B50137
:100C7000610F711D20E0C7010E94AB05F70162857D
:100C8000738590E080E00E94700101501F5FEACF01
:100C90000F900F900F900F900F90DF91CF911F91B9
:100CA0000F91FF90EF90DF90BF90AF909F908F904B
:100CB0000895CF93DF9300D000D0CDB7DEB719826F
:100CC0001A821B821C8220E044E050E0BE016F5F6C
:100CD0007F4F8BE296E00E94AB05109234060F9096
:100CE0000F900F900F90DF91CF9108950F931F9366
:100CF000CF93DF93CDB7DEB7C058D1090FB6F894C4
:100D0000DEBF0FBECDBF362F272F8A0141385105D8
:100D100010F000E810E0BE016F5F7F4FA32FB22FED
:100D20009B01A901461B570B4017510770F4ED9129
:100D300040E0E03234F00E2E000CFF0BE85BFF4F7A
:100D40004491F90141939F01ECCFFC012185A80159
:100D50000E94AB05C801C058DF4F0FB6F894DEBF44
:100D60000FBECDBFDF91CF911F910F910895EF92EC
:100D7000FF921F93CF93DF93EC01162F89859E81FD
:100D8000F12CE12C891326C0BE01635F7F4F262F13
:100D9000FB019E2F921B981718F491819193F9CF24
:100DA000898590E0E0E010323CF0E12F012E000C4C
:100DB000FF0BE85BFF4FE4918C0F9D1FDC011D963C
:100DC000EC934E8150E020E0CE010E94AB05EE2472
:100DD000E394F12C49858E81481708F550E0E0E056
:100DE000103234F0E12F110FFF0BE85BFF4FE4915D
:100DF000DE01A40FB51F1D96EC934F5F5F4F20E0FF
:100E0000BE01635F7F4FCE010E94AB0589858F5F76
:100E1000843008F083E08987BFEFEB1AFB0AC70133
:100E2000DF91CF911F91FF90EF9008951F920F9245
:100E30000FB60F9211242F933F938F939F93AF93ED
:100E4000BF938091860590918705A0918805B09108
:100E500089053091850523E0230F2D3758F501963C
:100E6000A11DB11D2093850580938605909387056C
:100E7000A0938805B093890580918A0590918B0590
:100E8000A0918C05B0918D050196A11DB11D809397
:100E90008A0590938B05A0938C05B0938D05BF9127
:100EA000AF919F918F913F912F910F900FBE0F9017
:100EB0001F90189526E8230F0296A11DB11DD2CFD1
:100EC0001F920F920FB60F9211242F933F934F93BF
:100ED0005F936F937F938F939F93AF93BF93EF93A2
:100EE000FF938091610590916205A0916305B09197
:100EF0006405892B8A2B8B2BD1F190915C05E091B5
:100F00005D05F0915E058081892780838091610570
:100F100090916205A0916305B091640518161906B9
:100F20001A061B069CF48091610590916205A091C0
:100F30006305B09164050197A109B109809361052A
:100F400090936205A0936305B0936405FF91EF91C0
:100F5000BF91AF919F918F917F916F915F914F91D1
:100F60003F912F910F900FBE0F901F901895809179
:100F700000010E94A301EACF1F920F920FB60F92B9
:100F800011242F933F934F935F936F937F938F938E
:100F90009F93AF93BF93EF93FF938EE895E00E94EA
:100FA0007102FF91EF91BF91AF919F918F917F91CE
:100FB0006F915F914F913F912F910F900FBE0F90C6
:100FC0001F9018951F920F920FB60F9211242F9316
:100FD0008F939F93EF93FF93E0919E05F0919F0570
:100FE0008081E091A405F091A50582FD1BC0908150
:100FF0008091A7058F5F8F732091A805821741F01C
:10100000E091A705F0E0E257FA4F958F8093A7058E
:10101000FF91EF919F918F912F910F900FBE0F90A5
:101020001F9018958081F4CF109291051092900531
:1010300088EE93E0A0E0B0E0809392059093930552
:10104000A0939405B093950587E295E090938F0562
:1010500080938E0585EC90E090939B0580939A0594
:1010600084EC90E090939D0580939C0580EC90E04B
:1010700090939F0580939E0581EC90E09093A1054D
:101080008093A00582EC90E09093A3058093A20545
:1010900086EC90E09093A5058093A4051092A70597
:1010A0001092A8051092A9051092AA0510922E067A
:1010B00010922D0689E395E090932C0680932B06E1
:1010C00083E080932F0684E080933006539A549AED
:1010D0005B9AEBE2F0E0808190E1892B80831092B3
:1010E00034068CE291E09093360680933506109298
:1010F000370684E6809333064FE86091300680918E
:101100002F060E94F60440E46091300680912F067D
:101110000C94F604CF93DF9300D000D01F92CDB78C
:10112000DEB7789484B5826084BD84B5816084BD67
:1011300085B5826085BD85B5816085BD80916E0075
:10114000816080936E0010928100809181008260A6
:1011500080938100809181008160809381008091E3
:1011600080008160809380008091B10084608093D2
:10117000B1008091B00081608093B00080917A00CE
:10118000846080937A0080917A00826080937A00F4
:1011900080917A00816080937A0080917A008068E3
:1011A00080937A001092C100E0919E05F0919F0516
:1011B00082E08083E0919A05F0919B051082E09196
:1011C0009C05F0919D058FEC80831092A605E0911F
:1011D000A205F091A30586E08083E091A005F0913F
:1011E000A105808180618083E091A005F091A10537
:1011F000808188608083E091A005F091A1058081C5
:1012000080688083E091A005F091A10580818F7DA9
:10121000808360E082E00E940F0160E085E00E9430
:101220000F0161E08BE00E940F0161E08CE00E9401
:101230000F0161E08DE00E940F0161E087E00E94F4
:101240000F0161E088E00E940F0161E089E00E94E7
:101250000F0161E08AE00E940F0161E083E00E94DB
:101260000F0161E084E00E940F0184E08093310669
:1012700081E0809332060E94590684E6809333060B
:101280004FE86091300680912F060E94F60462E0DC
:101290008EE00E940F0162E08FE00E940F0162E089
:1012A00080E10E940F0162E081E10E940F0162E093
:1012B00082E10E940F01B5E02B2EB1E03B2E809120
:1012C000830590918405009709F4B1C0029709F451
:1012D000C2C08091830590918405029719F08AE03D
:1012E0000E94A3018EE00E94E6004AE755E06BE70A
:1012F00075E00E941505E0907905EE2019F091E067
:10130000E82EE926809379058FE00E94E60047E702
:1013100055E068E775E00E941505F0907605FF201E
:1013200019F091E0F82EF9268093760580E10E946D
:10133000E60044E755E065E775E00E941505009179
:101340007305002311F001E008278093730581E104
:101350000E94E60041E755E062E775E00E9415054E
:1013600010917005112311F011E01827809370057A
:1013700082E10E94E6004EE655E06FE675E00E94CD
:10138000150550916D055983552319F061E06827C3
:10139000698380936D056BE475E08EE895E00E94AB
:1013A0002E058E2D90E00E94A4058F2D90E00E94C6
:1013B000A405802F90E00E94A405812F90E00E9458
:1013C000A405E9816E2F70E090E080E04AE00E9481
:1013D0003D0569E575E08EE895E00E942E0582E006
:1013E00090E0E11013C083E090E0F1100FC084E0C2
:1013F00090E001110BC081E090E0111107C0F9816C
:1014000085E090E0F11102C090E080E090938205C9
:101410008093810580E090E0892B09F450CF0E94F1
:101420005D02882309F447CF0E94000044CF0E9448
:10143000590661E475E08BE296E00E942E058091EA
:10144000810590918205009709F443CF909384051C
:10145000809383053ECF0E94590666E475E08BE2D7
:1014600096E00E942E05E0918005F0E0EE0FFF1F50
:10147000E55CFE4F208131818FB7F894409086055E
:101480005090870560908805709089058FBF213046
:10149000310571F440927C0550927D0560927E0585
:1014A00070927F05809180058F5F8093800505C0D5
:1014B0002230310579F41092800580918105909158
:1014C0008205009719F642E050E05093840540935E
:1014D0008305FFCE80917C0590917D05A0917E05CE
:1014E000B0917F05B301A201481B590B6A0B7B0B1E
:1014F000DB01CA01843F9140A105B105F0F2235000
:1015000031092D31310508F018C2220F331FF901BE
:10151000EF5FFE4F008111810F3F100709F40DC2EC
:10152000809100018A3009F0C1C0E8ECF0E0F4914C
:10153000FD83F7FDAFCF61E08AE00E940F012D81AE
:10154000222321F04D81423009F0A2C14801B12C83
:10155000A12C60E072E18AE790E0A50198010E9469
:10156000A10C29833A834B835C8369017A0151E0A2
:10157000C51AD108E108F1086FEFC616D104E104DD
:10158000F10409F00CF455C160E472E48FE090E0DE
:10159000A50198010E94A10C69017A0171E0C71AA6
:1015A000D108E108F1088D81823009F0F5C082E0B0
:1015B0009FEFC916D104E104F10409F00CF46FC0E7
:1015C00060E970ED83E090E0A50198010E94A10C14
:1015D00069017A01E1E0CE1AD108E108F10883E05F
:1015E000FFEFCF16D104E104F10409F00CF457C069
:1015F00068E478EE81E090E0A50198010E94A10CDA
:1016000069017A0161E0C61AD108E108F10884E0B5
:101610007FEFC716D104E104F10409F00CF43FC0D8
:1016200064E274EF80E090E0A50194010E94A10CB7
:1016300069017A0181E0C81AD108E108F10885E062
:10164000FFEFCF16D104E104F10449F140F162E16A
:101650007AE780E090E0A50194010E94A10C690165
:101660007A0191E0C91AD108E108F10886E0EFEFAC
:10167000CE16D104E104F10491F088F0C980DA803B
:10168000EB80FC809AE0F594E794D794C7949A9500
:10169000D1F721E0C21AD108E108F10887E0909162
:1016A000B100987F892B8093B100CBC08F3F09F0A8
:1016B000F1CE8AE080930001E8ECF0E084918D8324
:1016C0008F3F09F4E7CE813021F150F0823009F4E8
:1016D00040C087FDDFCE61E08AE00E940F0132CF7B
:1016E00014BC15BC84B5826084BD85B5816085BDA0
:1016F000E1EFF0E08491E82FF0E0EE0FFF1FE753F9
:10170000FF4F85919491F1018491809360051D8232
:1017100012CF109280001092810080918100886029
:101720008093810080918100816080938100E1EF4E
:10173000F0E08491E82FF0E0EE0FFF1FE753FF4F3A
:1017400085919491F101849180935F05F1E0FD838F
:10175000F2CE1092B0001092B1008091B000826081
:101760008093B0008091B10081608093B100E1EF7F
:10177000F0E08491E82FF0E0EE0FFF1FE753FF4FFA
:101780008591949190935E0580935D05F10184911C
:1017900080935C05F2E0DBCF2FEFC216D104E104A9
:1017A000F10409F00CF472C068E478EE81E090E096
:1017B000A50198010E94A10C69017A0161E0C61A95
:1017C000D108E108F1087D8184E0711139CF8FEFF4
:1017D000C816D104E104F10409F014F483E02DC02B
:1017E00062E17AE780E090E0A50194010E94A10CFB
:1017F00069017A0191E0C91AD108E108F10884E091
:10180000EFEFCE16D104E104F104B9F0B0F0C980D5
:10181000DA80EB80FC808AE0F594E794D794C79453
:101820008A95D1F741E0C41AD108E108F10885E0B2
:1018300004C081E0FD81F11132CF95B5987F892BED
:1018400085BD9801220F331FA4EFB1E00E94E20C86
:1018500028EE33E040E050E00E94C00CFD81F13002
:1018600009F449C0F23009F458C0F11113CEC7BCD5
:101870002093690530936A0540936B0550936C057E
:1018800080916E00826080936E0004CE82E0D2CFA1
:10189000B12CA12C60E072E18AE790E0A5019801EB
:1018A0000E94A10C69017A0161E0C61AD108E10821
:1018B000F10891E0C114D10471E0E706F10484F06D
:1018C00068E478EE81E090E0A50198010E94A10C07
:1018D00069017A0181E0C81AD108E108F10893E0B2
:1018E000ED81E13009F0ADCF80918100887F892BB7
:1018F00080938100A6CFD0928900C0928800209367
:10190000650530936605409367055093680580919F
:101910006F00826080936F00BDCDC092B3002093B2
:10192000610530936205409363055093640580918F
:101930007000826080937000ADCD8AE00E94A301A8
:10194000A9CD052E97FB1EF400940E94B80C57FDFC
:1019500007D00E94C00C07FC03D04EF40C94B80CC6
:1019600050954095309521953F4F4F4F5F4F0895CB
:1019700090958095709561957F4F8F4F9F4F0895FB
:10198000A1E21A2EAA1BBB1BFD010DC0AA1FBB1F83
:10199000EE1FFF1FA217B307E407F50720F0A21BF5
:1019A000B30BE40BF50B661F771F881F991F1A9462
:1019B00069F760957095809590959B01AC01BD018C
:1019C000CF010895A29FB001B39FC001A39F700DE6
:1019D000811D1124911DB29F700D811D1124911D37
:1019E0000895EE0FFF1F0590F491E02D0994FB017F
:1019F000DC0102C001900D9241505040D8F708958B
:101A0000F894FFCFFF6E0074007B0082008A009282
:101A1000009B00A400AE00B900C400CF00DC00E9C8
:101A200000F600050115012501370149015D01722C
:101A30000188019F01B801D201ED010B022A0200C9
:101A40000000000000000000000000000000000096
:101A50000000000000000000000000000000000086
:101A60000000000000000000000000000000000076
:101A70000000000000000000000000000000000066
:101E200000000000000000000000009302F3012009
:101E300002E00251022F02430200000000B70676C2
:101E4000061205110549444C4500504C41590042C9
:101E50007574746F6E20696E7075743A000D0A00A7
:107E0000112484B714BE81FFF0D085E080938100F7
:107E100082E08093C00088E18093C10086E0809377
:107E2000C20080E18093C4008EE0C9D0259A86E02C
:107E300020E33CEF91E0309385002093840096BBD3
:107E4000B09BFECF1D9AA8958150A9F7CC24DD24C4
:107E500088248394B5E0AB2EA1E19A2EF3E0BF2EE7
:107E6000A2D0813461F49FD0082FAFD0023811F036
:107E7000013811F484E001C083E08DD089C08234E0
:107E800011F484E103C0853419F485E0A6D080C0E4
:107E9000853579F488D0E82EFF2485D0082F10E0AE
:107EA000102F00270E291F29000F111F8ED06801E7
:107EB0006FC0863521F484E090D080E0DECF843638
:107EC00009F040C070D06FD0082F6DD080E0C81688
:107ED00080E7D80618F4F601B7BEE895C0E0D1E017
:107EE00062D089930C17E1F7F0E0CF16F0E7DF06D8
:107EF00018F0F601B7BEE89568D007B600FCFDCFD4
:107F0000A601A0E0B1E02C9130E011968C91119780
:107F100090E0982F8827822B932B1296FA010C0160
:107F200087BEE89511244E5F5F4FF1E0A038BF0790
:107F300051F7F601A7BEE89507B600FCFDCF97BE46
:107F4000E89526C08437B1F42ED02DD0F82E2BD052
:107F50003CD0F601EF2C8F010F5F1F4F84911BD097
:107F6000EA94F801C1F70894C11CD11CFA94CF0C13
:107F7000D11C0EC0853739F428D08EE10CD085E9AC
:107F80000AD08FE07ACF813511F488E018D01DD067
:107F900080E101D065CF982F8091C00085FFFCCF94
:107FA0009093C60008958091C00087FFFCCF809118
:107FB000C00084FD01C0A8958091C6000895E0E648
:107FC000F0E098E1908380830895EDDF803219F02E
:107FD00088E0F5DFFFCF84E1DECF1F93182FE3DFCA
:107FE0001150E9F7F2DF1F91089580E0E8DFEE27F6
:047FF000FF270994CA
:027FFE00040479
:00000001FF
