:100000000C9493000C94BB000C94BB000C94BB00AC
:100010000C94BB000C94BB000C94BB000C940D081A
:100020000C94BB000C94BB000C94BB000C94BB0064
:100030000C94BB000C94BB000C94BB000C94BB0054
:100040000C94C3070C94BB000C948F080C946908A3
:100050000C94BB000C94BB000C94BB000C94BB0034
:100060000C94BB000C94BB00000622766D247F200C
:10007000390F5C50104008063F065B4F666D7D07E8
:100080007F6F303058484C535F777F395E79713DD0
:1000900076060E753815373F7367336D783E1C2A28
:1000A000766E5B39300F1308105F7C585E7B716F82
:1000B00074040C753015545C7367506D781C1C2AE1
:1000C00076665B79064F400002000000002400279E
:1000D000002A0000000000250028002B000000007E
:1000E000002300260029000404040404040404027C
:1000F00002020202020303030303030102040810C5
:100100002040800102040810200102040810200091
:1001100000000800020100000304070000000000C6
:1001200000000000C10811241FBECFEFD8E0DEBFE1
:10013000CDBF16E0A0E0B1E0E2E1F5E202C005903B
:100140000D92AC31B107D9F727E0ACE1B6E001C0C0
:100150001D92A930B207E1F710E0C3E9D0E004C076
:100160002197FE010E948F10C239D107C9F70E9462
:1001700037090C9487120C940000833081F028F426
:10018000813099F08230A9F008958730A9F0883045
:10019000C9F08430B1F4809180008F7D03C08091DC
:1001A00080008F7780938000089584B58F7784BD19
:1001B000089584B58F7DFBCF8091B0008F778093B9
:1001C000B00008958091B0008F7DF9CFCF93DF9379
:1001D000282F30E0F901E15FFE4F8491F901E550ED
:1001E000FF4FD491F901E951FF4FC491CC23A1F005
:1001F00081110E94BD00EC2FF0E0EE0FFF1FE352D3
:10020000FF4FA591B491EC91ED2381E090E009F4CA
:1002100080E0DF91CF91089580E090E0FACF1F93C6
:10022000CF93DF93282F30E0F901E15FFE4F8491F7
:10023000F901E550FF4FD491F901E951FF4FC49105
:10024000CC23A9F0162F81110E94BD00EC2FF0E005
:10025000EE0FFF1FED52FF4FA591B4918FB7F894A9
:10026000EC91111108C0D095DE23DC938FBFDF9194
:10027000CF911F910895DE2BF8CFCF93DF9390E0BD
:10028000FC01E550FF4F249189519F4FFC0184915F
:100290008823C9F090E0880F991FFC01E753FF4FB6
:1002A000A591B491FC01ED52FF4FC591D49161111C
:1002B0000DC09FB7F8948C91209582238C938881F0
:1002C000282328839FBFDF91CF910895623051F496
:1002D0009FB7F8943C91822F809583238C93E8817B
:1002E0002E2BEFCF8FB7F894EC912E2B2C938FBF42
:1002F000EACF1F93CF93DF93182FEB0161E00E94A9
:100300003D01209739F460E0812FDF91CF911F915B
:100310000C940F01CF3FD10511F461E0F5CFE12F2F
:10032000F0E0E15FFE4FE491E33031F140F4E13081
:10033000B1F0E230E1F0C038D1057CF7E4CFE7302E
:1003400029F1E83059F1E430B1F780918000806202
:1003500080938000D0938B00C0938A0004C084B542
:10036000806884BDC7BDDF91CF911F91089584B58A
:10037000806284BDC8BDF7CF809180008068809383
:100380008000D0938900C0938800EDCF8091B000A9
:1003900080688093B000C093B300E5CF8091B00037
:1003A00080628093B000C093B400DDCF3FB7F89473
:1003B0008091530690915406A0915506B09156062F
:1003C00026B5A89B05C02F3F19F00196A11DB11DB0
:1003D0003FBFBA2FA92F982F8827BC01CD01620FEC
:1003E000711D811D911D42E0660F771F881F991FA7
:1003F0004A95D1F708958F929F92AF92BF92CF9274
:10040000DF92EF92FF926B017C010E94D6014B01BB
:100410005C01C114D104E104F104B9F00E94D601D9
:10042000681979098A099B09683E7340810591051D
:1004300080F321E0C21AD108E108F10888EE880EA5
:1004400083E0981EA11CB11CE4CFFF90EF90DF90D9
:10045000CF90BF90AF909F908F90089590910001A2
:1004600089130BC0E8ECF0E0E4919FEF909300015A
:10047000E13049F028F0E23061F060E00C940F01C7
:1004800010926E00FACF90916F009D7F90936F0055
:10049000F4CF909170009D7F9093700091E09093C5
:1004A000B0009091B100987F94609093B100109249
:1004B000B300E3CFAF92BF92CF92DF92EF92FF9261
:1004C0000F931F93CF93DF936C017B018B01040F7C
:1004D000151FEB015E01AE18BF08C017D10759F018
:1004E0006991D601ED91FC910190F081E02DC6015A
:1004F0000995892B79F7C501DF91CF911F910F9154
:10050000FF90EF90DF90CF90BF90AF900895FC01E7
:10051000538D448D252F30E0842F90E0821B930B68
:10052000541710F0CF96089501970895FC01918D0E
:10053000828D981761F0A28DAE0FBF2FB11D5D9611
:100540008C91928D9F5F9F73928F90E008958FEFB3
:100550009FEF0895FC01918D828D981731F0828D67
:10056000E80FF11D858D90E008958FEF9FEF0895BE
:10057000FC01918D228D892F90E0805C9F4F821B22
:1005800091098F739927089587E596E00E94B80234
:1005900021E0892B09F420E0822F089580E090E08B
:1005A000892B29F00E94C40281110C940000089547
:1005B000FC01A48DA80FB92FB11DA35ABF4F2C91D8
:1005C000848D90E001968F739927848FA689B789CF
:1005D0002C93A089B1898C91837080648C93938DC6
:1005E000848D981306C00288F389E02D80818F7D69
:1005F00080830895EF92FF920F931F93CF93DF9321
:10060000EC0181E0888F9B8D8C8D98131AC0E8894E
:10061000F989808185FF15C09FB7F894EE89FF891D
:100620006083E889F98980818370806480839FBFBB
:1006300081E090E0DF91CF911F910F91FF90EF90BB
:100640000895F62E0B8D10E00F5F1F4F0F731127CB
:10065000E02E8C8D8E110CC00FB607FCFACFE88906
:10066000F989808185FFF5CFCE010E94D802F1CFB4
:10067000EB8DEC0FFD2FF11DE35AFF4FF0829FB77A
:10068000F8940B8FEA89FB8980818062CFCFCF936A
:10069000DF93EC01888D8823B9F0AA89BB89E889AA
:1006A000F9898C9185FD03C0808186FD0DC00FB650
:1006B00007FCF7CF8C9185FFF2CF808185FFEDCFCE
:1006C000CE010E94D802E9CFDF91CF910895CF9358
:1006D000DF93EBE2F0E0883040F098EF980FE8E22B
:1006E000F0E0963010F4E5E2F0E0908142EF480F40
:1006F0008E3010F4482F477021E030E001C0220F07
:100700004A95EAF7322F309593239083AAE2B0E01E
:10071000683040F098EF960FA7E2B0E0963010F402
:10072000A4E2B0E09C9122EF260F6E3010F4262F49
:10073000277041E050E001C0440F2A95EAF7409548
:1007400049234C93CBE2D0E0683040F098EF960F0D
:10075000C8E2D0E0963010F4C5E2D0E0288191E004
:1007600042EF460F6E3010F4462F477001C0990FCC
:100770004A95EAF7292B2883CFE0D0E02197F1F7BB
:10078000C9E2D0E0683038F06850C6E2D0E06630A8
:1007900010F4C3E2D0E02881292361E009F060E091
:1007A00050818E30B0F08E5021E001C0220F8A952A
:1007B000EAF7252B2083CFE0D0E02197F1F72081C5
:1007C000322330832C91922B9C93862FDF91CF91F3
:1007D00008958770E9CFCF93DF93EBE2F0E08830A4
:1007E00040F098EF980FE8E2F0E0963010F4E5E280
:1007F000F0E0908142EF480F8E3010F4482F4770A0
:1008000021E030E001C0220F4A95EAF72095292324
:100810002083AFE0B0E01197F1F7ABE2B0E06830D1
:1008200040F098EF960FA8E2B0E0963010F4A5E201
:10083000B0E09C9142EF460F6E3010F4462F4770A7
:1008400021E030E001C0220F4A95EAF720952923E4
:100850002C93CFE0D0E02197F1F720818E30D8F0B3
:1008600092EF980F81E001C0880F9A95EAF7822BEA
:1008700080838FE090E00197F1F79C916E3098F0C3
:100880006E5081E001C0880F6A95EAF7892B8C933E
:10089000DF91CF910895877091E001C0990F8A95FB
:1008A000EAF7892FE4CF6770ECCFEBE2F0E0683035
:1008B00040F098EF960FE8E2F0E0963010F4E5E2B1
:1008C000F0E0208191E032EF360F6E3010F4362FD9
:1008D000377001C0990F3A95EAF7922B9083ABE2FB
:1008E000B0E0883040F098EF980FA8E2B0E0963082
:1008F00010F4A5E2B0E02C918E30D8F08E5091E04B
:1009000001C0990F8A95EAF7892F822B8C938FE08B
:1009100090E00197F1F720816E3068F06E5081E031
:1009200090E001C0880F6A95EAF780958223808362
:1009300008958770E4CF6770F2CFBF92CF92DF92B5
:10094000EF92FF920F931F93CF93DF93982F97709F
:1009500021E030E0D90101C0AA0F9A95EAF792EFA1
:10096000980F01C0220F9A95EAF7FA2E8E3008F000
:10097000F22EF094962F9770E1E0F0E0EF0101C0C5
:10098000CC0F9A95EAF792EF960F01C0EE0F9A9569
:10099000EAF7EC2E6E3008F0EE2EE094DC2EBC2E42
:1009A0006E3008F0BE2ECA2E8E3008F42A2F58E082
:1009B00098EF980F38EF360FCFE0D0E0ABE2B0E021
:1009C000883030F0A5E2B0E0963010F0A8E2B0E058
:1009D0007C917F21ABE2B0E0883030F0A5E2B0E05E
:1009E000963010F0A8E2B0E07C93A42FB0E040FF76
:1009F0004AC00BE210E0683030F005E210E036301B
:100A000010F008E210E0F80140817D2D0BE210E0CB
:100A1000683038F07B2D05E210E0363010F008E247
:100A200010E0472BF8014083FE013197F1F7B595AF
:100A3000A7954A2FABE2B0E0883030F0A5E2B0E0F5
:100A4000963010F0A8E2B0E07C91FC2DABE2B0E073
:100A5000883038F0F22FA5E2B0E0963010F0A8E22E
:100A6000B0E07F2B7C93DE011197F1F7515009F034
:100A7000A5CFDF91CF911F910F91FF90EF90DF9065
:100A8000CF90BF9008950BE210E0683030F005E29F
:100A900010E0363010F008E210E0F80140814E21FD
:100AA0000BE210E0683008F4BDCF05E210E036300C
:100AB00008F4B8CF08E210E0B5CF1F93CF93DF93CF
:100AC000C82FD62F142F0E945504412F6D2F8C2F25
:100AD0000E949D046D2F8C2F0E946703182F6D2F8D
:100AE0008C2F0E94EB03812FDF91CF911F910895EE
:100AF000089590E080E00895FA01DB012C9130E048
:100B0000220F331F91E0811101C090E0892F822BC9
:100B10008370DB018C93811103C010828081089562
:100B20008330E1F781E08083F9CFFC0180819181FE
:100B3000009711F00C9431110895FB0101900020F1
:100B4000E9F73197AF01461B570BDC01ED91FC91A2
:100B50000280F381E02D09948F929F92AF92BF9211
:100B60000F931F93CF93DF93CDB7DEB7A1970FB647
:100B7000F894DEBF0FBECDBF19A2423008F44AE0A0
:100B80008E010F5D1F4F842E912CB12CA12CA5013D
:100B900094010E943610E62FB901CA01EA3004F52B
:100BA000E05DD801EE938D01232B242B252B79F7C3
:100BB00090E080E0109729F0BD0187E596E00E9463
:100BC0009D05A1960FB6F894DEBF0FBECDBFDF9195
:100BD000CF911F910F91BF90AF909F908F900895EC
:100BE000E95CDFCFCF93DF93BC0187E596E00E94FD
:100BF0009D05EC0167E475E087E596E00E949D05A0
:100C00008C0F9D1FDF91CF9108950F931F93CF936A
:100C1000DF93EC0188819981009759F02A813B810B
:100C20002617370730F081E0DF91CF911F910F91A8
:100C300008958B016F5F7F4F0E94BA11009759F0A2
:100C4000998388831B830A832C813D81232B59F749
:100C5000FC011082E8CF80E0E7CFEF92FF920F9384
:100C60001F93CF93DF93EC017B018A01BA010E94AD
:100C7000050628813981811114C02115310519F02B
:100C8000C9010E943111198218821D821C821B82A7
:100C90001A82CE01DF91CF911F910F91FF90EF90BB
:100CA00008951D830C83B701C9010E948012F1CF02
:100CB0008F929F92AF92BF92DF92EF92FF920F932B
:100CC0001F93CF93DF9300D000D01F92CDB7DEB734
:100CD0007C015B018A01D22EFC0186819A012D0DD7
:100CE000311D8217130608F458C0CE0101964C013D
:100CF00085E0F40111928A95E9F78D2D8770806C5B
:100D00008983CE0102960E947712F1E0FD1568F00A
:100D1000F7019485D11024C00230110508F18B81B0
:100D20009923E1F090E8892B8B830F5FF701D58041
:100D300014816D2D812F0E94550474018E2D881908
:100D40008017B8F4F70141917F016D2D812F0E942A
:100D50009D046D2D812F0E946703F0CF90E0E3CFBB
:100D60008A81992321F090E8892B8A83DECF90E055
:100D7000FBCF6D2D812F0F900F900F900F900F9044
:100D8000DF91CF911F910F91FF90EF90DF90BF9077
:100D9000AF909F908F900C94EB03182F1D19412F4B
:100DA00050E02D2DC7010E945806F701628573851A
:100DB00090E080E00E94FB010D5F011B11E0F70154
:100DC0004681041790F050E0B501610F711D20E0DD
:100DD000C7010E945806F7016285738590E080E0A4
:100DE0000E94FB0101501F5FEACF0F900F900F9000
:100DF0000F900F90DF91CF911F910F91FF90EF9087
:100E0000DF90BF90AF909F908F900895CF93DF9326
:100E100000D000D0CDB7DEB719821A821B821C82A7
:100E200020E044E050E0BE016F5F7F4F84EF96E02A
:100E30000E9458061092FD060F900F900F900F9091
:100E4000DF91CF9108950F931F93CF93DF93CDB789
:100E5000DEB7C058D1090FB6F894DEBF0FBECDBFC4
:100E6000362F272F8A014138510510F000E810E095
:100E7000BE016F5F7F4FA32FB22F9B01A901461BBD
:100E8000570B4017510770F4ED9140E0E03234F019
:100E90000E2E000CFF0BE85BFF4F4491F9014193CC
:100EA0009F01ECCFFC012185A8010E945806C801D2
:100EB000C058DF4F0FB6F894DEBF0FBECDBFDF9135
:100EC000CF911F910F910895EF92FF921F93CF93AF
:100ED000DF93EC01162F89859E81F12CE12C89137B
:100EE00026C0BE01635F7F4F262FFB019E2F921B02
:100EF000981718F491819193F9CF898590E0E0E0FB
:100F000010323CF0E12F012E000CFF0BE85BFF4F8D
:100F1000E4918C0F9D1FDC011D96EC934E8150E0F7
:100F200020E0CE010E945806EE24E394F12C49857E
:100F30008E81481708F550E0E0E0103234F0E12FE0
:100F4000110FFF0BE85BFF4FE491DE01A40FB51F0B
:100F50001D96EC934F5F5F4F20E0BE01635F7F4FB4
:100F6000CE010E94580689858F5F843008F083E0A7
:100F70008987BFEFEB1AFB0AC701DF91CF911F9161
:100F8000FF90EF9008951F920F920FB60F921124C9
:100F90002F933F938F939F93AF93BF9380914F066F
:100FA00090915006A0915106B091520630914E0694
:100FB00023E0230F2D3758F50196A11DB11D209375
:100FC0004E0680934F0690935006A0935106B0931F
:100FD00052068091530690915406A0915506B09107
:100FE00056060196A11DB11D809353069093540699
:100FF000A0935506B0935606BF91AF919F918F91E4
:101000003F912F910F900FBE0F901F90189526E8DB
:10101000230F0296A11DB11DD2CF1F920F920FB6C2
:101020000F9211242F933F934F935F936F937F936E
:101030008F939F93AF93BF93EF93FF93809130066D
:1010400090913106A0913206B0913306892B8A2BFC
:101050008B2BD1F190912B06E0912C06F0912D066F
:101060008081892780838091300690913106A091FC
:101070003206B0913306181619061A061B069CF4A0
:101080008091300690913106A0913206B0913306DE
:101090000197A109B1098093300690933106A0937E
:1010A0003206B0933306FF91EF91BF91AF919F91BC
:1010B0008F917F916F915F914F913F912F910F9001
:1010C0000FBE0F901F901895809100010E942E0274
:1010D000EACF1F920F920FB60F9211242F933F93D6
:1010E0004F935F936F937F938F939F93AF93BF9330
:1010F000EF93FF9387E596E00E94D802FF91EF916E
:10110000BF91AF919F918F917F916F915F914F911F
:101110003F912F910F900FBE0F901F9018951F9227
:101120000F920FB60F9211242F938F939F93EF93EB
:10113000FF93E0916706F09168068081E0916D066B
:10114000F0916E0682FD1BC09081809170068F5FCA
:101150008F7320917106821741F0E0917006F0E0E4
:10116000E95AF94F958F80937006FF91EF919F9107
:101170008F912F910F900FBE0F901F901895808127
:10118000F4CF10925A061092590688EE93E0A0E030
:10119000B0E080935B0690935C06A0935D06B093ED
:1011A0005E068DE295E0909358068093570685EC95
:1011B00090E0909364068093630684EC90E09093B3
:1011C00066068093650680EC90E0909368068093B5
:1011D000670681EC90E090936A068093690682EC42
:1011E00090E090936C0680936B0686EC90E0909371
:1011F0006E0680936D061092700610927106109222
:101200007206109273061092F7061092F6068FE39C
:1012100095E09093F5068093F40683E08093F806BA
:1012200084E08093F906539A549A5B9AEBE2F0E0DB
:10123000808190E1892B80831092FD068CE291E001
:101240009093FF068093FE061092000784E6809339
:10125000FC064FE86091F9068091F8060E945D0552
:1012600040E46091F9068091F8060C945D05CF93F7
:10127000DF93CDB7DEB7A4970FB6F894DEBF0FBEED
:10128000CDBF789484B5826084BD84B5816084BD0F
:1012900085B5826085BD85B5816085BD80916E0014
:1012A000816080936E001092810080918100826045
:1012B0008093810080918100816080938100809182
:1012C00080008160809380008091B1008460809371
:1012D000B1008091B00081608093B00080917A006D
:1012E000846080937A0080917A00826080937A0093
:1012F00080917A00816080937A0080917A00806882
:1013000080937A001092C100E0916706F091680620
:1013100082E08083E0916306F09164061082E091A0
:101320006506F09166068FEC808310926F06E0915F
:101330006B06F0916C0686E08083E0916906F0917F
:101340006A06808180618083E0916906F0916A0677
:10135000808188608083E0916906F0916A068081CF
:1013600080688083E0916906F0916A0680818F7DB4
:10137000808360E082E00E943D0160E085E00E94A1
:101380003D0161E08DE00E943D0161E08CE00E9442
:101390003D0161E08BE00E943D0161E087E00E9439
:1013A0003D0161E088E00E943D0161E089E00E942A
:1013B0003D0161E08AE00E943D0161E083E00E941E
:1013C0003D0161E084E00E943D0184E08093FA06E3
:1013D00081E08093FB060E94060784E68093FC066A
:1013E0004FE86091F9068091F8060E945D0562E081
:1013F0008EE00E943D0162E08FE00E943D0162E0CC
:1014000080E10E943D0162E081E10E943D0162E0D5
:1014100082E10E943D018E010F5F1F4F18018EE097
:101420000E94E60049E256E06AE276E00E947C050E
:10143000E0902806EE2019F091E0E82EE92680934E
:1014400028068FE00E94E60046E256E067E276E07A
:101450000E947C05F0902506FF2019F091E0F82EFF
:10146000F9268093250680E10E94E60043E256E0DB
:1014700064E276E00E947C0500912206002311F0D0
:1014800001E008278093220681E10E94E60040E205
:1014900056E061E276E00E947C0510911F06112360
:1014A00011F011E0182780931F0682E10E94E600E8
:1014B0004DE156E06EE176E00E947C0590911C06BD
:1014C000992311F091E0982780931C0620914C06F7
:1014D00030914D06E110C4C4F110E3C40111F3C40E
:1014E0001111F4C49111F5C480914906E0914806A8
:1014F00014E6819FC0011124E80FF92FF11DEE0FB2
:10150000FF1FEF5FFE4F80819181029721F4213010
:10151000310509F4D3C42530310509F4CFC4233093
:10152000310509F0A6C4CAC490934B0680934A06BD
:101530002430310509F09DC4E1C41092480699C4D5
:101540008130910509F0B3C284E595E00E94F2056F
:101550000E94060769E575E084EF96E00E949D050C
:1015600080914906E091480654E6859FC001112408
:10157000E80FF92FF11DEE0FFF1FEF5FFE4F808187
:1015800091812FB7F89440914F0650915006609189
:1015900051067091520649A35AA36BA37CA32FBF97
:1015A0008130910509F043C04093440650934506AD
:1015B0006093460670934706809148068F5F80933C
:1015C000480600914C0610914D060130110509F4B2
:1015D0002CC48AE00E942E020430110509F00AC4CE
:1015E00061E08DE00E940F0160E08CE00E940F013D
:1015F0006BE470E08BE00E94790161E087E00E947B
:101600000F0160E088E00E940F0162E370E089E072
:101610000E94790180E090E0892B09F400CF0E94BC
:10162000C402882309F4FBCE0E940000F4CE82306D
:10163000910519F410924806C4CF40914406509188
:101640004506609146067091470609A11AA12BA193
:101650003CA1041B150B260B370BB901A801443F15
:1016600051406105710508F4ACCF03978D319105A8
:1016700008F019C2880F991FFC01E151FB4F00814E
:10168000118118A30F8F0F3F1F4F09F40CC28091D7
:1016900000018A3009F0B9C0E8ECF0E0149117FDC0
:1016A0009DC161E08AE00E943D01112319F01230D2
:1016B00009F0A3C12F8D38A14901B12CA12C60E004
:1016C00072E18AE790E0A5010E94E00F29013A014A
:1016D0007A01690131E0C31AD108E108F1084FEF3E
:1016E000C416D104E104F10409F00CF44CC160E427
:1016F00072E48FE090E0A50194010E94E00F69017F
:101700007A0161E0C61AD108E108F108123009F047
:10171000F1C082E07FEFC716D104E104F10409F0C3
:101720000CF46CC060E970ED83E090E0A5019401D9
:101730000E94E00F69017A0181E0C81AD108E1082E
:10174000F10883E09FEFC916D104E104F10409F028
:101750000CF454C068E478EE81E090E0A5019401B7
:101760000E94E00F69017A0161E0C61AD108E10820
:10177000F10884E07FEFC716D104E104F104F1F130
:10178000ECF164E274EF80E090E0A50194010E9426
:10179000E00F69017A01E1E0CE1AD108E108F10811
:1017A00085E0FFEFCF16D104E104F10439F130F107
:1017B00062E17AE780E090E0A50194010E94E00FE9
:1017C00069017A0181E0C81AD108E108F10886E0D0
:1017D0009FEFC916D104E104F10481F078F07301A0
:1017E00062019AE0F594E794D794C7949A95D1F75B
:1017F00041E0C41AD108E108F10887E09091B100F6
:10180000987F892B8093B100C5C08F3F09F0E6C057
:101810008AE080930001E8ECF0E08491182F8F3F7C
:1018200009F4DCC0813021F150F0823009F43FC06E
:1018300087FDD4C061E08AE00E943D0138CF14BC2E
:1018400015BC84B5826084BD85B5816085BDE1EF3E
:10185000F0E0E491F0E0EE0FFF1FED52FF4F8591B5
:101860009491E5E0F1E0E491E0932F0610E019CFC8
:101870001092800010928100809181008860809396
:10188000810080918100816080938100E1EFF0E030
:10189000E491F0E0EE0FFF1FED52FF4F8591949120
:1018A000E5E0F1E0E491E0932E0611E0FACE10922B
:1018B000B0001092B1008091B00082608093B000BF
:1018C0008091B10081608093B100E1EFF0E0E4919C
:1018D000F0E0EE0FFF1FED52FF4F85919491909332
:1018E0002D0680932C06E5E0F1E0E491E0932B06D1
:1018F00012E0D7CEAFEFCA16D104E104F10409F02B
:101900000CF479C068E478EE81E090E0A5019401E0
:101910000E94E00F69017A01B1E0CB1AD108E10819
:10192000F10884E011113DCF83E0EFEFCE16D10432
:10193000E104F10459F154F162E17AE780E090E0CA
:10194000A50194010E94E00F69017A01A1E0CA1A81
:10195000D108E108F10884E0BFEFCB16D104E1041F
:10196000F104A1F098F0730162018AE0F594E79424
:10197000D794C7948A95D1F751E0C51AD108E108E8
:10198000F10885E003C081E0111138CF95B5987F4B
:10199000892B85BD2F8D38A1220F331FA4EFB1E015
:1019A0000E94581028EE33E040E050E00E943610CC
:1019B000113009F456C0123009F465C011110EC07F
:1019C000C7BC209338063093390640933A065093AB
:1019D0003B0680916E00826080936E0009A11AA17F
:1019E0002BA13CA100934406109345062093460684
:1019F00030934706E1CD82E0C7CF2F8D38A1490152
:101A0000B12CA12C60E072E18AE790E0A5010E9470
:101A1000E00F69017A0161E0C61AD108E108F10816
:101A200091E0C114D10471E0E706F10484F068E4A8
:101A300078EE81E090E0A50194010E94E00F690139
:101A40007A0181E0C81AD108E108F10893E0113069
:101A500009F0A0CF80918100887F892B809381003D
:101A600099CFD0928900C092880020933406309399
:101A70003506409336065093370680916F0082609A
:101A800080936F00ABCFC092B300209330063093A9
:101A90003106409332065093330680917000826085
:101AA000809370009BCF8AE00E942E0297CF8230F5
:101AB000910549F48EE595E00E94F2050E94060723
:101AC00064E675E0E9C18330910599F489E695E013
:101AD0000E94F2050E94060761E775E084EF96E038
:101AE0000E949D0568EE73E080E090E00E94FB019B
:101AF000A1CD8430910509F0D6C00E94060766E7A3
:101B000075E084EF96E00E949D05E0904806F09015
:101B1000490682E00E94E600082F85E00E94E60068
:101B2000182F6BE775E087E596E00E949D05602F12
:101B300070E090E080E04AE00E94AC0567E475E068
:101B400087E596E00E949D0567E875E087E596E0E9
:101B50000E949D05612F70E090E080E04AE00E94C5
:101B6000AC0567E475E087E596E00E949D0542E4D8
:101B700056E063E476E0802F0E947C05D82E40E496
:101B800056E061E476E0812F0E947C0590913C064E
:101B9000911102C0D11003C0D0923C0612CD21E0B9
:101BA00020933C0600913F06000F082B0F73009313
:101BB0003F0680913E068F5F80933E0630E020E036
:101BC00061E010E0A801022E02C0559547950A94E5
:101BD000E2F7417064272F5F3F4F2830310591F7BE
:101BE000662301F11595079520913D06013021F5F9
:101BF000211124C080E995E00E94F20581E08093E4
:101C00003D0610923E0614E6F19EF0011124EE0D01
:101C1000F11DEE0FFF1FEF5FFE4F21E030E031833B
:101C200020839D2D80913E06863010F010923E0656
:101C3000992309F4C6CCC0CC2223A1F3863091F7B6
:101C400002301105A9F410923D0610923E068AEA70
:101C500095E00E94F20534E6F39EF0011124EE0DAA
:101C6000F11DEE0FFF1FEF5FFE4F11830083D9CFF1
:101C70000115110519F482EC95E0EBCF6BED75E0E1
:101C800087E596E00E949D054AE0B801012E000C10
:101C9000880B990B0E94AC0567E475E087E596E038
:101CA0000E949D05D8CF8530910509F093C08BEE39
:101CB00095E00E94F2050E9406078091490690E097
:101CC0001C8A1B8A1E8A1D8A188E1F8A4AE0B1014F
:101CD00001960E94AB0FF10101900020E9F73197C6
:101CE000AF0142195309B101CE0143960E942D065E
:101CF0001A8219821C821B821E821D8242E050E0E1
:101D000065EF75E0C1010E942D06EB88FC88E114A7
:101D1000F10409F452C00F89188D01151105B1F0B5
:101D20008D819E81080F191FB801C1010E9405060F
:101D3000882309F442C029813A818D819E81B701AF
:101D4000820F931F0E9480121E830D831A8E198E9C
:101D50001C8E1B8E1E8E1D8E69817A816115710508
:101D600031F04D815E81CE0149960E942D06C10160
:101D70000E949505CE0143960E9495054D8D5E8D7E
:101D8000698D7A8D84EF96E00E94230768EE73E0F8
:101D900080E090E00E94FB018091490690E001966E
:101DA00065E070E00E946710809349061092480633
:101DB000CE0149960E94950504CC89819A810097AD
:101DC00011F00E9431111A8219821E821D821C821A
:101DD0001B82BCCF069749F488EF95E00E94F2057C
:101DE0000E94060766E076E057C08BE096E00E940E
:101DF000F205E7CB06301105C1F460E08DE00E94EA
:101E00000F0161E08CE00E940F0162E370E08BE063
:101E10000E94790160E087E00E940F0161E088E0A4
:101E20000E940F016BE470E0F2CB70E060E08BE0A9
:101E30000E94790160E08DE00E940F0160E08CE07B
:101E40000E940F0170E060E089E00E94790160E08B
:101E500087E00E940F0160E088E00E940F01DACB6A
:101E600021303105C9F522E030E030934B06209354
:101E70004A0680914A0690914B0690934D068093B6
:101E80004C06009709F05CCB8AE495E00E94F205CD
:101E90000E9406076FE475E084EF96E00E949D05BE
:101EA00090CB86E090E02130310509F43DCB26301F
:101EB0003105C1F48630910509F036CB10924B06FE
:101EC00010924A06D6CF83E090E0EDCF84E090E018
:101ED000EACF85E090E0E7CF81E090E02630310561
:101EE00009F422CB2430310509F01ECB8430910552
:101EF00009F01ACB10924B0610924A0680914906BF
:101F0000E0914806F0E034E6839FC0011124DC0133
:101F1000AE0FBF1FAA0FBB1FAF5FBE4F2D913C91ED
:101F20002230310559F03196E80FF91FEE0FFF1FEF
:101F3000EF5FFE4F42E050E05183408380914A06BC
:101F400090914B068430910509F0F7CA90934D06A5
:101F500080934C06D2CDBB274A3031F4992322F42A
:101F6000BDE2909581959F4F0C94B70FBB27FB0165
:101F70005527AA27880F991FAA1FA41710F0A41B82
:101F800083955051B9F7A05DAA3308F0A95DA193DC
:101F9000009779F7B111B1931192CB010C94D00F46
:101FA000DC01FC01672F71917723E1F7329704C0C0
:101FB0007C916D9370836291AE17BF07C8F308954B
:101FC000052E97FB1EF400940E94F70F57FD07D0D3
:101FD0000E94361007FC03D04EF40C94F70F509576
:101FE0004095309521953F4F4F4F5F4F0895909505
:101FF0008095709561957F4F8F4F9F4F08952F92D9
:102000003F924F925F926F927F928F929F92AF9288
:10201000BF92CF92DF92EF92FF920F931F93CF93D5
:10202000DF93CDB7DEB7CA1BDB0B0FB6F894DEBF6C
:102030000FBECDBF09942A88398848885F846E8492
:102040007D848C849B84AA84B984C884DF80EE80DC
:10205000FD800C811B81AA81B981CE0FD11D0FB6E5
:10206000F894DEBF0FBECDBFED010895A1E21A2E98
:10207000AA1BBB1BFD010DC0AA1FBB1FEE1FFF1F2C
:10208000A217B307E407F50720F0A21BB30BE40B7C
:10209000F50B661F771F881F991F1A9469F76095C3
:1020A0007095809590959B01AC01BD01CF0108957D
:1020B000A29FB001B39FC001A39F700D811D112489
:1020C000911DB29F700D811D1124911D089597FBE4
:1020D000072E16F4009407D077FD09D00E947B10DC
:1020E00007FC05D03EF4909581959F4F089570951B
:1020F00061957F4F0895AA1BBB1B51E107C0AA1F22
:10210000BB1FA617B70710F0A61BB70B881F991F98
:102110005A95A9F780959095BC01CD010895EE0FD1
:10212000FF1F0590F491E02D09940F931F93CF9317
:10213000DF938230910510F482E090E0E091070790
:10214000F091080730E020E0B0E0A0E0309799F48B
:102150002115310509F44AC0281B390B24303105FB
:10216000D8F58A819B816115710589F1FB01938303
:102170008283FE0111C04081518102811381481781
:102180005907E0F04817590799F4109761F0129633
:102190000C93129713961C933296CF01DF91CF9137
:1021A0001F910F9108950093070710930807F4CF2C
:1021B0002115310551F04217530738F0A901DB0111
:1021C0009A01BD01DF01F801C1CFEF01F9CF909372
:1021D000080780930707CDCFFE01E20FF31F81931D
:1021E00091932250310939832883D7CF2091050755
:1021F00030910607232B41F42091EB043091EC043D
:1022000030930607209305072091E9043091EA04F2
:102210002115310541F42DB73EB74091ED045091A1
:10222000EE04241B350BE0910507F0910607E21739
:10223000F307A0F42E1B3F0B2817390778F0AC01E9
:102240004E5F5F4F2417350748F04E0F5F1F5093C6
:10225000060740930507819391939FCFF0E0E0E05C
:102260009CCFCF93DF930097E9F0FC013297138264
:102270001282A0910707B0910807ED0130E020E03D
:102280001097A1F420813181820F931F20910507BF
:10229000309106072817390709F061C0F093060747
:1022A000E0930507DF91CF910895EA01CE17DF078C
:1022B000E8F54A815B819E0141155105B1F7E901BD
:1022C000FB83EA8349915991C40FD51FEC17FD0791
:1022D00061F4808191810296840F951FE9019983B1
:1022E0008883828193819B838A83F0E0E0E0129669
:1022F0008D919C9113970097B9F52D913C91119771
:10230000CD010296820F931F209105073091060799
:102310002817390739F6309751F5109208071092AF
:102320000707B0930607A0930507BCCFD383C283EA
:1023300040815181840F951FC817D90761F44E5F02
:102340005F4F88819981480F591F518340838A814B
:102350009B81938382832115310509F0B0CFF093DF
:102360000807E09307079ECFFD01DC01C0CF138271
:102370001282D7CFB0E0A0E0E0ECF1E10C940110C4
:102380008C01009751F4CB010E9495108C01C8017B
:10239000CDB7DEB7E0E10C941D10FC01E60FF71F8E
:1023A0009C0122503109E217F30708F49DC0D901BE
:1023B000CD91DC911197C617D70798F0C530D1059C
:1023C00030F3CE0104978617970708F3C61BD70B87
:1023D0002297C193D1936D937C93CF010E943111C9
:1023E000D6CF5B01AC1ABD0A4C018C0E9D1EA0918C
:1023F0000707B0910807512C412CF12CE12C1097C4
:1024000031F580910507909106078815990509F027
:102410005CC04616570608F058C08091E9049091B8
:10242000EA04009741F48DB79EB74091ED045091B6
:10243000EE04841B950BE817F90708F055C0F093DC
:102440000607E0930507F90171836083A0CF8D91A2
:102450009C91119712966C90129713967C901397FB
:10246000A815B90559F56C0142E0C40ED11CCA1477
:10247000DB0420F1AC014A195B09DA0112961597C9
:1024800080F06282738251834083D9016D937C9383
:10249000E114F10471F0D7011396FC93EE931297B7
:1024A00076CF22968C0F9D1FF90191838083F301D3
:1024B000EFCFF0930807E093070769CF4816590656
:1024C00008F42C017D01D3019ACFCB010E94951015
:1024D0007C01009749F0AE01B8010E947712C80153
:1024E0000E943111870153CF10E000E050CFFB0173
:1024F000DC0102C001900D9241505040D8F7089580
:10250000FB01DC0101900D920020E1F70895F894A1
:02251000FFCFFB
:10251200FF020000000000000000000000000000B8
:1025220000000000000000000000000000000000A9
:102532000000000000000000000000000000000099
:102542000000000000000000000000000000000089
:102552000000000000000000000000000000000079
:102562000000000000000000000000000000000069
:102572000000000000000000000000000000000059
:102582000000000000000000000000000000000049
:102592000000000000000000000000000000000039
:1025A2000000000000000000000000000000000029
:1025B2000000000000000000000000000000000019
:1025C2000000000000000000000000000000000009
:1025D20000000000000000000002000000000000F7
:1025E20000000000000000000000000000000000E9
:1025F20000000000000000000000000000000000D9
:1026020000000000000000000000000000000000C8
:1026120000000000000000000000000000000000B8
:1026220000000000000000000000000000000000A8
:102632000000000000000000000000000000000098
:102642000000000000000000000000000000000088
:102652000000000000000000000000000000000078
:102662000000000000000000000000000000000068
:102672000000000000000000000000000000000058
:102682000000000000000000000000000000000048
:102692000000000000000000000000000000000038
:1026A2000002000000000000000000000000000026
:1026B2000000000000000000000000000000000018
:1026C2000000000000000000000000000000000008
:1026D20000000000000000000000000000000000F8
:1026E20000000000000000000000000000000000E8
:1026F20000000000000000000000000000000000D8
:1027020000000000000000000000000000000000C7
:1027120000000000000000000000000000000000B7
:1027220000000000000000000000000000000000A7
:102732000000000000000000000000000000000097
:102742000000000000000000000000000000000087
:102752000000000000000000000000000000000077
:102762000000000000000000000200000000000065
:102772000000000000000000000000000000000057
:102782000000000000000000000000000000000047
:102792000000000000000000000000000000000037
:1027A2000000000000000000000000000000000027
:1027B2000000000000000000000000000000000017
:1027C2000000000000000000000000000000000007
:1027D20000000000000000000000000000000000F7
:1027E20000000000000000000000000000000000E7
:1027F20000000000000000000000000000000000D7
:1028020000000000000000000000000000000000C6
:1028120000000000000000000000000000000000B6
:1028220000000000000000000000000000000000A6
:102832000002000000000000000000000000000094
:102842000000000000000000000000000000000086
:102852000000000000000000000000000000000076
:102862000000000000000000000000000000000066
:102872000000000000000000000000000000000056
:102882000000000000000000000000000000000046
:102892000000000000000000000000000000000036
:1028A2000000000000000000000000000000000026
:1028B2000000000000000000000000000000000016
:1028C2000000000000000000000000000000000006
:1028D20000000000000000000000000000000000F6
:1028E20000000000000000000000000000000000E6
:1028F2000000000000000000000000090780006ED8
:102902000074007B0082008A0092009B00A400AE4B
:1029120000B900C400CF00DC00E900F60005011593
:10292200012501370149015D01720188019F01B84A
:1029320001D201ED010B022A0200000000FA025A44
:102942000287024703B8029602AA0200000000644E
:10295200072307790578050D0A0069646C6500494B
:10296200444C4500706C617900504C4159007061D3
:1029720075736500504155530072657374617274CA
:10298200005245535400524541440052617720435E
:102992006C6F636B3A20005261772044617461006E
:1029A2005265636569766564205354415254206EC2
:1029B2006F746520636F64652E0052656365697686
:1029C200656420454E44206E6F746520636F6465B4
:1029D2002E0052656365697665642049444C452042
:1029E2006E6F746520636F64652E0052656365695E
:1029F200766564206E6F74653A2000736574207486
:102A02007261636B005452006D6F746F7220726555
:102A12007665727365005245564D00737461746534
:0C2A220020657863657074696F6E0000B9
:00000001FF
